:1000000000000110E500000075010000590100002A
:100010007501000075010000750100007501000008
:100020007501000075010000750100008D170000CA
:1000300075010000750100009F170000B117000056
:100040002536000025360000253600002536000044
:100050002536000025360000253600002536000034
:100060002536000025360000253600002536000024
:100070002536000025360000253600002536000014
:100080002536000025360000253600002536000004
:1000900025360000253600002536000025360000F4
:1000A00025360000253600002536000025360000E4
:1000B00025360000253600002536000025360000D4
:1000C00025360000253600002536000025360000C4
:1000D00025360000253600002536000025360000B4
:1000E0002536000008B500F057F900F073F900F06C
:1000F0007BF900F09BF800F095F800F093FF00F01A
:10010000CBFE00F0BFF840B141F28734002500F08B
:10011000B5FF8D4208BF8442F9D200F082F918B9C8
:100120000849094805F04CFB0649084805F048FB1A
:1001300001F0C0FA064B07481B68D96804F0D6FAEC
:10014000FEE700BFC08F0000CC8F0000F98F0000D9
:1001500034010010119000001EF0040F0CBFEFF3EB
:100160000880EFF309808169004A1047D10100003F
:100170007047FFFF38B50F4C0F4B10481D782368B0
:10018000D96804F0B3FA23680D49D8682A4604F008
:1001900035FA0F2D236807D80A4A0B4952F8252053
:1001A000D86804F02BFAFEE7D968084804F09EFAF4
:1001B000F9E700BF3401001004ED00E04C900000AE
:1001C0006690000058910000A0900000BE900000D2
:1001D00010B5044600F04AF8236883606368C36082
:1001E000A3680361E3684361236943626369013B78
:1001F000C361A3698361E3690362BFF34F8F05495C
:10020000054BCA6802F4E0621343CB60BFF34F8F23
:1002100000BFFDE700ED00E00400FA05004870476C
:1002200000D8B8050048704700D8B8050E4B072223
:10023000C3F88420AA210122C3F88020C3F88C10BF
:100240005521C3F88C10C3F8A821D3F88820520593
:10025000FBD51A6822F4704242F480421A6040F2E0
:100260000112C3F80421704700C00F400248034A3E
:10027000034BC0E90023704700000020EFBEADDE55
:100280001041522138B5224C224B22689A423DD16E
:100290006268214B9A4239D1204D21482B68D96898
:1002A00004F024FA2B68A2691E49D86804F0A6F964
:1002B0002B68E2691C49D86804F0A0F92B68226A0F
:1002C0001A49D86804F09AF92B68A2681849D868C6
:1002D00004F094F92B68E2681649D86804F08EF9A6
:1002E0002B6822691449D86804F088F92B68626980
:1002F0001249D86804F082F92B681148D96804F0D3
:10030000F5F901200023C4E9003338BD0020F9E7E6
:1003100000000020EFBEADDE10415221340100107C
:1003200098910000EB910000FA9100000992000002
:1003300018920000279200003692000045920000BB
:10034000549200000E4A136810B50E4C1918A142C1
:10035000116002D30C4CA1420BD313600B4A0C4921
:1003600013681844884208D30A49884205D21060AD
:1003700001E0002BF2D0184610BD0023FBE700BFC0
:100380000000001028000020008000200400001061
:100390006C0A001000000110094A0A4B0A498B42FE
:1003A00005D30A4B0A4A0021934205D3704712F83D
:1003B000010B03F8010BF2E703F8011BF4E700BFA0
:1003C000549F0000000000100803001008030010F4
:1003D0006C0A0010034AD2F8883043F47003C2F864
:1003E0008830704700ED00E0044800232021C21847
:1003F0000133292B82F80013F9D1704700E100E0A6
:1004000008B52A2219233821022003F0FDF80D2215
:100410003821022003F0B4F8A0F12A0358425841D1
:1004200008BDFFF7EDBF42884378007843EA022316
:1004300040EA0320704710B5024410F8013B11F860
:10044000014B9042A3EB040301D0002BF5D01846DA
:1004500010BD02684AB1134613F8011B1F290BD9BE
:100460003A29F9D1911C8B4202D04FF0FF307047EE
:100470001278302AF9D103600020704770B500F17E
:100480003806426B044601233146407800F05AFAA0
:10049000054688B9616BA36A226AE070CB1A934261
:1004A00008D2A378022B05D10A4401233146607893
:1004B00000F048FA284670BD0125FBE738B5436BCC
:1004C0008B4204460D4619D0C3788BB901232A46C6
:1004D00004F13801607800F021FA002818BF4FF0CD
:1004E000FF35034665630CBF03460123184638BD3C
:1004F000FFF7C4FF03460028F8D1E7E70023F5E73C
:1005000038B50023C3704FF0FF3343630546FFF750
:10051000D5FF044618BB95F8372295F8363243EAE2
:1005200002234AF6552293421BD195F83830EB2B23
:1005300003D01833DBB2012B15D803220B4905F188
:100540006E00FFF778FF40B10522094905F18A00E6
:10055000FFF771FF002818BF0224204638BD04248D
:10056000FBE70324F9E70224F7E700BF2893000024
:100570002C9300002DE9F043002385B00B600F465B
:100580001546FFF766FF061EC0F23981A44B53F8EB
:100590002640002C00F03581206900F09EF90028EB
:1005A00000F031813C60237805F0FE056BB1607886
:1005B00000F0AFF9C10708D41DB110F0040500D058
:1005C0000A25284605B0BDE8F0830023F0B2237069
:1005D000607000F090F9C20700F117810DB1430778
:1005E000EED400212046FFF78BFF022840F0EE807A
:1005F0006F4604F5FF7104F23E263D4611F8040CE7
:1006000010B10846FFF70FFF10318E4245F8040B7A
:10061000F4D1002557F8046B002E00F0CE8031464F
:100620002046FFF76DFF012800F2C88094F84420AF
:1006300094F8433043EA0223B3F5007F40F0CA80C8
:1006400094F84F3094F84E5055EA032504D104F144
:100650005C00FFF7E8FE054694F8481025624B1E43
:10066000012BA17000F2B68094F845901FFA89F32F
:100670006381002B00F0AE8009F1FF3313EA090F0C
:1006800040F0A88094F84A3094F8497047EA03276C
:100690003FB21FFA87F818F00F0FA4F8088040F057
:1006A000998094F84C3094F84B0050EA032003D121
:1006B00004F15800FFF7B7FE94F8472094F846304D
:1006C00053EA022300F0868005FB01FC03EB1812BD
:1006D000624490427ED3801A4845B0FBF9F179D349
:1006E0005048814276D84FF6F570814240F28F80B3
:1006F0004FF00309023133443244B9F1030FE16191
:100700006662A362226369D194F8632094F8623030
:1007100043EA02231F433FB2002F5BD104F1640080
:10072000FFF781FEE062890001F2FF11B5EB512F66
:1007300050D34FF0FF33C4E90533B9F1030F4FF045
:10074000800323712FD194F8692094F8683043EA2C
:100750000223012B27D1711C2046FFF7AFFE10BBEF
:1007600094F8372294F83632207143EA02234AF68D
:100770005522934217D104F13800FFF754FE2A4B5B
:10078000984210D104F50770FFF74DFE274B9842B1
:1007900009D104F50870FFF746FEA06104F5097061
:1007A000FFF741FE6061224A84F80090138801330C
:1007B0009BB21380E380002503E703200135042D5D
:1007C0007FF428AF042805D10125FAE60428FBD0E0
:1007D000012801D90D25F4E6002627E7B8F1000F1E
:1007E000F8D06344B9F1020FE3624FEA41031BBF43
:1007F0005B1801F00101194601EB530194E70B2549
:10080000DFE60C25DDE60F25DBE60325D9E640F61D
:10081000F57949458CBF4FF002094FF0010969E7AE
:1008200008030010F5FFFF0F5252614172724161DF
:100830000C03001040B1A1F10B03012B04D90F29C7
:1008400002D0006900F052B87047FFFFF0B585B0E4
:10085000CDE9001003A814460391FFF7FAFD051E29
:1008600028DB154F57F825604EB1306900F030F89D
:1008700018B90224204605B0F0BD00233370019959
:1008800079B9019B47F82530002CF3D001A900224B
:100890006846FFF76FFE044601460198FFF7CAFF5E
:1008A000E8E7002301F8103BE8B200F007F8002861
:1008B000E7D1DEE70B24DDE70803001010B50120C7
:1008C0000C4601F084FB2060003018BF012010BDF1
:1008D00008B501F0EBFD012008BD08B540F6B831C0
:1008E00001F0D6FC431E5842584108BD00231A4669
:1008F000194601F0A9BA10B5044600F055FB34B909
:1009000000F0FAF8044600F069FB204610BD04240C
:10091000F9E708B900F08EB904207047F8B507462A
:100920000C4615461E4600F03FFB4FB92046F2B27A
:10093000294600F087F9044600F050FB2046F8BD38
:100940000424F9E7F8B507460C4615461E4600F0A4
:100950002BFB4FB92046F2B2294600F0B9F9044604
:1009600000F03CFB2046F8BD0424F9E738B500F060
:1009700085FB00F5FA75FF2002F02AFFFF2002F048
:1009800027FFFF28044603D000F078FB8542F5D806
:10099000204638BD08B502F023FBFFF7E7FF02F061
:1009A00027FB034A137843F00103137008BD00BF0F
:1009B0000800001038B505460C46FFF7D7FFFF28A2
:1009C00021D1204602F004FFFD2C1ED0AC1C05F204
:1009D000022514F8020C02F0FBFE023414F8030C9A
:1009E00002F0F6FEAC42F4D1FF2002F0F1FEFF204F
:1009F00002F0EEFEFF2002F0EBFE00F01F00431FAE
:100A00005842584138BD0020FCE70120FAE737B5CD
:100A1000020604460D4607D500217720FFF7F7FFB1
:100A2000012831D804F07F0402F0E2FA02F0D8FA8B
:100A3000FFF79CFFFF282BD1402C27D0482C0CBF60
:100A4000872301232A0E8DF801202A0C8DF802201D
:100A500006212A0A68468DF800408DF803208DF89B
:100A600004508DF8053002F0BDFE4C2C02D1FF2061
:100A700002F0AEFE0A24FF2002F0AAFE030603D510
:100A8000013C14F0FF04F6D103B030BD9523D9E743
:100A9000FF20F9E770B5054600F0F0FA00F16406B2
:100AA000FF2002F095FE044600F0E8FA864201D3EA
:100AB000FF2CF5D0FE2C0CD14FF40071284602F02B
:100AC00094FEFF2002F084FEFF2002F081FE012050
:100AD00070BD0020FCE7FFFF38B5064D2C78E4B26E
:100AE00002F08EFA18B104F0FD042C7038BD44F009
:100AF0000304FAE7080000102DE9F341FFF7ECFFCB
:100B00004A4B1A7812F0020F1E4604D01878C0B271
:100B100002B0BDE8F081C82002F022FE0A25FF20C5
:100B2000013D02F055FE15F0FF05F8D102F058FA2C
:100B300029464020FFF76BFF0128044671D100F0E1
:100B40009DFA4FF4D57100F57A774820FFF75FFFE3
:100B5000012848D101ADA8460424FF2002F038FE48
:100B6000013C14F0FF0408F8010BF6D19DF80630A3
:100B7000012B56D19DF80730AA2B52D100F07EFAF6
:100B8000874206D94FF08041E920FFF740FF002857
:100B9000F4D100F073FA874243D900217A20FFF79D
:100BA00036FF00283DD10424FF2002F011FE013C55
:100BB00014F0FF0405F8010BF6D19DF8043013F092
:100BC000400F14BF0C240424194B1C7002F010FABF
:100BD0004CB3337845F6C05003F0FE03337002F097
:100BE000BFFD307893E72946E920FFF710FF022880
:100BF00036BFE9254125022400F040FA874205D995
:100C000000212846FFF703FF0028F5D100F036FA4F
:100C1000874206D84FF400715020FFF7F8FE0028F5
:100C2000D2D00024D0E7FFF7B5FEDAE708000010C5
:100C30000E03001008B5FFF74FFF014B187808BDF1
:100C40000800001070B5144605460E46FFF744FF35
:100C5000002C35D01C4B1B78DA0733D402F0C0F9D6
:100C60001A4B1B781B0758BF7602012C314611D155
:100C70005120FFF7CCFE38B94FF400712846FFF73A
:100C800009FFB0FA80F4640902F0B2F9201C18BF21
:100C9000012070BD5220FFF7BAFE0028F4D14FF4B6
:100CA00000712846FFF7F6FE28B1013C14F0FF045E
:100CB00005F50075F3D100214C20FFF7A8FEE3E70E
:100CC0000420E6E70320E4E7080000100E0300100C
:100CD00070B5144605460E46FFF7FEFE002C41D0C7
:100CE000234B1A78D0073FD41B7859073ED402F023
:100CF00077F9204B1B781A0758BF7602012C11D1C7
:100D000031465820FFF783FE50BBFE212846FFF7EF
:100D100051FEB0FA80F4640902F06AF9201C18BF91
:100D2000012070BD13F0060F03D02146D720FFF736
:100D30006EFE31465920FFF76AFE0028ECD1FC21F7
:100D40002846FFF737FE28B1013C14F0FF0405F5F3
:100D50000075F4D1FD210020FFF72CFE0028DBD127
:100D60000124D9E70420DCE70320DAE70220D8E7F2
:100D7000080000100E03001008B5064604F030FE0F
:100D800000240546A54200DCFEE7315D002002F0AC
:100D90001BFE0134F6E7FFFF02280CD9074B1B6846
:100DA0005A68824207D09A68824204D0DB681B1AD4
:100DB0005842584170470120704700BF340100106D
:100DC000F8B504460E461546FFF7E6FF48B3164B46
:100DD0001B68DB68A34210D0A31E5C425C4101F09B
:100DE0004FFF0746002002F0A5FD022F17D1B0B13A
:100DF000ACB9A54203DC2846F8BD0124EFE7315D1C
:100E00004FF0FF32002002F047FE0134F1E7315D80
:100E1000002002F0D9FD0134A542F8DCEBE7002404
:100E2000FAE70248FFF7A8FF3401001064930000BE
:100E300008B5FFF7B1FF18B1002002F001FE08BDB0
:100E40000148FFF799FF00BF32930000F8B5044650
:100E50000D4600F0FDF8061941EB050701F010FF03
:100E600002280CD100234FF47A72AB4208BFA24291
:100E700005D22046294603F03FFA01F0DBFD00F0E1
:100E8000E7F8B94208BFB042F9D3F8BD4FF47A731E
:100E9000A0FB0301FFF7DABF30B585B002F020F800
:100EA00002F0B8F8ADF8080002F0C6F8ADF80A0094
:100EB00002F0D4F8ADF80C0002F0E2F80024ADF82E
:100EC0000E0004AA04F0030302EB4303013433F8D9
:100ED000080C02F093F93220FFF7D8FF202CF0D154
:100EE00045F6C05002F052FC002223492348FFF788
:100EF000ADFC234B1868002319460222406804F019
:100F000087FCFFF78FF9002501464FF4E1320020FE
:100F100002F0D0FC00951B4B1B4A0121204600F03B
:100F200023FF1A4B00950446194A0121802000F046
:100F30001BFF22460146284602F008FD154A1649C5
:100F40001648174D04F03CFCFFF76CF915490246B2
:100F5000022002F08DFA0224E1B2022002F048FBE6
:100F600018B12146284604F02BFC0234B4F5807FEA
:100F7000F2D105B030BD00BFBD900000800300106D
:100F800034010010300300100F0300103806001069
:100F9000B805001097930000A8930000F993000093
:100FA00016940000801A060010B50A4C236823B975
:100FB0000949012000F0F6FF206001F061FE0228DF
:100FC00006D120684FF0FF31BDE8104001F060B954
:100FD00010BD00BF880600108C06001010B501F08F
:100FE0004FFE022808D1054800231A46194600681A
:100FF000BDE8104000F028BF10BD00BF88060010FB
:10100000074A08B51368002101330846136002F04F
:1010100051F900210846BDE8084002F039B900BF87
:10102000DC06001008B5074A0749B0FBF1F10020C3
:10103000013902F0F7F80021044A0846BDE80840EB
:1010400002F014B90110000040420F000087930322
:1010500070B5084E002002F025F9054600203468DE
:1010600002F020F98542F5D8034B0021E3FB04018F
:1010700070BD00BFDC0600100087930308B5FFF7C2
:10108000E7FF4FF47A72002303F036F908BD70B51C
:10109000054608460C4604F0A3FC2618B44205D1C8
:1010A00028460A21BDE8704002F08EBC14F8011BEE
:1010B000284602F089FCF1E708B51E21012002F064
:1010C0005FF8304B00B21870C0F3072058701F2132
:1010D000012002F055F82C4B00B21870C0F3072025
:1010E00058701421012002F04BF8284B00B2187000
:1010F000C0F3072058701721012002F041F8244B5B
:1011000000B21870C0F3072058701C21012002F0B3
:1011100037F8204B00B21870C0F3072058701D211B
:10112000012002F02DF81C4B00B21870C0F307200C
:1011300058700121022002F023F8184B00B21870F9
:10114000C0F3072058700421022002F019F8144B54
:1011500000B21870C0F3072058700621022002F078
:101160000FF8104B00B21870C0F307205870082118
:10117000022002F005F80C4B00B21870C0F30720F3
:10118000587008BD540A00105A0A0010560A001080
:10119000520A0010500A0010480A00104C0A0010B1
:1011A000580A00104E0A00104A0A001010B5094CE7
:1011B0002378607843EA002002F004F80A20FFF761
:1011C00065FE23786078BDE8104043EA002002F015
:1011D00007B800BF540A001008B5214B1A78587898
:1011E00042EA002001F0FCFF1E4B1A78587842EAD0
:1011F000002001F0F5FF1C4B1A78587842EA0020D5
:1012000001F0EEFF194B1A78587842EA002001F0FD
:10121000D9FF174B1A78587842EA002001F0D2FF24
:10122000144B1A78587842EA002001F0D9FF124B8B
:101230001A78587842EA002001F0D2FF0F4B1A7852
:10124000587842EA002001F0CBFF0D4B1A7858780D
:1012500042EA002001F0C4FFBDE80840FFF7A6BF46
:101260005A0A0010560A0010520A0010500A0010C4
:10127000480A00104C0A0010580A00104E0A0010CC
:101280004A0A001008B5214B1A78587842EA002023
:1012900001F0A6FF1E4B1A78587842EA002001F0B0
:1012A00091FF1C4B1A78587842EA002001F098FF11
:1012B000194B1A78587842EA002001F091FF174B39
:1012C0001A78587842EA002001F08AFF144B1A7805
:1012D000587842EA002001F083FF124B1A785878C0
:1012E00042EA002001F07CFF0F4B1A78587842EA5E
:1012F000002001F075FF0D4B1A78587842EA002063
:1013000001F06EFFBDE80840FFF750BF5A0A001019
:10131000560A0010520A0010500A0010480A001025
:101320004C0A0010580A00104E0A00104A0A001019
:101330002DE9F04F89B0804604F052FBDFF8509160
:10134000DFF850A1494E07460025BD4202DB09B037
:10135000BDE8F08F18F805B04846594604F030FA59
:1013600020220021684603F005FA07244BFA04F214
:1013700002F00102214650464DF8242004F020FAE4
:1013800014F1FF34F2D2009B7078012B337843EADA
:10139000002052D101F016FF019B012B344B1A782B
:1013A000587842EA00204BD101F00CFF029B012B40
:1013B000304B1A78587842EA002044D101F002FFFD
:1013C000039B012B2C4B1A78587842EA00203DD120
:1013D00001F0F8FE049B012B284B1A78587842EA5A
:1013E000002036D101F0EEFE059B012B244B1A782C
:1013F000587842EA00202FD101F0E4FE069B012B31
:10140000204B1A78587842EA002028D101F0DAFE01
:10141000079B012B1C4B1A78587842EA002021D1F7
:1014200001F0D0FE194B1A78587842EA002001F0FA
:10143000C9FE0135FFF7BAFE87E701F0D1FEABE741
:1014400001F0CEFEB2E701F0CBFEB9E701F0C8FE35
:10145000C0E701F0C5FEC7E701F0C2FECEE701F02C
:10146000BFFED5E701F0BCFEDCE700BF560A001066
:10147000520A0010500A0010480A00104C0A0010CE
:10148000580A00104E0A00104A0A00105A0A0010AA
:101490003D9400005894000008B51A4B1A7858780B
:1014A00042EA002001F09CFE174B1A78587842EA75
:1014B000002001F087FE154B1A78587842EA002088
:1014C00001F080FE124B1A78587842EA002001F0B1
:1014D00079FE104B1A78587842EA002001F072FE2B
:1014E0000D4B1A78587842EA002001F079FE0B4B38
:1014F0001A78587842EA002001F072FEBDE80840F0
:10150000FFF754BE5A0A0010500A0010480A001093
:101510004C0A0010580A00104E0A00104A0A001027
:1015200008B5214B1A78587842EA002001F058FE9D
:101530001E4B1A78587842EA002001F051FE1C4BED
:101540001A78587842EA002001F04AFE194B1A78BE
:10155000587842EA002001F043FE174B1A78587879
:1015600042EA002001F02EFE144B1A78587842EA25
:10157000002001F035FE124B1A78587842EA00201C
:1015800001F020FE0F4B1A78587842EA002001F053
:1015900027FE0D4B1A78587842EA002001F012FE1F
:1015A000BDE80840FFF702BE5A0A0010560A0010B4
:1015B000520A0010500A0010480A00104C0A00108D
:1015C000580A00104E0A00104A0A001008B5214BB4
:1015D0001A78587842EA002001F002FE1E4B1A7871
:1015E000587842EA002001F0FBFD1C4B1A7858782D
:1015F00042EA002001F0F4FD194B1A78587842EACB
:10160000002001F0EDFD174B1A78587842EA0020CF
:1016100001F0E6FD144B1A78587842EA002001F0F8
:10162000DFFD124B1A78587842EA002001F0D8FD0D
:101630000F4B1A78587842EA002001F0D1FD0D4B8B
:101640001A78587842EA002001F0BCFDBDE8084055
:10165000FFF7ACBD5A0A0010560A0010520A0010DB
:10166000500A0010480A00104C0A0010580A0010D6
:101670004E0A00104A0A001008B5FFF71DFD0A20A7
:10168000FFF704FCFFF7A8FD0A20FFF7FFFBFFF7B9
:10169000F9FD0A20FFF7FAFBFFF7FEFE0A20FFF72D
:1016A000F5FBFFF793FF0248BDE80840FFF740BE97
:1016B0005094000008B5FFF7DFFFFFF7E3FDFFF7E9
:1016C00085FF0648FFF734FEFFF72AFF0448FFF7BF
:1016D0002FFE01F065F84FF0FF3008BD6A9400005E
:1016E0006E9400000C460020044908B5FFF7CFFCBB
:1016F00021460020FFF7CBFCFEE700BFA4950000C9
:1017000008B502490020FFF7C2FCFEE76A95000019
:10171000024B0022C3F8C02030BF704700C00F400A
:1017200008B50C4600200A49FFF7B1FC0949002022
:10173000FFF7ADFC08490020FFF7A9FC074900208E
:10174000FFF7A5FC21460020FFF7A1FCFEE700BF44
:1017500072940000C4940000079500003B950000BF
:10176000034B0360034B0B6064231360704700BF9F
:1017700078080010E806001008B5FFF769FC024B76
:101780001B68C01A08BD00BFE006001008B501F0D4
:101790008BFB00F06DF8BDE8084001F099BB08B57F
:1017A00001F082FB00F0ACF8BDE8084001F090BB0E
:1017B00008B501F079FB00F0D5F8BDE8084001F06C
:1017C00087BBFFFF08480068006880F308884FF077
:1017D000000080F3148862B661B6BFF34F8FBFF389
:1017E0006F8F00DF00BF000008ED00E0DFF80C00A5
:1017F000016841F4700101607047000088ED00E06D
:1018000007B5002301930B4B1B68013304D00A4931
:10181000EF20FFF785FFFEE74FF0180383F31188F1
:10182000BFF36F8FBFF34F8F019B002BFCD003B032
:101830005DF804FBDC080010C19500004FF08073D8
:1018400040F8043C074B40F80C3C21F001016FF0DC
:10185000020340F8081C40F8202C40F8243C44388F
:10186000704700BF01180000FFFFFFFFFFFFFFFFF1
:10187000074B19680868B0E8F04F80F30988BFF398
:101880006F8F4FF0000080F311887047AFF3008036
:10189000E008001008B54FF0180383F31188BFF378
:1018A0006F8FBFF34F8F094A13680133012B136009
:1018B0000AD1074B1B6813F0FF0F05D0054940F212
:1018C000AB10FFF72DFFFEE708BD00BFDC080010DE
:1018D00004ED00E0DB950000074A08B513682BB95A
:1018E00006494FF4D970FFF71BFFFEE7013B136079
:1018F0000BB983F3118808BDDC08001010960000B6
:10190000EFF30980BFF36F8F154B1A681EF0100FAD
:1019100008BF20ED108A20E9F04F10602DE9090082
:101920004FF0180080F31188BFF34F8FBFF36F8F14
:1019300001F0A4F84FF0000080F3118809BC196889
:101940000868B0E8F04F1EF0100F08BFB0EC108A26
:1019500080F30988BFF36F8F704700BFAFF300803B
:10196000E008001008B54FF0180383F31188BFF3A7
:101970006F8FBFF34F8F00F055FF18B1034B4FF03F
:1019800080521A60002383F3118808BD04ED00E043
:1019900010B5084A084C002323601360FEF73EFC94
:1019A0004FF47A73B0FBF3F0044B0138186007234F
:1019B000236010BD18E000E010E000E014E000E05B
:1019C000334B344A13B51968914205D132494FF46B
:1019D0009A70FFF7A5FEFEE71A68304B9A4205D1D0
:1019E0002F4940F23510FFF79BFEFEE72D4B1A788A
:1019F000D2B20192FF221A701B782B4ADBB28DF80B
:101A000003309DF8033003F018031370274A0723AF
:101A1000136000219DF80300000603F1FF3409D490
:101A200011B1022B13600ED0214940F25D10FFF777
:101A300077FEFEE79DF803305B00DBB28DF80330E4
:101A400001212346E6E74FF400731360019B154A1A
:101A5000DBB21370174B1A6842F478021A601A68E6
:101A600042F078421A60FFF793FF134B00241C608A
:101A7000FFF7BCFE114A136843F040431360FFF7C1
:101A8000A1FE00F0FBFFFFF7BBFE204602B010BD39
:101A900000ED00E071C20F418E96000070C20F4150
:101AA000B196000000E400E0D4080010D80800104F
:101AB000D496000020ED00E0DC08001034EF00E0D8
:101AC00008B5EFF305830F2B0BD90D4A9B5C0D4A2C
:101AD00012789A4205D90C4940F2FE20FFF720FE09
:101AE000FEE70A4B0A4A1B68126803F4E06393425C
:101AF00005D9084940F20E30FFF712FEFEE708BD97
:101B0000F0E300E0D4080010229600000CED00E0A5
:101B1000D80800104C96000010B5044600F07AFE7C
:101B2000204602F0EFFD044600F00EFF0CB9FFF76F
:101B3000E7FD204610BD10B5044640B100F06AFE36
:101B4000204602F0E7FDBDE8104000F0FDBE10BDEC
:101B500000F108034FF0FF324360C0E90223036144
:101B600000230360704700230361704743684B60A4
:101B70009A688A609A6851609960036808610133C5
:101B8000036070470A68531C30B50AD103695A686C
:101B90004A6091608B60596003680861013303609B
:101BA00030BD00F108035C6825689542EFD82346F4
:101BB000F9E7D0E9011203698A60516059688142EE
:101BC00008BF5A60002202611A68013A1A60186858
:101BD000704710B50446FFF75DFEA46BFFF77CFE6F
:101BE000B4FA84F0400910BDF8B51546026C866B56
:101BF000044652B9076847BB806801F0A3F8A760A4
:101C000005460136A6632846F8BD65B9406802F06E
:101C100089FD6368226C1344A26863609342F0D329
:101C200023686360EDE7C06802F07CFD236CE26826
:101C300021685B421A448A42E2603EBFA2689B1858
:101C4000E360022D01D116B1013E0025D9E73546EA
:101C5000D7E7034610B41A6C084662B1D9689C688D
:101C60001144A142D96024BF1968D960D9685DF8D0
:101C7000044B02F057BD5DF8044B704770B5044645
:101C8000FFF708FE94F8455004F124066DB2002DCC
:101C900014DCFF2384F84530FFF71EFEFFF7FAFD42
:101CA00094F8445004F110066DB2002D12DCFF23AD
:101CB00084F84430BDE87040FFF70EBE636A002B25
:101CC000E7D0304600F050FF08B100F0D3FF013DEF
:101CD0006DB2DCE72369002BE9D0304600F044FF09
:101CE00008B100F0C7FF013D6DB2DEE738B50D4623
:101CF000044628B91A4940F20310FFF711FDFEE728
:101D0000FFF7C8FDD4E90F30226862604343D11861
:101D10001B1A1344A160E3600021FF23A16384F830
:101D2000443084F8453095B9236963B104F110005B
:101D300000F01AFF38B10B4B4FF080521A60BFF31E
:101D40004F8FBFF36F8FFFF7C7FD012038BD04F140
:101D50001000FFF7FDFE04F12400FFF7F9FEF2E7A3
:101D6000DA97000004ED00E013B51C4628B91E49BF
:101D70004FF49D70FFF7D4FCFEE72BB91B494FF4DD
:101D80009F70FFF7CDFCFEE732B161B918494FF4FF
:101D9000A170FFF7C5FCFEE729B1164940F24310D8
:101DA000FFF7BEFCFEE750230193019B502B05D0AB
:101DB000114940F24B10FFF7B3FCFEE7002908BFC2
:101DC0002246019B22600123C4E90F0184F84630BA
:101DD00019462046FFF78AFF9DF8103084F84C30F2
:101DE000204602B010BD00BF1797000039970000D1
:101DF0004F97000087970000BF970000F8B50D4689
:101E00001746064628B90F494FF4BB70FFF788FC08
:101E1000FEE748435030FFF77FFE044670B10023D1
:101E200080F8463065B100F150032360C4E90F65C6
:101E300001212046FFF75AFF84F84C702046F8BD78
:101E40000346F2E7179700002DE9FF478846019205
:101E50001F46044628B94E4940F2F120FFF760FCC6
:101E6000FEE739B9036C2BB14A4940F2F220FFF783
:101E700057FCFEE7022F08D1E36B012B05D0464942
:101E800040F2F320FFF74CFCFEE700F0F9FE0646B7
:101E900038B9019B33B1414940F2F620FFF740FCCD
:101EA000FEE700264FF00009DFF8F4A037E0019DBF
:101EB0001DB9FFF711FD002050E016B902A800F08F
:101EC00093FEFFF709FD00F0A5FCFFF7E3FC94F893
:101ED0004430FF2B08BF84F8449094F84530FF2B22
:101EE00008BF84F84590FFF7F7FC01A902A800F0AD
:101EF00087FE002846D1FFF7CDFCA26BE36B9A4228
:101F00002FD1FFF7E9FC019904F1100000F014FE55
:101F10002046FFF7B3FE00F017FD50B30126FFF790
:101F2000B9FCA26BE36B9A4201D3022FBFD13A46B0
:101F300041462046FFF758FE636A1BB104F12400B6
:101F400000F012FE38B1164B4FF080521A60BFF30A
:101F50004F8FBFF36F8FFFF7BFFC012004B0BDE8C8
:101F6000F087FFF7B9FC2046FFF788FE00F0ECFC95
:101F7000D4E74FF08053CAF80030BFF34F8FBFF360
:101F80006F8FCBE72046FFF779FE00F0DDFC92E78C
:101F9000DA970000E297000032980000799800007C
:101FA00004ED00E013B5002200900B46012011461D
:101FB000FFF7DAFE044638B1002383600360C36094
:101FC0001A461946FFF740FF204602B010BD10B573
:101FD000024600210120FFF711FF044638B100231B
:101FE00083600360C3601A461946FFF72DFF204641
:101FF00010BDFFFF2DE9F843894690461F46044671
:1020000028B9284940F2C330FFF78AFBFEE739B907
:10201000036C2BB124494FF47170FFF781FBFEE78D
:10202000022F08D1E36B012B05D0204940F2C530C7
:10203000FFF776FBFEE7FFF743FDEFF311864FF066
:10204000180383F31188BFF36F8FBFF34F8FA26B19
:10205000E36B9A4201D3022F22D194F845503A46BD
:102060006DB249462046FFF7BFFD6B1C13D1636A72
:102070000BB901200BE004F1240000F075FD0028ED
:10208000F7D0B8F1000FF4D00120C8F8000086F3B3
:102090001188BDE8F88301356DB284F84550E8E752
:1020A0000020F4E7DA970000E29700003298000081
:1020B00070B50D46044628B923494FF48C60FFF7EC
:1020C0002FFBFEE7036C2BB1204940F26440FFF781
:1020D00027FBFEE703683BB983682BB11C4940F23C
:1020E0006940FFF71DFBFEE7FFF7EAFCEFF31186FF
:1020F0004FF0180383F31188BFF36F8FBFF34F8F37
:10210000A26BE36B93421CD994F8453001325BB269
:10211000A2635A1C10D1636A0BB9012009E004F1D3
:10212000240000F021FD0028F7D0002DF5D001207B
:10213000286086F3118870BD01335BB284F84530A6
:10214000EBE70020F5E700BFDA970000CF9800002A
:10215000E89800002DE9F04385B00F46019204464F
:1021600028B947494FF4A060FFF7DAFAFEE739B91A
:10217000036C2BB1434940F20450FFF7D1FAFEE75C
:1021800000F07EFD064638B9019B33B13E4940F26E
:102190000950FFF7C5FAFEE700264FF00008DFF808
:1021A000EC903BE0019D1DB9FFF796FB002052E04B
:1021B00016B902A800F018FDFFF78EFB00F02AFB0D
:1021C000FFF768FB94F84430FF2B08BF84F8448085
:1021D00094F84530FF2B08BF84F84580FFF77CFB5F
:1021E00001A902A800F00CFD00283DD12046FFF710
:1021F000F0FC98B3019904F1240000F09DFC204606
:10220000FFF73CFD00F0A0FB38B94FF08053C9F850
:102210000030BFF34F8FBFF36F8F0126FFF73AFBFC
:10222000A56B002DBED039462046013DFFF711FDBC
:10223000A563236963B104F1100000F095FC38B187
:10224000124B4FF080521A60BFF34F8FBFF36F8F66
:10225000FFF742FB012005B0BDE8F0832046FFF701
:102260000DFD00F071FBD8E72046FFF707FD00F0F9
:102270006BFB2046FFF7ADFC0028CED096E700BFF1
:102280004F9900005B9900007998000004ED00E090
:102290002DE9FF410446019128B9584940F2915077
:1022A000FFF73EFAFEE7056C2DB1554940F2955017
:1022B000FFF736FAFEE700F0E3FC064638B9019B6B
:1022C00053B1504940F29A50FFF72AFAFEE72E46E2
:1022D0000027DFF838814EE00546F9E7019B4BB94E
:1022E0002DB1494940F2E150FFF71AFAFEE7FFF736
:1022F000F3FA5EE016B902A800F076FCFFF7ECFAFC
:1023000000F088FAFFF7C6FA94F84430FF2B08BFB4
:1023100084F8447094F84530FF2B08BF84F845706A
:10232000FFF7DAFA01A902A800F06AFC00284AD1F6
:102330002046FFF74EFC00283FD023683BB9FFF74B
:10234000A9FAA06800F0ACFC0546FFF7C5FA0199B0
:1023500004F1240000F0F0FB2046FFF78FFC00F0B2
:10236000F3FA38B94FF08053C8F80030BFF34F8FFD
:10237000BFF36F8F0126FFF78DFAA36B002BADD053
:10238000013BA363236813B900F082FDA0602369B9
:1023900063B104F1100000F0E7FB38B11B4B4FF0C4
:1023A00080521A60BFF34F8FBFF36F8FFFF794FA1D
:1023B0000125284604B0BDE8F0812046FFF75EFC09
:1023C00000F0C2FAD6E72046FFF758FC00F0BCFA4E
:1023D0002046FFF7FEFB0028CCD0002DE9D0FFF708
:1023E00059FA616A19B1236B1968C1F10A01A06831
:1023F00000F0F6FC0025FFF76FFADAE74F990000CE
:10240000CF98000079980000F999000004ED00E0F1
:102410002DE9F84389469046054628B9214940F2FE
:10242000FB60FFF77DF9FEE739B9036C2BB11E495C
:1024300040F2FC60FFF774F9FEE7FFF741FBEFF3B2
:1024400011874FF0180383F31188BFF36F8FBFF329
:102450004F8FAC6B1CB395F84460494676B2284662
:10246000FFF7F7FB013C731CAC6313D12B690BB96D
:1024700001200BE005F1100000F076FB0028F7D0FA
:10248000B8F1000FF4D00120C8F8000087F31188DC
:10249000BDE8F883013676B285F84460E8E7204667
:1024A000F4E700BFDA970000AE99000008B528B93C
:1024B000064940F2B770FFF733F9FEE790F846306F
:1024C0001BB9BDE80840FFF736BB08BDDA9700002E
:1024D0002DE9F0410446FFF7DDF92D4B2D4D1A682B
:1024E0002D4F01321A602E68002E46D12C601B68D9
:1024F000012B1CD1B84640460136FFF729FB0A2EB6
:1025000008F11408F7D1DFF8B880244E4046FFF7F1
:102510001FFB3046FFF71CFB2148FFF719FB214842
:10252000FFF716FB204BC3F80080204B1E60204AAB
:1025300020491368086801331360E26A23640123A9
:102540009340034314200B6000FB0270211DFFF732
:102550000DFBFFF7C1F9184B1B6863B12B68DA6AF2
:10256000E36A9A4207D2154B4FF080521A60BFF3CC
:102570004F8FBFF36F8FBDE8F0810F4B1B68002BAF
:10258000D5D12B68DA6AE36A9A4298BF2C60CEE70D
:10259000B8090010E0080010EC080010E009001075
:1025A000000A0010180A0010E4080010E8080010E3
:1025B000C4090010C8090010140A001004ED00E05E
:1025C000CC09001008B5074C074D4FF08056236822
:1025D000012B04D92E60BFF34F8FBFF36F8FFFF72E
:1025E00097F8F4E7EC08001004ED00E0064A1368E1
:1025F0001968064B19B94FF0FF321A60704712681C
:10260000D268D2685268F8E7E4080010F8090010B0
:102610002DE9F047DDE909644FEA82094A46074699
:102620000D46206BA521984602F0A4F8236BA9F172
:102630000409994429F007099DB36B1E04F1340283
:102640000B3513F8011F02F8011B09B1AB42F8D199
:10265000002384F83F30089D092D28BF09254FF03D
:10266000000AE562A564201DC4F84CA0FFF77BFAC0
:10267000C5F10A0504F11800FFF775FAC4F854A073
:102680002461A5616462C4F850A084F858A0424651
:1026900039464846FFF7D2F8206006B13460BDE8FD
:1026A000F08784F83450D6E7F8B51B4B1B4E1C68F6
:1026B0000546306804300F46FFF77BFA334640B9D1
:1026C0003168174EC96A32680120884022EA000248
:1026D00032606A1C07D137B1196812480431BDE86D
:1026E000F840FFF743BA1A686419546007D30E4ADA
:1026F00010681968BDE8F8400431FFF743BA0B4A87
:10270000106819680431FFF73DFA094B1A68A242B4
:1027100088BF1C60F8BD00BF2C0A0010E008001044
:10272000C8090010180A0010E8080010E40800109A
:10273000F809001070B586B0DDE90B542DB91549C4
:1027400040F24D20FEF7ECFFFEE72CB9124940F2B3
:102750004E20FEF7E5FFFEE75C260596059E5C2E03
:1027600005D00E4940F25620FEF7DAFFFEE725635A
:10277000022584F8595004AD01950A9D02940095F4
:10278000059EFFF745FF2046FFF7A2FE049806B01E
:1027900070BD00BFE49A0000FB9A0000109B00008F
:1027A00010B588B0002407AA06A905A8CDE90544FC
:1027B000FEF7D6FF059B0293069B079A0F49104828
:1027C000CDE900432346FFF7B5FF0E4B186090B1EB
:1027D0004FF0180383F31188BFF36F8FBFF34F8F50
:1027E000094B4FF0FF321A60084B01221A60084B68
:1027F0001C60FFF7E5F808B010BD00BF8A9A000022
:10280000C5250000F4090010F8090010140A001092
:102810002C0A0010024A136801331360704700BF8E
:10282000C00900102DE9F84F3B4B1B68002B6BD102
:102830003A4B1C6801341C60A4B9394B1A68126801
:102840002AB1384940F67F20FEF76AFFFEE7364A94
:102850001968106818601160344A136801331360F6
:10286000FFF7C4FE324D334F2B68A3424FF0000BED
:1028700011D93A68304BD16A14224A439A58022A35
:1028800028BF4FF0010B2D4A1268002A0CBF584692
:102890000120BDE8F88FDFF888A0DFF8A890DAF80B
:1028A000002012681AB94FF0FF322A60E1E7DAF827
:1028B0000020D268D66871688C4201D22960D8E7BE
:1028C00006F104084046FFF774F9B16A19B106F140
:1028D0001800FFF76EF9F06AD9F80030012202FA09
:1028E00000F11943144BC9F800104FF0140C414685
:1028F0000CFB0030FFF73AF93868F16AC26A91427E
:1029000028BF4FF0010BCAE70D4A1368013313606B
:102910004FF0000BB7E700BFC00900102C0A0010F1
:10292000E4080010299B0000E8080010FC090010D2
:10293000F8090010E0080010EC080010300A001040
:10294000BC090010C80900102DE9F8432F4C23687A
:102950002BB92F4940F68500FEF7E2FEFEE7FEF7B1
:1029600099FF2368013B236024682CB10024FEF703
:10297000B3FF2046BDE8F883264B1B68002BF5D03B
:10298000254D264EDFF8A8801FE0EB68DC6804F1D7
:10299000040904F11800FFF70CF94846FFF709F99C
:1029A000E26A3168012707FA02F314200B4300FBA7
:1029B000028049463360FFF7D9F8194BE26A1B6879
:1029C000DB6A9A4201D3174B1F602B68002BDCD1C6
:1029D0000CB1FFF70BFE144D2C6844B1114E0127CA
:1029E000FFF720FF00B13760013CF9D12C600D4B9F
:1029F0001B68002BBAD00D4B4FF080521A60BFF30A
:102A00004F8FBFF36F8F0124B1E700BFC0090010E3
:102A10008E9B0000B8090010000A0010C8090010C1
:102A2000E0080010300A0010BC09001004ED00E0BE
:102A3000EC08001008B540B90D4B4FF080521A60F9
:102A4000BFF34F8FBFF36F8F08BD0A4B196829B1D1
:102A5000094940F23C50FEF763FEFEE7FFF7DAFE5D
:102A6000FFF722FEFFF770FF0028E5D0ECE700BF7C
:102A700004ED00E0C0090010449A000038B5274B6F
:102A80001A68274B12B101221A6038BD1A60FEF78E
:102A900073FE244A244C1568A84204D921680B6DA2
:102AA0005B1B03440B65236810601B6B1A68B2F153
:102AB000A53F0BD15A68B2F1A53F07D19A68B2F190
:102AC000A53F03D1DB68B3F1A53F04D0206821689E
:102AD0003431FEF707FE154B1B68B3FA83F3DBB204
:102AE000C3F11F03142212495A4388188D582DB977
:102AF000104940F6B730FEF713FEFEE7456808328E
:102B00006D6845600A44954204BF6A6842601422B9
:102B100002FB03135B68DB682360B6E7C0090010A3
:102B2000300A0010B4090010E0080010C8090010B5
:102B3000EC0800108F9A000010B50C4628B908491F
:102B400040F6CE30FEF7ECFDFEE7064B1968183173
:102B5000FFF718F820460121BDE81040FFF7A4BD9B
:102B60005E9A0000E008001038B5C368DC682CB934
:102B7000164940F62940FEF7D3FDFEE704F118059B
:102B80002846FFF716F8124B1B68E3B9251D2846A7
:102B9000FFF70FF80F49E26A0868012393400343E7
:102BA0000B600D4B1420294600FB0230FEF7DEFFC0
:102BB0000A4BE26A1B68DB6A9A4283BF084B01201A
:102BC0001860002038BD29460648EFE77F9B0000CB
:102BD000C0090010C8090010EC080010E00800103F
:102BE000300A0010000A0010034B1B680360034BFF
:102BF0001B684360704700BFFC0900102C0A0010DE
:102C000070B50C46054628B9164940F69440FEF7C3
:102C100087FDFEE729B9144940F69540FEF780FD8F
:102C2000FEE7FEF737FE114B196823685A1C10D0D7
:102C30000F482E6800686A68864201D08A420FD920
:102C4000881A83420AD95B1A134423602846FFF787
:102C5000CBFF0024FEF740FE204670BD002323601A
:102C60000124F7E7809A0000D69A00002C0A001091
:102C7000FC090010014B01221A607047300A001055
:102C8000054B1B6833B1054B1B68002B0CBF0220A2
:102C90000020704701207047140A0010C00900107E
:102CA0002DE9F0410446002835D0234AC36A116853
:102CB000C96A8B42174636D28269204D002AA1BFCD
:102CC0003A68D26AC2F10A0282611426426906FB9E
:102CD00003539A4221D100F104084046FEF769FFF0
:102CE000174B48B9E06A4643AA592AB91A68012124
:102CF000814022EA01021A603A681968D26AE262E7
:102D0000012404FA02F0084318601420414600FB35
:102D10000250FEF72BFF204603E03B68DB6AC362EC
:102D20000120BDE8F0811368806CDC6AA0422CBFF2
:102D300000200120F5E700BFE0080010EC080010BB
:102D4000C8090010F8B5044608B90020F8BD1F4BAB
:102D50001B68834205D01E4940F6D170FEF7E0FCA7
:102D6000FEE7DB6C2BB91B4940F6D270FEF7D8FCAE
:102D7000FEE7C16A826C013B9142C364E5D0002B3F
:102D8000E3D1051D2846FEF714FF134E134A50B930
:102D9000E76A1421794373582BB913680120B840AE
:102DA00023EA00031360A36CE362C3F10A01A1618B
:102DB0001168012404FA03F008431060142000FB9A
:102DC00003602946FEF7D2FE2046BFE7E008001068
:102DD000549B00006A9B0000EC080010C80900101A
:102DE000F8B50446002847D0C26C2AB923494FF4ED
:102DF0008150FEF795FCFEE7836C994238BF194677
:102E0000C36A8B4238D0012A36D11D4A12688242E9
:102E100005D11C4941F23B00FEF782FCFEE78269C6
:102E2000194DC162002A4FF014064269A8BFC1F1D2
:102E30000A0106FB0353A8BF81619A421CD1071DFA
:102E40003846FEF7B6FEE26A104C40B95643AB591D
:102E50002BB923680121914023EA010323602168F3
:102E6000012393400B4314202360394600FB02509A
:102E7000BDE8F840FEF77ABEF8BD00BF6A9B0000CF
:102E8000E00800106A9A0000EC080010C809001061
:102E9000044B1A681AB11968CA6C0132CA641868FE
:102EA000704700BFE008001010B5FEF765FC064B48
:102EB000064A196829B1196814680B6D1B1B034475
:102EC0000B65106010BD00BFE0080010B4090010D1
:102ED00008B5FEF751FC014B186008BDB40900109D
:102EE00007B501220221002000F0F4F8012203219D
:102EF000002000F0EFF804220021012000F0EAF8A1
:102F000001210422084600F0E5F8042211460120C0
:102F100000F0E0F80821012000F032F92B4B4FF4CB
:102F200080729A610921012000F00AF902220A2127
:102F3000002000F0CFF802220B21ADF800000020A5
:102F400000F0C8F8ADF80400009800F0D2F801983D
:102F500000F0CFF80321022000F012F91C4B00B260
:102F60001870C0F3072058701A21012000F008F9EA
:102F7000184B00B21870C0F30720587018210120B8
:102F800000F0FEF8144B00B21870C0F30720587020
:102F90001221012000F0F4F8104B00B21870C0F3B9
:102FA000072058700A21012000F0CAF80F210120E3
:102FB00000F0C6F81E21002000F0C2F81D210020FC
:102FC00003B05DF804EB00F0BBB800BF208009201F
:102FD0003A0A0010380A0010360A0010340A0010AD
:102FE000024B4FF48072DA61704700BF20800920E5
:102FF000024B4FF480729A61704700BF2080092015
:10300000034B586980F40070C0F34020704700BF44
:1030100020800920074B82B01B88ADF804309DF852
:103020000430002063F307009DF8053063F30F20A0
:1030300002B07047340A0010074B82B01B88ADF80D
:1030400004309DF80430002063F307009DF805303C
:1030500063F30F2002B07047360A0010074B82B0AE
:103060001B88ADF804309DF80430002063F307009E
:103070009DF8053063F30F2002B07047380A001046
:10308000074B82B01B88ADF804309DF80430002057
:1030900063F307009DF8053063F30F2002B070471B
:1030A0003A0A001082B0C3B2ADF80400C0F30720A2
:1030B000800000EBC31000F1804000F5303001F0DB
:1030C0000701036823F007030360036819430160E5
:1030D00002B0704737B58DF801108DF80000044636
:1030E0000D4600981146FFF7DDFF44EA052003B0C6
:1030F00030BD82B0C3B2ADF80400C0F30720800039
:1031000000EBC31000F1804000F53030036843F459
:103110008063036002B0704782B0084BADF80400D2
:10312000C0B2012253F820109DF805000B688240C0
:1031300023EA02030B6002B0704700BFA49B0000AB
:1031400037B58DF800008DF80110044600980D4643
:10315000FFF7E2FF44EA052003B030BD82B0074B21
:10316000ADF80400C0B253F820209DF805001168A6
:10317000012383400B43136002B07047A49B0000FF
:1031800037B58DF800008DF80110044600980D4603
:10319000FFF7E4FF44EA052003B030BD82B0084BDE
:1031A000ADF80400C0B29DF8051053F820305A69FC
:1031B00001238B40134214BF0120002002B070474E
:1031C000A49B0000C2B2054BC0F3072053F8222095
:1031D000012382B08340936102B07047A49B00003A
:1031E000C2B2054BC0F3072053F82220012382B05E
:1031F0008340D36102B07047A49B000007B5ADF8CF
:1032000004000198FFF7CAFF28B1019803B05DF8E8
:1032100004EBFFF7E5BF019803B05DF804EBFFF79F
:10322000D1BFFFFF2DE9F0410F4C04EBC003064670
:103230001D7928460F46904600F00EFA54F83640A5
:1032400000233F2263604146A360284622606361F9
:10325000A361E3612362636200F022FA0123E76065
:103260006360BDE8F08100BFBC9B0000074B53F8D2
:10327000303030B501205C6901EB4105A8402043A6
:103280005861183343F8212030BD00BFBC9B0000BB
:10329000034B53F83020012303FA01F1116070470A
:1032A000BC9B0000024B53F830309868704700BF59
:1032B000BC9B0000024B53F830309960704700BF50
:1032C000BC9B00002DE9F041044617461E46884687
:1032D000FFF7D6FC002105466068FEF7D9FF002302
:1032E0002373069B6361079BA361236884F80D80A9
:1032F0002022022DA77326611A600BD140F6B83147
:103300006068FEF7C5FF18B1207BB0FA80F0400975
:10331000BDE8F08100216068FEF7BAFF0028F9D00F
:10332000F2E7FFFF03685A68282A13B557D00AD876
:10333000102A2CD0182A32D0082A09D1417B01F05A
:10334000FE01996028E0402A63D00DD8382A77D052
:103350005A68027320229A6110221A6008229A6128
:103360001A68D206FCD426E0502A5BD0582AEFD146
:103370000269996811700022826120229A611022EC
:103380001A6008229A611A68D106FCD413E0427BC5
:1033900042F001029A6008229A6102B010BD84696D
:1033A000202199610822C4B99961102119609A619C
:1033B0001A68D106FCD4002301A940680193FEF7E6
:1033C00077FE019B002BE8D01F4B4FF080521A6014
:1033D000BFF34F8FBFF36F8FDFE7817BB1E7427B96
:1033E000D20702D520221A60D5E782694AB9202285
:1033F0009A6110221A6008229A611A68D406FCD4D5
:10340000D9E74169013A11F8014B9C604161826141
:10341000C1E720229A618269012A4FF00402E2D8B2
:103420009A61B8E702699968117002690132026114
:103430008269013A012A82614FF00402D3D1EFE799
:103440005B680373B7E700BF04ED00E00148FFF7D6
:1034500069BF00BF440000100148FFF763BF00BF11
:10346000280000100148FFF75DBF00BF0C000010EE
:103470002DE9F043284B06461546884693E8070099
:1034800085B004AB03E9070040F60A33ADF800301D
:103490000C238DF802301C237343204AD45802EBCE
:1034A000030904AB334403220021012013F8107CEC
:1034B000FEF7A4FCC9F804000120FEF788FDC9F856
:1034C0000800384600F0C8F86C23A361144A154B75
:1034D000904588BF98462823B5FBF8F25208C821CA
:1034E0005343B3FBF1F323613C235A430023B2FB64
:1034F000F1F26261A36263622362E36040232360AE
:1035000004AB03EB8606384656F80C1C05B0BDE844
:10351000F04300F0C5B800BFDC9B00000C000010B9
:1035200040420F00A08601002DE9F3410F4690466E
:103530001D4623B90025284602B0BDE8F0810F4C96
:103540001C2303FB00444FF0FF31A068FEF7A0FEF0
:103550000028EFD00026089B019342462B4647F0F7
:10356000010100962046FFF7ADFE33460546324680
:103570003146A068FEF768FCDDE700BF0C000010D4
:103580001FB500238DF80F30012300930DF10F03B9
:10359000FFF7CAFF9DF80F0005B05DF804FBFFFFC1
:1035A000F7B50E4617461D461BB90025284603B041
:1035B000F0BD0E4C1C2303FB00444FF0FF31A0680C
:1035C000FEF766FE0028F0D0089B3A46CDE900538E
:1035D00006F0FE0100232046FFF774FE0023054697
:1035E0001A461946A068FEF72FFCDFE70C00001012
:1035F0001FB5002200920DF10F038DF80F20FFF789
:10360000CFFF05B05DF804FB1FB58DF80F30012327
:1036100000930DF10F03FFF7C3FF05B05DF804FB46
:10362000FEE7FFFF08B5FFF73FFC084B084A1B7891
:10363000103BDBB252F823309847064B00221A6049
:103640001B68BDE80840FFF743BC00BF04ED00E085
:10365000600000103C0A0010242809D8054B064AD7
:10366000185CD2F8C410012383400B43C2F8C43065
:10367000704700BFE89B000000C00F4024289FBF98
:10368000054B064AD3F8C430105C9ABF23FA00F009
:1036900000F001000020704700C00F40E89B0000D0
:1036A000074B43F8201043B2002B08DB012200F047
:1036B0001F0002FA00F05B09024A42F8230070473B
:1036C0006000001000E100E073B54FF0FF33B1F58A
:1036D000805F019336D21D4C2369DE0734D41C4B26
:1036E0001D69ED0730D41B4D0326AE602E611A4DC7
:1036F0001D6002B301AE5E6041F00046DE6041F243
:103700000F061E61DAB1206041F0806140F681123F
:10371000E16065602261114A516A41F00301516222
:10372000D868C0F30B000028FAD1536A23F00303D2
:10373000536202B070BD586041F00846DEE701AA4E
:103740002260E3E70120F4E70220F2E7000108200D
:10375000200108200000082008C00A4000C00A40DC
:1037600010B50446FCF75AFD4FF47A73B0FBF3F042
:103770000223B0FBF3F2A24202D8034A136110BD48
:103780000233DBB2F5E700BF00C00A4010B50446C3
:103790002420FFF761FF0B4B07221A6002225A60B8
:1037A0002046FFF7DDFF1A20FFF756FF064B0122E8
:1037B0001A631A6BD207FCD5044A0023936042F8BF
:1037C000183C10BD00C00A4000000820200108205D
:1037D000034B9860DA68D206FCD49868C0B2704790
:1037E00000C00A400122FFF76FBF0022FFF76CBF45
:1037F00002689368C3F34203022B73B5064623D0D5
:10380000062B21D0012B34D100248DF803400194E4
:10381000102501AA0DF103017068FEF7F9FD48B10A
:1038200033689DF803201A70019B002B18BF0124F8
:10383000013DEED10CB3124B4FF080521A60BFF332
:103840004F8FBFF36F8F18E00024019433681A7D07
:10385000D207EFD51B788DF8033001AA00230DF1B4
:103860000301B068FEF7C6FB019B002B18BF0124C3
:10387000ECE7137DDBB20193019B02B070BD00BF8A
:1038800004ED00E00148FFF7B3BF00BF28010010BE
:103890000148FFF7ADBF00BF1C0100100148FFF752
:1038A000A7BF00BF100100100148FFF7A1BF00BF74
:1038B00004010010134B70B515460646185C0C4603
:1038C0002D01FFF7C9FEB4FBF5F307EE903AF8EED1
:1038D000677AB6EE007A77EE877A0C20FCEEE77A0C
:1038E0007043094A17EE903A12589BB28021117327
:1038F000190ADBB211711370102382F828300723E4
:10390000137370BD209C000004010010074B10B51C
:103910000446185CFFF7B2FE38B10C206043044B3C
:103920001B58187B003018BF012010BD209C0000E0
:1039300004010010044A0C2303FB002040680030FF
:1039400018BF0120704700BF040100102DE9F041AD
:10395000054688461646FFF7D9FF074618B90027DF
:103960003846BDE8F081154C0C2303FB05439A68EB
:1039700022B9B8F1000F01D0C3F808800C2303FB73
:1039800005435A680AB906B15E600C266E43A31956
:103990009A68002AE3D05B68002BE0D0084B53F80C
:1039A0002510084B585DFFF77BFEA35941221A7280
:1039B00006221A7207225A60D2E700BF04010010E3
:1039C000109C0000209C000038B50C234343074A9C
:1039D0000D46D458FFF79AFF30B1237D9A06FCD5E7
:1039E0002570237D9B06FCD538BD00BF0401001067
:1039F00070B5044615460E46FFF742F90F4B0C22F0
:103A000002FB0434A468B4B1022814D16B1C09D0A1
:103A10004FF47A70A5FB00014FF47A72002300F096
:103A20006BFC05462A4631462046FEF793FB0030E4
:103A300018BF012070BD0020FCE700BF040100108A
:103A40002DE9F84306460F46124DFFF719F90C24ED
:103A500004FB065381463046D3F80880FFF756FF33
:103A6000A0B1B9F1020F0AD1B8F1000F07D0394661
:103A700030464FF0FF32BDE8F843FFF7B9BF74435B
:103A80002B591A7DD207FCD51B783B700020BDE86E
:103A9000F88300BF04010010F7B51F4D8DF8071023
:103AA00007461646FFF7ECF80C2303FB07535C6848
:103AB00064B302282DD1711C09D04FF47A70A6FB93
:103AC00000014FF47A72002300F016FC0646002332
:103AD00032460DF107012046FEF7B6F9041C18BF67
:103AE0000124FDF7D7FE0C2078432B182D582A7D92
:103AF000520609D500220DF107015868FEF788FC2F
:103B000010B19DF807302B70FDF7E6FE204603B09C
:103B1000F0BD0024FAE700BF0401001081F000416D
:103B200002E000BF83F0004330B54FEA41044FEAA2
:103B3000430594EA050F08BF90EA020F1FBF54EA3D
:103B4000000C55EA020C7FEA645C7FEA655C00F0D9
:103B5000E2804FEA5454D4EB5555B8BF6D420CDDAA
:103B60002C4480EA020281EA030382EA000083EA2D
:103B7000010180EA020281EA0303362D88BF30BDCD
:103B800011F0004F4FEA01314FF4801C4CEA113123
:103B900002D0404261EB410113F0004F4FEA033382
:103BA0004CEA133302D0524263EB430394EA050F0D
:103BB00000F0A780A4F10104D5F1200E0DDB02FA7C
:103BC0000EFC22FA05F2801841F1000103FA0EF210
:103BD000801843FA05F359410EE0A5F120050EF1D6
:103BE000200E012A03FA0EFC28BF4CF0020C43FA07
:103BF00005F3C01851EBE37101F0004507D54FF014
:103C0000000EDCF1000C7EEB00006EEB0101B1F563
:103C1000801F1BD3B1F5001F0CD349085FEA3000A9
:103C20004FEA3C0C04F101044FEA445212F5800FB4
:103C300080F09A80BCF1004F08BF5FEA500C50F151
:103C4000000041EB045141EA050130BD5FEA4C0C34
:103C5000404141EB010111F4801FA4F10104E9D1BD
:103C600091F0000F04BF01460020B1FA81F308BFB4
:103C70002033A3F10B03B3F120020CDA0C3208DD80
:103C800002F1140CC2F10C0201FA0CF021FA02F15B
:103C90000CE002F11402D8BFC2F1200C01FA02F1CB
:103CA00020FA0CFCDCBF41EA0C019040E41AA2BFF0
:103CB00001EB0451294330BD6FEA04041F3C1CDAB8
:103CC0000C340EDC04F11404C4F1200220FA04F0D8
:103CD00001FA02F340EA030021FA04F345EA030182
:103CE00030BDC4F10C04C4F1200220FA02F001FA44
:103CF00004F340EA0300294630BD21FA04F02946C6
:103D000030BD94F0000F83F4801306BF81F480115E
:103D10000134013D4EE77FEA645C18BF7FEA655CD1
:103D200029D094EA050F08BF90EA020F05D054EAA3
:103D3000000C04BF1946104630BD91EA030F1EBFA8
:103D40000021002030BD5FEA545C05D140004941AC
:103D500028BF41F0004130BD14F580043CBF01F59F
:103D6000801130BD01F0004545F0FE4141F4700185
:103D70004FF0000030BD7FEA645C1ABF1946104660
:103D80007FEA655C1CBF0B46024650EA013406BF61
:103D900052EA033591EA030F41F4002130BD00BF20
:103DA00090F0000F04BF0021704730B54FF48064DD
:103DB00004F132044FF000054FF0000150E700BF5E
:103DC00090F0000F04BF0021704730B54FF48064BD
:103DD00004F1320410F0004548BF40424FF00001AA
:103DE0003EE700BF42004FEAE2014FEA31014FEAED
:103DF00002701FBF12F07F4393F07F4F81F060513C
:103E0000704732F07F4208BF704793F07F4F04BF86
:103E100041F40021704730B54FF4607401F0004563
:103E200021F000411CE700BF50EA010208BF7047C3
:103E300030B54FF000050AE050EA010208BF7047B4
:103E400030B511F0004502D5404261EB41014FF41D
:103E5000806404F132045FEA915C3FF4D8AE4FF025
:103E600003025FEADC0C18BF03325FEADC0C18BF08
:103E7000033202EBDC02C2F1200300FA03FC20FA59
:103E800002F001FA03FE40EA0E0021FA02F11444A6
:103E9000BDE600BF70B54FF0FF0C4CF4E06C1CEABF
:103EA00011541DBF1CEA135594EA0C0F95EA0C0F30
:103EB00000F0DEF82C4481EA030621EA4C5123EAA3
:103EC0004C5350EA013518BF52EA033541F48011D2
:103ED00043F4801338D0A0FB02CE4FF00005E1FB85
:103EE00002E506F00042E0FB03E54FF00006E1FBCF
:103EF00003569CF0000F18BF4EF0010EA4F1FF0412
:103F0000B6F5007F64F5407404D25FEA4E0E6D4151
:103F100046EB060642EAC62141EA55514FEAC52062
:103F200040EA5E504FEACE2EB4F1FD0C88BFBCF5DE
:103F3000E06F1ED8BEF1004F08BF5FEA500E50F18F
:103F4000000041EB045170BD06F0004646EA010155
:103F500040EA020081EA0301B4EB5C04C2BFD4EB87
:103F60000C0541EA045170BD41F480114FF0000E80
:103F7000013C00F3AB8014F1360FDEBF002001F0EE
:103F8000004170BDC4F10004203C35DA0C341BDC68
:103F900004F11404C4F1200500FA05F320FA04F03A
:103FA00001FA05F240EA020001F0004221F000416E
:103FB00010EBD37021FA04F642EB06015EEA430EE1
:103FC00008BF20EAD37070BDC4F10C04C4F1200511
:103FD00000FA04F320FA05F001FA04F240EA0200C4
:103FE00001F0004110EBD37041F100015EEA430E95
:103FF00008BF20EAD37070BDC4F1200500FA05F2B5
:104000004EEA020E20FA04F301FA05F243EA020333
:1040100021FA04F001F0004121FA04F220EA020042
:1040200000EBD3705EEA430E08BF20EAD37070BD88
:1040300094F0000F0FD101F00046400041EB010168
:1040400011F4801F08BF013CF7D041EA060195F04A
:10405000000F18BF704703F00046520043EB030304
:1040600013F4801F08BF013DF7D043EA06037047F1
:1040700094EA0C0F0CEA135518BF95EA0C0F0CD0FC
:1040800050EA410618BF52EA4306D1D181EA030142
:1040900001F000414FF0000070BD50EA410606BF3C
:1040A0001046194652EA430619D094EA0C0F02D181
:1040B00050EA013613D195EA0C0F05D152EA0336C6
:1040C0001CBF104619460AD181EA030101F00041E4
:1040D00041F0FE4141F470014FF0000070BD41F02D
:1040E000FE4141F4780170BD70B54FF0FF0C4CF407
:1040F000E06C1CEA11541DBF1CEA135594EA0C0F26
:1041000095EA0C0F00F0A7F8A4EB050481EA030E72
:1041100052EA03354FEA013100F088804FEA033359
:104120004FF0805545EA131343EA12634FEA022227
:1041300045EA111545EA10654FEA00260EF00041E8
:104140009D4208BF964244F1FD0404F5407402D23A
:104150005B084FEA3202B61A65EB03055B084FEACB
:1041600032024FF480104FF4002CB6EB020E75EBC8
:10417000030E22BFB61A754640EA0C005B084FEAF0
:104180003202B6EB020E75EB030E22BFB61A75466D
:1041900040EA5C005B084FEA3202B6EB020E75EBB8
:1041A000030E22BFB61A754640EA9C005B084FEA30
:1041B0003202B6EB020E75EB030E22BFB61A75463D
:1041C00040EADC0055EA060E18D04FEA051545EA2C
:1041D00016754FEA06164FEAC30343EA52734FEAD5
:1041E000C2025FEA1C1CC0D111F4801F0BD141EA4E
:1041F00000014FF000004FF0004CB6E711F4801FB3
:1042000004BF01430020B4F1FD0C88BFBCF5E06F92
:104210003FF6AFAEB5EB030C04BFB6EB020C5FEAA2
:10422000500C50F1000041EB045170BD0EF0004EF7
:104230004EEA113114EB5C04C2BFD4EB0C0541EA29
:10424000045170BD41F480114FF0000E013C90E626
:1042500045EA060E8DE60CEA135594EA0C0F08BFEA
:1042600095EA0C0F3FF43BAF94EA0C0F0AD150EAE9
:1042700001347FF434AF95EA0C0F7FF425AF10467C
:1042800019462CE795EA0C0F06D152EA03353FF4A4
:10429000FDAE1046194622E750EA410618BF52EA21
:1042A00043067FF4C5AE50EA41047FF40DAF52EAF5
:1042B00043057FF4EBAE12E74A0011D212F500126B
:1042C00011D20DD56FF47873B3EB62520ED44FEA6E
:1042D000C12343F0004343EA505323FA02F07047EE
:1042E0004FF00000704750EA013002D14FF0FF302C
:1042F00070474FF00000704753B94AB9002908BF12
:1043000000281CBF4FF0FF314FF0FF3000F074B9B0
:10431000ADF1080C6DE904CE00F006F8DDF804E01C
:10432000DDE9022304B070472DE9F047089E0446FA
:104330008846002B40F085808A42154648D9B2FA5B
:1043400082F24AB1C2F1200701FA02F320FA07F71C
:10435000954047EA030894404FEA154E230CB8FBFA
:10436000FEF71FFA85FC0EFB178843EA084307FB9C
:104370000CF1994209D9EB1807F1FF3080F0E38086
:10438000994240F2E080023F2B445B1AA4B2B3FB97
:10439000FEF00EFB103344EA034400FB0CFCA44582
:1043A00009D92C1900F1FF3380F0CB80A44540F2ED
:1043B000C88002382C4440EA0740A4EB0C040027D4
:1043C0001EB1D4400023C6E900433946BDE8F0875A
:1043D000002A53D0B2FA82F2002A40F0B680491B7C
:1043E0004FEA154E1FFA85F80127B1FBFEFC230C9E
:1043F0000EFB1C1143EA014308FB0CF1994207D95B
:10440000EB180CF1FF3002D2994200F2EC808446A6
:10441000591AA3B2B1FBFEF00EFB101443EA044498
:1044200008FB00F8A04507D92C1900F1FF3302D290
:10443000A04500F2DC801846A4EB080440EA0C40DA
:10444000BEE78B4208D9002E78D00027C6E90001CC
:1044500038463946BDE8F087B3FA83F77FB98B4217
:1044600002D3824200F2BD80841A61EB0303012073
:104470009846002EA9D0C6E90048A6E7FFDEC7F19E
:104480002005BB4022FA05FC4CEA030C01FA07F4B4
:1044900020FA05F821FA05F34FEA1C4E48EA040415
:1044A000B3FBFEF9210C0EFB19331FFA8CF841EA1D
:1044B000034309FB08FA9A4502FA07F200FA07F1EA
:1044C0000BD91CEB030309F1FF3080F088809A457B
:1044D00040F28580A9F102096344A3EB0A03A4B268
:1044E000B3FBFEF00EFB103344EA034400FB08F874
:1044F000A04508D91CEB040400F1FF336BD2A045A2
:1045000069D90238644440EA0940A4EB0804A0FBDE
:1045100002894C45C6464B4654D351D0002E69D033
:10452000B1EB0E0264EB030404FA05F522FA07F37B
:10453000FC401D43C6E90054002746E73746304695
:1045400043E7184637E707461FE7C2F1200320FA82
:1045500003F7954001FA02F021FA03F34FEA154EF2
:104560003843010CB3FBFEF71FFA85F80EFB173337
:1045700041EA034107FB08F38B4204FA02F407D92E
:10458000691807F1FF3C28D28B4226D9023F294403
:10459000CB1A81B2B3FBFEF00EFB103341EA0341AC
:1045A00000FB08F38B4207D9691800F1FF3C10D2D9
:1045B0008B420ED902382944C91A40EA074714E74A
:1045C0004145ABD2B8EB020E69EB0C020138134641
:1045D000A4E76046F0E7184695E76746D8E78146C6
:1045E0007BE7384645E7ACF1020C2B4410E7023874
:1045F0002C4421E73746E8E6704700BF0EB403B508
:10460000014603AB054853F8042B0068019300F002
:104610008BF902B05DF804EB03B070473401001071
:1046200070B50E461446054618B183690BB903F000
:104630007BF82B4B9C421ED16C68636EDA0705D465
:10464000A3899B0502D4A06D00F059F8A38918072F
:104650001BD52369CBB1013E16F8011F39BB656E2E
:1046600015F0010539D1A389990502D4A06D00F098
:1046700047F8284670BD1B4B9C4201D1AC68DCE773
:10468000194B9C4208BFEC68D7E72146284602F048
:104690007DF80028DFD0636EDA0705D4A3899B0577
:1046A00002D4A06D00F02CF84FF0FF35E1E7A368CD
:1046B000013B002BA36004DAA269934206DB0A29BE
:1046C00004D023685A1C22601970C5E72246284688
:1046D00002F00AF80130BFD1DDE70D46C9E700BF9F
:1046E000F89D0000189E0000D89D0000024B0A466D
:1046F00001461868FFF794BF3401001070477047F7
:104700007047FFFF024B0146186800F089B800BFF0
:1047100034010010024B0146186800F033B800BFA6
:10472000340100100A44914200F1FF3300D1704778
:1047300010B511F8014B03F8014F9142F9D110BDAA
:10474000884210B501EB020302D983421C4607D808
:10475000421E994208D011F8014B02F8014FF8E7C8
:1047600083189A1A9A4200D110BD14F8011D03F85B
:10477000011DF7E702440346934200D1704703F856
:10478000011BF9E738B50546002945D051F8043C2E
:104790000C1F002BB8BFE41803F05AFC1F4A136823
:1047A000104633B9636014602846BDE8384003F012
:1047B00055BCA3420CD921686218934204BF1A6801
:1047C0005B68636004BF521822600460ECE7134624
:1047D0005A680AB1A242FAD919685818A0420BD1F6
:1047E00020680144581882421960DDD1106852686F
:1047F0005A6001441960D7E702D90C232B60D3E734
:10480000206821188A4204BF11685268626004BFA0
:10481000091821605C60C7E738BD00BF400A00107E
:10482000F8B5CD1C25F0030508350C2D38BF0C2537
:10483000002D064601DBA94203D90C23336000207A
:10484000F8BD03F005FC21490A6814469CB9204FC5
:104850003B6823B92146304600F0CAFF386029463C
:10486000304600F0C5FF431C23D10C233360304693
:1048700003F0F4FBE3E723685B1B17D40B2B03D98E
:1048800023601C44256004E06368A2420CBF0B60F7
:104890005360304603F0E2FB04F10B00231D20F0CF
:1048A0000700C21ACCD01B1AA350C9E7224664687D
:1048B000CCE7C41C24F00304A042E3D0211A304604
:1048C00000F096FF0130DDD1CFE700BF400A0010B5
:1048D000440A00109368013B002B10B4936008DA7F
:1048E0009469A34201DB0A2903D15DF8044B01F06E
:1048F000FBBE1368581C1060197008465DF8044B25
:104900007047F8B506460F461446D518AC4201D19B
:10491000002007E03A4614F8011B3046FFF7DAFFA3
:10492000431CF3D1F8BDFFFF2DE9F04F0D469DB0BC
:1049300014461E46074618B183690BB902F0F4FE0F
:10494000854B9D421BD17D686B6ED90705D4AB8921
:104950009A0502D4A86DFFF7D2FEAB891B0701D5DB
:104960002B69EBB92946384601F010FFC0B16B6ED8
:10497000D8070ED54FF0FF301DB0BDE8F08F774B54
:104980009D4201D1BD68DFE7754B9D4208BFFD68C0
:10499000DAE7AB899905EDD4A86DFFF7B1FEE9E739
:1049A0000023099320238DF82930DFF8B89103966E
:1049B00030238DF82A304FF0010A23461E4613F8A3
:1049C000012B0AB1252AF9D1B6EB040B0BD05B46BB
:1049D000224629463846FFF794FF013000F0A380B5
:1049E000099B5B4409933378002B00F09C800023E3
:1049F0004FF0FF32CDE905230136049307938DF87C
:104A000053301A933446052214F8011B554803F01D
:104A1000CFFA049BC0B9DA0644BF20228DF8532098
:104A2000180744BF2B228DF8532032782A2A13D03E
:104A3000079A344600200A26214611F8013B303BF4
:104A4000092B4BD970B914E0A0EB09000AFA00F069
:104A5000184304902646D5E7039A111D1268039166
:104A6000002A01DB079204E0524243F0020307925E
:104A7000049323782E2B0CD163782A2B33D1039BFC
:104A80001A1D1B680392002BB8BF4FF0FF3302348E
:104A90000593354E21780322304603F089FA38B168
:104AA0004023801B03FA00F0049B0343013404936A
:104AB00014F8011B2D488DF82810062203F078FA0F
:104AC00000283FD02A4B13BB039B073323F0070377
:104AD00008330393099B434409936EE706FB0232B4
:104AE00001200C46A8E700230134059319460A2645
:104AF000204610F8012B303A092A03D9002BC8D0E0
:104B00000591C6E706FB012101230446F0E703AB4C
:104B100000932A46174B04A9384600F0BDF8B0F1BF
:104B2000FF3F8046D6D16B6ED90705D4AB899A0575
:104B300002D4A86DFFF7E4FDAB895B063FF51AAF21
:104B4000099819E703AB00932A460A4B04A9384693
:104B500000F042FBE3E700BFF89D0000189E000054
:104B6000D89D00002C9D0000329D0000369D000065
:104B7000994C0000034900002DE9FF4755EC104B0C
:104B8000002D0E4691461946DDF830A04FF0000288
:104B900003DA05F100431D462D220D9F0A7027F010
:104BA0002007462F04D0452F00D10136022100E016
:104BB000032103AB019302AB00933246534645EC0D
:104BC000104B01F0DDFE472F804602D119F0010F96
:104BD00022D0462F08EB060911D198F80030302B6F
:104BE0000AD1002200232046294604F0DBF818B938
:104BF000C6F10106CAF80060DAF8003099440022D4
:104C000000232046294604F0CDF808B1CDF80C90D9
:104C10003022039B4B4508D3039B0E9AA3EB08035A
:104C20004046136004B0BDE8F087591C03911A7028
:104C3000EFE7F7B50029BABF49422D232B230929F5
:104C40000270437021DD0DF107031F460A2691FB18
:104C5000F6F206FB12143034632903F1FF3503F832
:104C6000014C0ADC303205F8012C023B821CBB42AD
:104C7000144605D3201A03B0F0BD2B461146E6E7D3
:104C800013F8011B02F8011BF1E73023194483706C
:104C9000041DC170EEE7FFFF2DE9F04F8DB00C460B
:104CA000DDF8588016461F46054603F003F90368F1
:104CB0000693184600F094FE00230A93D8F80030BB
:104CC0000790073323F0070303F1080294F818A0B4
:104CD000D4F800B0C8F80020D3E90023C4E91223B7
:104CE00094ED127B8DED047BDDE9048323F0004914
:104CF0004FF0FF32A64B4046494604F085F870BBA2
:104D00004FF0FF32A24B4046494604F05FF830BBFB
:104D100000220023DDE9040104F04EF810B12D2338
:104D200084F843309B4A9C4BBAF1470F94BF90469E
:104D3000984603232BF00402236122604FF0000900
:104D4000009733460BAA2146284600F0CFF90130E0
:104D500040F08C804FF0FF300DB0BDE8F08FDDE902
:104D600004231046194604F04FF840B1059B8B4AC6
:104D7000002BBCBF2D2384F84330894BD4E76368F4
:104D80005A1C0AF0DF093ED1062363600023039317
:104D90000AAB4BF48062CDE901A309AB00936168D3
:104DA00022600DF123039DED040B2846FFF7E4FE7E
:104DB000B9F1470F8046099908D1C81C02DB636826
:104DC000994241DDAAF1020A5FFA8AFABAF1650F47
:104DD00020D80139524604F150000991FFF729FF0C
:104DE0000A9A1318012A8146236102DC2268D2073D
:104DF00001D5013323619DF82330002BA0D02D2352
:104E000084F843309CE7B9F1470FBFD1002BBDD1E7
:104E10000123BAE7BAF1660F18D1002963680BDDE8
:104E2000216113B92268D00702D501330B442361F5
:104E3000A1654FF00009DEE713B92268D20701D55A
:104E40000233F4E70123F2E74FF0670A0A9B994225
:104E500005DB23682161D807EAD54B1CE7E7002969
:104E6000D4BFC1F1020201221344E0E723685A05CE
:104E700007D42369424631462846B84701302BD132
:104E800068E7BAF1650F40F2DC8000220023D4E924
:104E9000120103F087FF002833D00123414A314635
:104EA0002846B84701303FF455AFDDE909239A425F
:104EB00002DB2368D8070FD5DDE9062331462846F3
:104EC000B84701303FF446AF4FF0000804F11A092B
:104ED0000A9B013B434509DC23689B0700F10181E4
:104EE000E0680B9B9842B8BF184635E701234A4655
:104EF00031462846B84701303FF42CAF08F101088D
:104F0000E6E7099B002B2BDC0123264A3146284685
:104F1000B84701303FF41EAFDDE90923134302D146
:104F20002368D907D8D5DDE9062331462846B84796
:104F300001303FF40FAF4FF0000904F11A0A099B4A
:104F40005B424B4501DC0A9B94E701235246314604
:104F50002846B84701303FF4FDAE09F10109EEE7FC
:104F60000A9AA36D9A42A8BF1A46002A914607DD05
:104F70001346314642462846B84701303FF4EAAE70
:104F800004F11A034FF0000B29EAE979049315E0C4
:104F9000FFFFEF7F3D9D0000419D0000459D00000B
:104FA000499D0000379700000123049A31462846A6
:104FB000B84701303FF4CEAE0BF1010BD4F858A046
:104FC000AAEB09035B45EFDCDDE909239A421BDB11
:104FD0002368DA0718D4DDE9092392451CDBA3EB2B
:104FE0000A09B9F1000F08DD4B4608EB0A02314609
:104FF0002846B84701303FF4ADAE4FF0000829EA2B
:10500000E97904F11A0A14E0DDE90623314628465D
:10501000B8470130DFD19DE6A3EB0209E1E70123A8
:10502000524631462846B84701303FF493AE08F166
:105030000108DDE909239B1AA3EB09034345EEDCD4
:105040004AE70A9A012A01DCDB0737D501234246E9
:1050500031462846B84701303FF47CAEDDE90623EF
:1050600031462846B84701303FF474AE0022002391
:10507000D4E9120103F096FED8B90A9B08F10102A7
:10508000013B31462846B84701300ED162E6012384
:10509000524631462846B84701303FF45BAE08F12E
:1050A00001080A9B013B4345F1DC4B4604F15002E9
:1050B000E1E64FF0000804F11A0AF2E70123424644
:1050C000DFE701234A4631462846B84701303FF41E
:1050D00041AE08F10108E3680B9A9B1A4345F0DCE6
:1050E000FEE64FF0000804F11909F4E72DE9F04756
:1050F00091461F468A680B69DDF820809342B8BF4D
:105100001346C9F8003091F8432006460C4612B108
:105110000133C9F800302368990642BFD9F800303E
:105120000233C9F80030256815F0060507D104F1EF
:10513000190AE368D9F800209B1AAB4228DC94F8DE
:1051400043302268003318BF012392062DD404F1A6
:10515000430239463046C047013020D02368E56815
:10516000D9F8002003F00603042B08BFAD1AA3688A
:1051700022690CBF25EAE57500259342C4BF9B1A3E
:10518000ED184FF000091A344D451AD1002008E0FF
:105190000123524639463046C047013003D14FF013
:1051A000FF30BDE8F0870135C3E7E1185A1C302015
:1051B00081F84300224494F8451082F843100233EA
:1051C000C5E70123224639463046C0470130E6D0C4
:1051D00009F10109D8E7FFFF2DE9F04306460C4627
:1051E00001F14300097E85B06E29984617460C9B55
:1051F00000F0BA8024D8632939D00AD8002900F0F9
:10520000C380582900F0918004F1420584F84210CF
:1052100035E0642901D06929F6D125681A6815F0AE
:10522000800F02F104012CD012681960002A03DA01
:105230002D23524284F84330DFF8BCC10A233FE0FB
:10524000732900F0A58008D86F2921D07029DBD1FF
:10525000226842F02002226003E0752918D07829E4
:10526000D2D1782284F84520DFF890C161E01A6835
:10527000111D1960136884F8423004F142050123BE
:1052800093E01268196015F0400F18BF12B2CDE715
:10529000D4F800C01A681CF0800F02F104051D60EC
:1052A00001D0126803E01CF0400FFAD01288DFF83A
:1052B00048C16F290CBF08230A23002184F843103A
:1052C0006568A560002DA2BF216821F0040121605E
:1052D0000AB9002D46D00546B2FBF3F103FB112EAF
:1052E00093421CF80EE005F801ED39D9082B0BD1DB
:1052F0002368DA0708D5236962689A42DEBF302343
:1053000005F8013C05F1FF35401B2061CDF8008018
:105310003B4603AA21463046FFF7E8FE013049D15B
:105320004FF0FF3005B0BDE8F083DFF8CCC084F863
:1053300045101D68216855F8042B1D600D060BD51E
:10534000CD0744BF41F0200121601AB9236823F042
:10535000200323601023B0E74B0648BF92B2EFE76B
:105360000A46B9E70546C1E71A68D4F800C0616982
:10537000151D1D601CF0800F136801D0196003E03B
:105380001CF0400FFAD01980002323610546BDE7C9
:105390001A68111D1960156862680021284602F01C
:1053A00007FE08B1401B606063682361002384F836
:1053B0004330ABE723692A4639463046C0470130BF
:1053C000AED023689B0713D4E068039B9842B8BF14
:1053D0001846A7E701234A4639463046C047013000
:1053E0009ED00135E368039A9B1AAB42F2DCEBE7EF
:1053F000002504F11909F5E74D9D00005E9D0000B0
:105400002DE9F04F87B0174603938B685A1EB2F50B
:10541000AE7F83BF6FF4AE755B190293002386BF26
:1054200040F25D138B6002930B688B46002543F4BA
:10543000F0634BF81C3BCDE9045581460C465E46B3
:10544000AA46A8460195A26882B13B681B78492B01
:1054500075D04FD8392B41D8312B80F087802D2B38
:1054600000F08F8017D82B2B00F08B80B8F1000F45
:1054700003D0236823F4807323600AF1FF3ABAF162
:10548000010F00F2DD805E4500F2CF800125284645
:1054900007B0BDE8F08F2E2B00F09380302BE5D1C4
:1054A0002168C80562D5029B21F08001216008F1C6
:1054B00001081BB1013B01320293A260A368013BCA
:1054C000A3602369013323617B68013B002B7B6070
:1054D00040F3A2803B6801333B60B4E7452B7AD0B0
:1054E000462B64D0412BC1D1BAF1010FBED14FF090
:1054F000020A43E0652B6ED01AD8542B5CD013D827
:105500004E2BB3D1BAF1000F42D1B8F1000F42D106
:10551000226802F4E061B1F5E06F3CD122F4F06260
:1055200022604FF0010A29E0592B1BD0612BDAE7EA
:105530006E2BE7D012D8662B39D0692B96D195BB4C
:10554000B8F1000F95D1226802F4E061B1F5E06F87
:1055500093D122F4F062226001250FE0742B2BD04E
:10556000792B83D1072D81D1082507E01AEB050F90
:105570007FF47CAF226822F4C072226006F8013BFF
:105580009CE7226810067FF571AF22F08002F4E7F5
:10559000BAF1020F3DD0012D02D0042D7FF466AF89
:1055A0000135EDB2EAE7032DFAD0052DF6E7022D1D
:1055B0007FF45CAF0325E1E7062D7FF457AF0725A5
:1055C000DCE7226891057FF551AF22F4207222605A
:1055D000CDF80480D2E7226802F4A061B1F5806FB3
:1055E00006D050057FF542AFB8F1000F3FF445AF4C
:1055F000910558BF019922F4F06258BFA8EB010150
:1056000042F4C07258BFCDE9041622604FF0000882
:10561000B4E74FF0030AB1E7D4F880313946484681
:10562000984700283FF40FAF20E7D4F87C3116F8F4
:10563000011D3A46484698472369013B236122E70A
:105640006B1E062B25D8022D36D85E457FF61EAF81
:10565000D4F87C3116F8011D3A464846984723692C
:10566000013B2361F1E70298D4F87C3110F8011D69
:1056700002903A46484698472369013B23610AF164
:10568000FF3A5FFA8AFABAF1020FECD1033DEDB2AC
:10569000761B2368DA052FD55B0510D55E457FF6AE
:1056A000F5AED4F87C3116F8011D3A4648469847C5
:1056B0002369013B2361F1E7AA460296DFE716F86A
:1056C000011C2369652903F1FF3306F1FF352361CE
:1056D0000CD045290AD0D4F87C313A464846984740
:1056E000236916F8021C013BB51E2361D4F87C31F6
:1056F0003A46484698472E46256815F0100558D179
:105700003570236803F4C063B3F5806F1CD1019B2F
:105710004345A3EB080224D100225946484600F035
:1057200063FF039B21681B6811F0020F57EC106B9D
:1057300003F1040220D003990A601B68C3E90067E3
:10574000E3680133E360A2E6049B002BE4D00599F3
:105750000A232A460131484600F0C4FF049B059EF7
:10576000C21A04F26F139E4228BF04F5B77612499D
:10577000304600F015F9CFE711F0040F03990A60E5
:10578000DBD1D3F8008010EE102A3B4610EE100A51
:10579000394603F039FB28B1084800F0FBF888EDE2
:1057A000000ACDE73046394603F06CFBC8F800002C
:1057B000C6E700256BE600BF6F9D0000BD900000AE
:1057C0000FB40A4B13B51C6824B1A36913B9204662
:1057D00001F0AAFF05AB049AA16801932046FFF7E8
:1057E000A3F802B0BDE8104004B0704734010010C7
:1057F00038B5064C0023054608462360FAF7A2FD9B
:10580000431C02D1236803B12B6038BD680A001025
:105810002DE9F7431E465B4B1D6804460F46904634
:1058200025B1AB6913B9284601F07EFF564B9C4267
:1058300066D16C68B8F1020F06D0B8F1010F00F222
:105840009D80002EC0F29A80636EDA0705D4A3898A
:105850009B0502D4A06DFEF752FF2146284601F0B9
:10586000CFFE616B41B104F14403994202D0284656
:10587000FEF788FF002363630023A3616360A389AD
:10588000180603D521692846FEF77CFFA38923F477
:105890004A6323F00303B8F1020FA3816AD001AB7E
:1058A0006A462146284602F009FBA3891843A081D5
:1058B000002E2FD1009E3046FEF724FF0746002819
:1058C00053D1DDF80090B14548D14FF0FF350022AB
:1058D000A26004F14702226022610122B4F90C3077
:1058E0006261626E43F00203D107A38104D49B0579
:1058F00002D4A06DFEF704FF284603B0BDE8F08394
:10590000224B9C4201D1AC6894E7214B9C4208BFDA
:10591000EC688FE7002FCED0AB6913B9284601F0B1
:1059200003FFB8F1010F08BFA389276004BF43F04C
:105930000103A381A38913F00802C4E904761BD0F4
:10594000DA0741BF00227642A260A66158BFA66076
:10595000656E15F00105CAD00025CDE74846FEF773
:10596000D1FE07460028B0D04E46A38943F08003FD
:10597000A381D1E70025AAE7A260E9E74FF0FF3550
:10598000BAE700BF34010010F89D0000189E000027
:10599000D89D00009FED010A704700BF0000C07F46
:1059A0000EB400B59CB01DAB029006906FF00041A4
:1059B000094807910491094953F8042B059100689F
:1059C000019302A902F0D8FF029B00221A701CB0BA
:1059D0005DF804EB03B07047340100100802FFFFCC
:1059E000034613F8012B002AFBD1181A013870471F
:1059F00010B56AB10139841810F8013B11F8012F74
:105A0000934203D1A04201D0002BF5D1981A10BDCA
:105A10001046FCE770B504460D4645EC104B1646A3
:105A200002F0E8FD51EC100B7EB1C5F30A53C3F14F
:105A30006B03002B09DD1B0503F17F55002405F5E1
:105A4000401522462B46FEF725FA70BDFFFFFFFFEB
:105A50002DE9F04FA1B01F4600231C939B4B0490EF
:105A60001B68179218460E460593FFF7B9FF4FF0D3
:105A7000000A04464FF0000B1B961B9A13780D2B5F
:105A800032D8092B36D2002B3ED000230C931B9D1D
:105A90002B78302B40F0A9806B78582B01D0782BD5
:105AA00067D10C9B01931CAB009302971DAB884AF6
:105AB00004981BA901F024FF10F00704064605D046
:105AC000062C2BD1013500231B950C93179B002B23
:105AD00040F076850C9BE3B152460BF1004343EC5A
