:1000000000000110E500000075010000590100002A
:100010007501000075010000750100007501000008
:10002000750100007501000075010000B533000086
:100030007501000075010000C7330000D9330000CE
:10004000A1520000A1520000A1520000A1520000E4
:10005000A1520000A1520000A1520000A1520000D4
:10006000A1520000A1520000A1520000A1520000C4
:10007000A1520000A1520000A1520000A1520000B4
:10008000A1520000A1520000A1520000A1520000A4
:10009000A1520000A1520000A1520000A152000094
:1000A000A1520000A1520000A1520000A152000084
:1000B000A1520000A1520000A1520000A152000074
:1000C000A1520000A1520000A1520000A152000064
:1000D000A1520000A1520000A1520000A152000054
:1000E000A152000008B500F057F900F073F900F0D4
:1000F0007BF900F09BF800F095F802F00DFB02F0A0
:1001000045FA00F0BFF840B141F28734002502F013
:100110002FFB8D4208BF8442F9D200F082F918B952
:100120000849094807F09EF90649084807F09AF976
:1001300002F000FF064B07481B68D96806F028F953
:10014000FEE700BFB0AD0000BCAD0000E9AD0000AF
:100150004401001001AE00001EF0040F0CBFEFF3CD
:100160000880EFF309808169004A1047D10100003F
:100170007047FFFF38B50F4C0F4B10481D782368B0
:10018000D96806F005F923680D49D8682A4606F0B3
:1001900087F80F2D236807D80A4A0B4952F8252003
:1001A000D86806F07DF8FEE7D968084806F0F0F850
:1001B000F9E700BF4401001004ED00E03CAE000090
:1001C00056AE000048AF000090AE0000AEAE00009A
:1001D00010B5044600F04AF8236883606368C36082
:1001E000A3680361E3684361236943626369013B78
:1001F000C361A3698361E3690362BFF34F8F05495C
:10020000054BCA6802F4E0621343CB60BFF34F8F23
:1002100000BFFDE700ED00E00400FA05004870476C
:1002200000D8B8050048704700D8B8050E4B072223
:10023000C3F88420AA210122C3F88020C3F88C10BF
:100240005521C3F88C10C3F8A821D3F88820520593
:10025000FBD51A6822F4704242F480421A6040F2E0
:100260000112C3F80421704700C00F400248034A3E
:10027000034BC0E90023704700000020EFBEADDE55
:100280001041522138B5224C224B22689A423DD16E
:100290006268214B9A4239D1204D21482B68D96898
:1002A00006F076F82B68A2691E49D86805F0F8FFB9
:1002B0002B68E2691C49D86805F0F2FF2B68226AB6
:1002C0001A49D86805F0ECFF2B68A2681849D8686D
:1002D00005F0E6FF2B68E2681649D86805F0E0FFF4
:1002E0002B6822691449D86805F0DAFF2B68626927
:1002F0001249D86805F0D4FF2B681148D96806F078
:1003000047F801200023C4E9003338BD0020F9E795
:1003100000000020EFBEADDE10415221440100106C
:1003200088AF0000DBAF0000EAAF0000F9AF0000CB
:1003300008B0000017B0000026B0000035B0000083
:1003400044B000000E4A136810B50E4C1918A142B3
:10035000116002D30C4CA1420BD313600B4A0C4921
:1003600013681844884208D30A49884205D21060AD
:1003700001E0002BF2D0184610BD0023FBE700BFC0
:100380000000001028000020008000200400001061
:100390009C18001000000110094A0A4B0A498B42C0
:1003A00005D30A4B0A4A0021934205D3704712F83D
:1003B000010B03F8010BF2E703F8011BF4E700BFA0
:1003C000FCC4000000000010180300101803001007
:1003D0009C180010034AD2F8883043F47003C2F826
:1003E0008830704700ED00E0044800232021C21847
:1003F0000133292B82F80013F9D1704700E100E0A6
:1004000008B52A2219233821022004F03BFF0D22CF
:100410003821022004F0F2FEA0F12A03584258418C
:1004200008BDFFF7EDBF42884378007843EA022316
:1004300040EA032070470B0A017043700B0C090E51
:100440008370C170704710B5024410F8013B11F879
:10045000014B9042A3EB040301D0002BF5D01846CA
:1004600010BDC3690239023B8B4283BF4389006BD5
:1004700001FB030000207047024600F10B01002041
:10048000C30143EA500312F8010B50FA83F38A4286
:10049000D8B2F5D1704702684AB1134613F8011B70
:1004A0001F290BD93A29F9D1911C8B4202D04FF068
:1004B000FF3070471278302AF9D10360002070476E
:1004C00001380A4411F8013B00F8013F9142F9D18B
:1004D0007047CA7E8B7E032843EA022301BF487D12
:1004E0000A7D42EA002243EA024318467047C2F3FB
:1004F00007238A76CB760378032B01BF120C0A758B
:10050000120A4A75704770B500F13806426B04460E
:1005100001233146407801F074FC054688B9616BCF
:10052000A36A226AE070CB1A934208D2A378022B06
:1005300005D10A4401233146607801F062FC284667
:1005400070BD0125FBE738B5436B8B4204460D4671
:1005500019D0C3788BB901232A4604F13801607899
:1005600001F03BFC002818BF4FF0FF3503466563E0
:100570000CBF03460123184638BDFFF7C4FF0346EE
:100580000028F8D1E7E70023F5E7FFFF38B500239F
:10059000C3704FF0FF3343630546FFF7D4FF0446B3
:1005A00018BB95F8372295F8363243EA02234AF60B
:1005B000552293421BD195F83830EB2B03D01833DA
:1005C000DBB2012B15D803220B4905F16E00FFF7B2
:1005D0003AFF40B10522094905F18A00FFF733FFD0
:1005E000002818BF0224204638BD0424FBE703245A
:1005F000F9E70224F7E700BFA5B10000A9B10000A8
:100600002DE9F043002385B00B600F461546FFF738
:1006100042FF061EC0F23981A44B53F82640002C3D
:1006200000F03581206901F03CFB002800F03181A9
:100630003C60237805F0FE056BB1607801F0C8FBE3
:10064000C10708D41DB110F0040500D00A252846C2
:1006500005B0BDE8F0830023F0B22370607001F0B4
:10066000A9FBC20700F117810DB14307EED40021A9
:100670002046FFF78BFF022840F0EE806F4604F51E
:10068000FF7104F23E263D4611F8040C10B10846F5
:10069000FFF7C9FE10318E4245F8040BF4D1002556
:1006A00057F8046B002E00F0CE8031462046FFF74D
:1006B0006DFF012800F2C88094F8442094F843307C
:1006C00043EA0223B3F5007F40F0CA8094F84F302C
:1006D00094F84E5055EA032504D104F15C00FFF76D
:1006E000A2FE054694F8481025624B1E012BA1700E
:1006F00000F2B68094F845901FFA89F36381002BCD
:1007000000F0AE8009F1FF3313EA090F40F0A88032
:1007100094F84A3094F8497047EA03273FB21FFA29
:1007200087F818F00F0FA4F8088040F0998094F82B
:100730004C3094F84B0050EA032003D104F15800E8
:10074000FFF771FE94F8472094F8463053EA0223ED
:1007500000F0868005FB01FC03EB18126244904216
:100760007ED3801A4845B0FBF9F179D350488142D5
:1007700076D84FF6F570814240F28F804FF0030932
:10078000023133443244B9F1030FE1616662A3627E
:10079000226369D194F8632094F8623043EA02231B
:1007A0001F433FB2002F5BD104F16400FFF73BFE13
:1007B000E062890001F2FF11B5EB512F50D34FF0E9
:1007C000FF33C4E90533B9F1030F4FF08003237100
:1007D0002FD194F8692094F8683043EA0223012B62
:1007E00027D1711C2046FFF7AEFE10BB94F83722CC
:1007F00094F83632207143EA02234AF65522934296
:1008000017D104F13800FFF70EFE2A4B984210D1A1
:1008100004F50770FFF707FE274B984209D104F54E
:100820000870FFF700FEA06104F50970FFF7FBFDFB
:100830006061224A84F80090138801339BB21380D0
:10084000E380002503E703200135042D7FF428AF62
:10085000042805D10125FAE60428FBD0012801D996
:100860000D25F4E6002627E7B8F1000FF8D0634421
:10087000B9F1020FE3624FEA41031BBF5B1801F0BD
:100880000101194601EB530194E70B25DFE60C2526
:10089000DDE60F25DBE60325D9E640F6F579494587
:1008A0008CBF4FF002094FF0010969E718030010EF
:1008B000F5FFFF0F52526141727241611C0300103B
:1008C00001292DE9F04705460C46174672D9C36940
:1008D0008B426FD90378022B3FD0032B50D0012BD2
:1008E00068D101EB5108816A01EB5821FFF72BFE1B
:1008F000064638BB05F1380908F1010AC8F30808B3
:1009000014F001041FBF19F8083003F00F023B0177
:1009100003F0F00314BF1343FBB209F80830A96ACF
:100920000123EB7001EB5A212846FFF70CFE064627
:1009300040B9CAF3080A44B1C7F3071709F80A70A7
:100940000123EB703046BDE8F08719F80A30C7F391
:10095000032723F00F031F43F0E7816A01EB142103
:10096000FFF7F1FD06460028ECD1640005F13803DD
:1009700004F4FF741A191F55C7F307275770DFE7F0
:10098000816A01EBD411FFF7DEFD06460028D9D1BC
:10099000A40005F1380304F4FE741C442046FFF75C
:1009A00042FD27F0704700F0704139432046FFF7C1
:1009B00042FDC5E70226C5E70129F8B505460C4604
:1009C00052D9C36999424FD20378022B29D0032B05
:1009D00038D0012B48D101EB5106816A01EB562139
:1009E000FFF7B1FD10B14FF0FF30F8BD771CA96AD9
:1009F000C6F308062E4401EB5721284696F83860C6
:100A0000FFF7A1FD0028EED1C7F308073D44E30737
:100A100095F8380046EA00204CBF0009C0F30B00EF
:100A2000E3E7816A01EB1421FFF78DFD0028DAD19D
:100A30006400383504F4FF742B19285D5B7840EAB4
:100A40000320D2E7816A01EBD411FFF77CFD002877
:100A5000C9D1A40005F1380004F4FE742044FFF766
:100A6000E2FC20F07040C0E70120BEE7B1F5001FB6
:100A7000F8B506460D4601D30220F8BDCA06FBD1E3
:100A8000826804683161CAB92378022B01D9E36A0C
:100A90009BB92389B3EB551FEED9E36AB361B36900
:100AA0007261002BE8D003EB55233834C5F30805F9
:100AB0002C44B361F4610020DFE71A4667897F02A6
:100AC000BD42114604D22046FFF7CBFCB061E6E7F9
:100AD0003068FFF771FF431C024606D00128CBD9CE
:100AE000E3698342C8D9ED1BEAE70120C5E72DE998
:100AF000F041804605680F4649B96E69C6B1EB6999
:100B0000B34298BF0126AB69A3B9002406E028468A
:100B1000FFF752FF0128044603D801242046BDE810
:100B2000F081421C51D0EB698342F7D83E46EAE798
:100B30000126E8E7BE4215D1EB69D8F80000741C25
:100B4000A34298BF02242146FFF736FF0128E4D0D4
:100B5000431C3AD0D8B16B69012B03D9EA6993429F
:100B600038BF1E463446EB690134A34202D8012E39
:100B7000CBD902242146D8F80000FFF71DFF40B171
:100B80000128CAD0013020D0B442ECD1BDE7002CFE
:100B9000E8D04FF0FF3221462846FFF791FE90B98A
:100BA00057B9D5E90632023A93426C6110D92B79D4
:100BB00043F001032B71B1E7224639462846FFF77F
:100BC0007FFE0028EDD00128A7D14FF0FF34A5E724
:100BD000013BAB61EBE7F8B50D46012D0746114629
:100BE00004682BD9E369AB4228D92AB14FF0FF3210
:100BF0002046FFF765FE30B929463868FFF7DCFE6E
:100C0000064608B90020F8BD012817D0431C17D0AC
:100C1000002229462046FFF753FE0028F3D1D4E9ED
:100C20000632911E8B4205D20133A361237943F032
:100C300001032371B2423546DED8E3E70220E2E742
:100C40000120E0E740B1A1F10B03012B04D90F29EA
:100C500002D0006901F02EB8704738B50D46044641
:100C6000F0B10368DBB11A78B2B18188DA889142B9
:100C700012D1186901F015F8034698B12368587825
:100C800001F0A6F810F0010002D124682C6038BDF4
:100C900000212068FFF7D6FF09200024F6E71C4654
:100CA0000920F3E70F201C46F0E72DE9F047002666
:100CB000D0F800A08E75836980460C46002B00F0AA
:100CC0009080C36A01336BD1D8F81C1000224D1EEE
:100CD00010462E2615F8013F202B00F101000CD004
:100CE000052B08BFE523092804D10B2A9EBFA718AE
:100CF00001327E72A71801327B720B28EAD1A31849
:100D000000205872A37D002B5AD1002A4FD004F145
:100D1000090010F8012B002A4CD092B2A2F1410533
:100D2000192D07D8082B0E7B8CBF102508252E42C5
:100D300018BF203202730133EBE7B9F1000F05D180
:100D400000F520539BB2B3F5006F12D340F2B511FA
:100D500040EA094000F0B4FFFF28C7F1800518D928
:100D6000012D20D9E319020A9A75D87502231F4470
:100D7000002002368146DAF80C30985B0028DCD17E
:100D80003D46B9F1000F18BF002525440023AB757F
:100D90009AE750B1002DF4D0E31998750123E6E7E6
:100DA000B1463746E7E70025EBE70546E9E73F238D
:100DB000A3750123234400229A750B7B03B9637248
:100DC000CB7A237201F11C00FFF72DFB2060CA7D56
:100DD0008B7D43EA0223E3804A7E0B7E43EA0223B3
:100DE000A380BDE8F087F8B5C37804460D46C3B9C3
:100DF00029462046FFF735FB04F1380607466063B5
:100E000004F50E723346002103F8011B9342FBD117
:100E1000002563899D420AD36089401B18BF0120C9
:100E2000F8BDFFF770FB0028E2D00120F8E70123AE
:100E30007A193146607800F0E4FF0028ECD10135E2
:100E4000E7E72DE9F843076905682037B7F5001F84
:100E500024BF0023836183690446894673B1C7F3C5
:100E60000808B8F1000F39D141690133836139B9FC
:100E70002B89B3EB571F31D80023A36104200BE06B
:100E80006B89013B13EA572328D12846FFF794FDCD
:100E90000128064602D80220BDE8F883421C01D191
:100EA0000120F9E7EB69834212D8B9F1000FE3D0D2
:100EB00061692046FFF71BFE0646A8B10128EAD06B
:100EC000431CEDD001462846FFF78DFF0028E7D1EF
:100ED000666131462846FFF7C4FAA06138354544BB
:100EE0002761E5610020D7E70720D5E72DE9F04F1E
:100EF000002185B00446D0F80080FFF7B7FD814699
:100F0000002840F08C804FF0FF334FF0FF0AE3627F
:100F100057460093A1694046FFF715FB814600281C
:100F20007DD1E5692E78002E7DD0EA7AE52E02F09B
:100F30003F03A37103D0100704D50F2B04D0009BEF
:100F4000E36252E00F2B57D194F82B30590642D46C
:100F5000720648D5236995F80DA0E36206F0BF0636
:100F60006B7B534541D1EA7EAB7E53EA02233CD1F1
:100F70002F78D8F80CB007F03F077B1E0D275F4392
:100F80002A4B012113F8012BA81815F8029040787C
:100F900049EA002959B37F2F039326D8484600F029
:100FA000C3FE7A1C02903BF81700019200F0BCFED1
:100FB0000299814219D1019A039B494617461C4A5E
:100FC0009A42DFD12B785B0603D511B13BF817307D
:100FD0005BB9013EF7B200212046FFF732FF8146A0
:100FE000002897D01BE0B742BAD0FF27F3E74FF6AF
:100FF000FF729145E3D0F8E727B92846FFF73CFA9E
:1010000050450CD094F82B9019F0010997D10B2280
:1010100004F120012846FFF716FA00288FD1484630
:1010200005B0BDE8F08F4FF00409F8E798B1000073
:10103000A5B100002DE9F84FFF26076805463446A4
:101040004FF004094FF6FF78A96919B9B9F1000FFB
:101050006FD05FE03846FFF776FA8146002859D115
:10106000E8690378002B6DD0C27AE52B02F03F02CD
:10107000AA7154D02E2B52D022F0200108294ED034
:101080000F2A51D15A0648D503F0BF042B69467B7D
:10109000EB62437BB34242D1C27E837E43EA0223AA
:1010A0001BB2002B3BD10278F968DFF8A0E022F0F8
:1010B0004002013A4FF00D0C0CFB02FC4FF001090D
:1010C0001EF801AB00EB0A0292F801B010F80A20FA
:1010D00042EA0B22B9F1000F23D0BCF17F0F1ED8DA
:1010E00021F81C2091460CF1010C01330D2BE7D1A6
:1010F00003785B0605D5BCF17F0F10D8002321F8DB
:101100001C30013CE4B200212846FFF79AFE8146DC
:10111000002899D00023AB610DE0A342B9D0FF2491
:10112000F1E74245E1D0FAE744B9FFF7A5F9B0424B
:1011300004D14FF000094846BDE8F88F4FF0FF3367
:10114000EB62F8E74FF00409E4E700BF98B1000054
:101150002DE9F04F85B00368019306468A4611F8E1
:10116000013B2F2BFAD05C2BF8D00021B1609AF80C
:1011700000301F2B00F2CD808023304686F82B30C4
:1011800005B0BDE8F04FFFF771BC7F2807D8924A41
:1011900012F8013B1BB19842FAD106204EE0802D97
:1011A000FBD02BF815000135B7E033F8022D202ACB
:1011B00002D02E2A40F0D480013DCEE00246D7E096
:1011C000C84505D2AB4249D1B9F10B0F3ED102E07F
:1011D000B9F10B0F35D144F003044FF00B0996F829
:1011E0002030E52B04BF052386F82030B9F1080F25
:1011F00004BFBF00FFB207F00C030C2B03D007F0B5
:101200000303032B01D144F00204A50707D4F80718
:1012100048BF44F01004790748BF44F0080486F83A
:101220002B403046FFF762FE96F82B3000285FD047
:10123000042803D113F0040F08BF052005B0BDE852
:10124000F08FAB4202D044F00304C8D8BF00FFB215
:101250002B464FF00B094FF00808B9E07F2812D950
:1012600044F0020240F2B5110393029200F028FD0F
:1012700010F0800FDDE902230FD000F07F00574906
:10128000085C144628B1564911F8012BF2B182428C
:10129000FAD144F003045F2011E0FF28F1D909F1ED
:1012A000FF31884503D344F00304C84690E006EBC1
:1012B0000801040A81F8204008F10108144606EBF1
:1012C000080208F1010882F8200081E0A0F1410243
:1012D00092B2192A02D847F00207F0E7A0F16102A2
:1012E00092B2192A9EBF203847F0010780B2E6E784
:1012F0005A07A3D4B379DB066CD5019B03F13801FF
:101300003369C3F308031944019B1878FFF7E1F828
:10131000B0603368D3F80CB000251AF8010B68B13F
:1013200040F2B51100F0ECFC00283FF436AF1F2866
:1013300004D92F2802D05C287FF427AF52461378B7
:101340002F2B924602F10102F9D05C2BF7D0202816
:1013500034BF042400240BEB4503002D7FF425AF9C
:1013600000220BEB45032BF81520002D3FF415AFA1
:101370003BF81210202902F101003FF41FAF0AB917
:101380002E2901D144F0030433F8021D2E2901D087
:10139000013DF9D106F1200306F12B01202003F8CD
:1013A000010B9942FBD14FF000084FF00809474666
:1013B0003BF81200531C00283FF411AF202805D041
:1013C0002E287FF4FDAEAB423FF4FEAE44F00304A2
:1013D0001A46EDE7052031E7AFB1000018B1000073
:1013E000B8B1000070B5C3780446002B45D123780E
:1013F000032B39D12379012B36D104F1380604F5BA
:101400000E723346002503F8015B9342FBD155234E
:1014100084F83632AA2384F83732522341227221CB
:1014200084F8383084F83930612384F83A3084F80D
:101430003B2084F81E2284F81F3284F81C1284F8A2
:101440001D1204F50870A169FEF7F5FF616904F546
:101450000970FEF7F0FF626A60780132626301236F
:10146000314600F0CEFC257100221146607800F074
:10147000DCFC003018BF012003E0FFF744F800282F
:10148000B5D070BD2DE9F04F90F82B4014F0A004BA
:1014900089B0054640F08F800668F26832F8143053
:1014A000002B66D105F120070C22394605A8FFF76D
:1014B00007F89DF81F30DB0740F186804023DFF8F6
:1014C000448285F82B304FF0010A0B2205A93846DB
:1014D000D6F80C90FEF7F4FFBAF1050F5AD9A9F12E
:1014E0000201534631F8022F002A44D10DF11300B6
:1014F000072203F00F0C0CF13001392988BF0CF1E1
:1015000037010F2B00F8011902F1FF324FEA1311D6
:1015100042D808AB13447E2103F8141C05F11F01C7
:1015200008460023934206D010F801CFBCF1200FEB
:1015300003F1010E32D1072A9CBF08A8801803F1DD
:10154000010396BF10F8140C20200132072BC85459
:10155000F1D92846FFF7CAFC814678BB0AF1010A97
:10156000BAF1640FB1D14FF00709484609B0BDE8A0
:10157000F08F013492E7102002F0010C0CEB4303D2
:1015800013F4803F18BF83EA080301384FEA520280
:10159000F2D1A7E75346A9E70B46AAE77346C1E78E
:1015A000804601212846FFF74CFC814610B3B9F173
:1015B000040FD8D0D9E74FF00609D6E70428D4D1D4
:1015C0009DF81F3085F82B309DF81F30D5F800A00E
:1015D0009B0748BF0C344FF00001284649BF0D233C
:1015E0000124B4FBF3F40134FFF740FA81460028EC
:1015F000DDD18046A9695046FEF7A5FF8146002847
:10160000D5D1EB691B78E52B01D0002BC8D108F1AF
:1016100001084445C5D1013C55D029692846A1EBB4
:101620004411FFF723FA814600289ED13846FEF781
:1016300023FF4FF6FF780190A9693046FEF783FF3C
:101640008146002891D1EB69019AD6F80CE05A73D3
:10165000E1B24FF00F024FF00D0CDA72DFF8A8A0E4
:1016600018734A1E0CFB02F29876D87684464045E1
:101670001AF8019B18BF3EF8120003F8090003EBAB
:10168000090B0CF1010C18BF01324FEA1029002898
:1016900008BF4046BCF10D0F8BF80190E7D14045E3
:1016A00002D03EF812200AB941F04001197001231E
:1016B000F37000212846FFF7C4FB814600287FF421
:1016C00054AF013CB8D1A9693046FEF73CFF8146D2
:1016D00000287FF44AAFEB69014603F1200203F8CA
:1016E000011B9342FBD10B223946E869FEF7E8FE65
:1016F00095F82B30EA6903F0180313730123F37094
:1017000033E700BF2110010098B10000F0B585B0AB
:10171000CDE9001003A814460391FEF7BCFE051E98
:1017200028DB154F57F825604EB1306900F0B4FA48
:1017300018B90224204605B0F0BD0023337001998A
:1017400079B9019B47F82530002CF3D001A900227C
:101750006846FEF755FF044601460198FFF772FA06
:10176000E8E7002301F8103BE8B200F08BFA00280C
:10177000E7D1DEE70B24DDE7180300102DE9F04187
:10178000D0B0174601910446002800F0DB8002F03B
:101790003F052A4602A901A8FEF732FF06460028A7
:1017A0004BD1029B019903930FAADA6003A8FFF7BC
:1017B000CFFC20B99DF93730002BB8BF062017F0B9
:1017C0001C0F00F09F80002842D0042835D103A8C8
:1017D000FFF758FE88BB45F00805029BDDF828801E
:1017E00018784146FEF775FE074600F030FB0146CB
:1017F00008F10E00FEF71FFE0A9B02982022DA7203
:101800000A990022FEF773FE0A9B00221A775A7784
:101810009A77DA77029B0121D97017B3394603A86A
:10182000D3F83480FFF7D7F938B941460298FEF76C
:101830008AFE029B013F5F6198B100232360064648
:1018400031460298FFF7FEF9304650B0BDE8F0810E
:101850009DF8123013F0110F5ED178076CD4390760
:10186000BBD4DDF808800A9FD8F834302362676261
:1018700098F800002907394648BF45F04005FEF7B3
:1018800028FEA06007F11C00FEF7CDFDB8F8063079
:10189000A38004F128070023E060C4F800802574C9
:1018A0006374E361636104F50A713A4602F8013B2F
:1018B0009142FBD1AA06C3D5E568002DC0D0B8F887
:1018C0000A80A16865614FEA4828A84526D3002010
:1018D000A1610028B1D1C5F30803002BB0D0DDF819
:1018E00008804046FEF7BDFD50B300EB5522E26193
:1018F0000123394698F8010000F06FFA00289FD0C4
:1019000001209AE7002898D19DF81230DA0615D404
:10191000BF07A6D5D807A4D507208EE72068FFF714
:101920004BF801280146A5EB080503D9431CCCD18F
:101930000120CDE70220CBE708207EE704207CE7EA
:1019400002207AE709267FE72DE9F04F9B4685B014
:1019500000238946CBF8003003A904461646FFF75A
:101960007CF9054608B9657C25B129460398FFF73F
:1019700069F908E0257C15F0010508D107210398D5
:10198000FFF760F90725284605B0BDE8F08FE3684A
:101990006769DF1BB74204F1280328BF374600936D
:1019A0002FB939460398FFF74DF93D46EBE76269D9
:1019B000C2F30803002B76D1039B5B89013B13EA3A
:1019C000522313D12AB9A068012809D802256574C9
:1019D000CBE7A16920680193FEF7EEFF019BF3E7D7
:1019E000421C02D101216174C0E7A061DDF80CA0A6
:1019F000A16901935046FEF734FD019B20B90225F1
:101A0000657429465046B2E7B7F5007F03EB00083E
:101A10002BD37E0ABAF80A209AF80100991991424C
:101A200088BFD61A33464246494600F0D6F9002808
:101A3000D8D194F91030002B0BDAE069A0EB080044
:101A4000B04206D24FF40072009909EB4020FEF735
:101A500037FD7602DBF800303344CBF800306369A1
:101A6000BF1BB1441E4466619AE7E269424518D043
:101A700094F91030002B0BDA012300999AF8010039
:101A800000F0BFF90028ADD1237C03F07F0323745D
:101A90000398009940780123424600F09EF90028FF
:101AA000A0D1C4F81C806169009BC1F30801C1F595
:101AB0000076BE4228BF3E46324619444846FEF7ED
:101AC000FFFCC7E7F7B501A90446FFF7C6F80546CE
:101AD000002843D1237C13F040053FD01B0614D5CA
:101AE0000198E2694078012304F1280100F089F9A6
:101AF00038B101210198FFF7A5F80125284603B068
:101B0000F0BD237C03F07F03237400F0A0F9216A69
:101B100007460198FEF717FD0546F8B9666AF37A9D
:101B200043F02003F372A26820683146FEF7DFFC21
:101B3000E16806F11C00FEF77EFC394606F116004E
:101B4000FEF779FC0198B5740123F574C370FFF7B3
:101B500049FC237C23F04003054623742946019861
:101B6000FFF770F8CAE737B50546FFF7ABFF044645
:101B700050B901A92846FFF770F8044620B928603B
:101B800001460198FFF75EF8204603B030BD30B53E
:101B9000C5B005460191002833D0002202A901A852
:101BA000FEF72EFD044690B9029B2B6003AADA6073
:101BB00001992846FFF7CCFA044620BB95F92B3053
:101BC000029C002B0BDBAB79DB0603D4052400233E
:101BD0002B600FE02078E969FEF77BFCA860E388C2
:101BE000AB8000212846FEF741FF04280446EDD0D3
:101BF0000028ECD121460298FFF724F8204645B092
:101C000030BD0924FAE70428E0D0E0E737B501A9A0
:101C10000546FFF722F8044620B9286001460198DE
:101C2000FFF710F8204603B030BDF0B5C3B00E4644
:101C300069460546FFF711F8044628B95EB9014622
:101C40002846FEF713FF044600982146FEF7FAFFE8
:101C5000204643B0F0BD009B01AADA602846FFF79A
:101C6000E9F910F0FB070446EED131462846FFF7AC
:101C70001CF839462846FFF7E4F8042814BF044648
:101C80000024E1E710B501200C4601F0B0FF206010
:101C9000003018BF012010BD08B502F017FA01206E
:101CA00008BD08B540F6B83102F002F9431E5842AB
:101CB000584108BD00231A46194601F0D5BEFFFF62
:101CC0007F2810B501D880B210BDB0F5803F13D287
:101CD00040F2B51399420FD10849002231F8024B66
:101CE000844293B203D103F18000C0B2ECE7013229
:101CF000802AF3D11346F6E70020E5E76EB4000032
:101D00007F280DD940F2B513994208D1FF2806D893
:101D100000F10040034B803833F81000704700207A
:101D2000704700BF6EB40000B0F5803FF0B521D21F
:101D30001E4A1F4983B2B0F5805F28BF0A46141DB2
:101D400034F8042C2146A2B1934212D334F8025C39
:101D50002E0AEDB2AF18B84222DA082E09D8DFE811
:101D600006F0050A10121416181A1C00801A34F80E
:101D700010301846F0BD981A00F001001B1A9BB2F3
:101D8000F7E7103BFBE7203BF9E7303BF7E71A3B6F
:101D9000F5E70833F3E7503BF1E7A3F5E353EEE74C
:101DA0000434002ECCD101EB4502C8E7C0B10000DD
:101DB000B2B3000010B5044600F070FC34B900F076
:101DC0000FF9044600F084FC204610BD0424F9E716
:101DD00008B900F0A3B904207047F8B507460C46CF
:101DE00015461E4600F05AFC4FB92046F2B229466D
:101DF00000F09CF9044600F06BFC2046F8BD04247A
:101E0000F9E7F8B507460C4615461E4600F046FCB5
:101E10004FB92046F2B2294600F0CEF9044600F050
:101E200057FC2046F8BD0424F9E770B506460C4679
:101E3000154600F033FC46B92046294600F010FA5A
:101E4000044600F045FC204670BD0424F9E700205C
:101E5000704738B500F08CFC00F5FA75FF2003F0F0
:101E6000F5FAFF2003F0F2FAFF28044603D000F051
:101E70007FFC8542F5D8204638BDFFFF08B502F04B
:101E8000EDFEFFF7E6FF02F0F1FE034A137843F0A0
:101E90000103137008BD00BF0800001038B50546E7
:101EA0000C46FFF7D6FFFF2821D1204603F0CEFADB
:101EB000FD2C1ED0AC1C05F2022514F8020C03F018
:101EC000C5FA023414F8030C03F0C0FAAC42F4D1A2
:101ED000FF2003F0BBFAFF2003F0B8FAFF2003F065
:101EE000B5FA00F01F00431F5842584138BD00208A
:101EF000FCE70120FAE737B5020604460D4607D590
:101F000000217720FFF7F7FF012831D804F07F0484
:101F100002F0ACFE02F0A2FEFFF79BFFFF282BD1E0
:101F2000402C27D0482C0CBF872301232A0E8DF884
:101F300001202A0C8DF8022006212A0A68468DF815
:101F400000408DF803208DF804508DF8053003F023
:101F500087FA4C2C02D1FF2003F078FA0A24FF20E4
:101F600003F074FA030603D5013C14F0FF04F6D124
:101F700003B030BD9523D9E7FF20F9E770B50546DA
:101F800000F0F6FB00F16406FF2003F05FFA044660
:101F900000F0EEFB864201D3FF2CF5D0FE2C0CD1D5
:101FA0004FF40071284603F05EFAFF2003F04EFA6A
:101FB000FF2003F04BFA012070BD0020FCE7FFFF7B
:101FC00038B5064D2C78E4B202F058FE18B104F092
:101FD000FD042C7038BD44F00304FAE7080000103B
:101FE0002DE9F341FFF7ECFF4A4B1A7812F0020F8C
:101FF0001E4604D01878C0B202B0BDE8F081C820F7
:1020000003F0ECF90A25FF20013D03F01FFA15F05B
:10201000FF05F8D102F022FE29464020FFF76BFFB2
:102020000128044671D100F0A3FB4FF4D57100F5EF
:102030007A774820FFF75FFF012848D101ADA84615
:102040000424FF2003F002FA013C14F0FF0408F816
:10205000010BF6D19DF80630012B56D19DF80730C3
:10206000AA2B52D100F084FB874206D94FF0804161
:10207000E920FFF740FF0028F4D100F079FB874208
:1020800043D900217A20FFF736FF00283DD10424F0
:10209000FF2003F0DBF9013C14F0FF0405F8010B0D
:1020A000F6D19DF8043013F0400F14BF0C24042423
:1020B000194B1C7002F0DAFD4CB3337845F6C05072
:1020C00003F0FE03337003F089F9307893E7294673
:1020D000E920FFF710FF022836BFE9254125022439
:1020E00000F046FB874205D900212846FFF703FF91
:1020F0000028F5D100F03CFB874206D84FF4007170
:102100005020FFF7F8FE0028D2D00024D0E7FFF7D8
:10211000B5FEDAE7080000101E03001008B5FFF74F
:102120004FFF014B187808BD0800001070B5144629
:1021300005460E46FFF744FF002C35D01C4B1B789C
:10214000DA0733D402F08AFD1A4B1B781B0758BFFD
:102150007602012C314611D15120FFF7CCFE38B95F
:102160004FF400712846FFF709FFB0FA80F46409C4
:1021700002F07CFD201C18BF012070BD5220FFF72B
:10218000BAFE0028F4D14FF400712846FFF7F6FE9E
:1021900028B1013C14F0FF0405F50075F3D10021CE
:1021A0004C20FFF7A8FEE3E70420E6E70320E4E77E
:1021B000080000101E03001070B5144605460E46B8
:1021C000FFF7FEFE002C41D0234B1A78D0073FD4F6
:1021D0001B7859073ED402F041FD204B1B781A07AB
:1021E00058BF7602012C11D131465820FFF783FEEB
:1021F00050BBFE212846FFF751FEB0FA80F4640977
:1022000002F034FD201C18BF012070BD13F0060F32
:1022100003D02146D720FFF76EFE31465920FFF745
:102220006AFE0028ECD1FC212846FFF737FE28B1D2
:10223000013C14F0FF0405F50075F4D1FD210020E8
:10224000FFF72CFE0028DBD10124D9E70420DCE7CE
:102250000320DAE70220D8E7080000101E03001070
:102260007FB506460D46FFF7ABFE052E15D12C783F
:10227000012C10D02CB1022C0AD00424204604B02A
:1022800070BD02F0FBFC0028F8D0FFF7F7FDF5E782
:1022900002F0F4FC68700024F0E76F4B1C7814F037
:1022A000010440F0D7800E2E00F2D280DFE806F065
:1022B00008134E52D0D0D0D0D0D09DA1B0B3C4001E
:1022C00002F0CCFCFFF7C5FDB0F1FF0418BF0124FC
:1022D00002F0CCFCD2E700214920FFF70CFE0446B7
:1022E00008B10124F4E710216846FFF747FE0028F3
:1022F000F7D09DF800309DF808109B09012B9DF840
:10230000093006D15A1C02EB012292B292022A60D5
:10231000DEE79DF807209DF80A00920002EB91127B
:102320009DF80610890201F4406101320A449DF8CB
:1023300005105B0001F00F0101EBD01103F0060363
:102340000B44073B02FA03F32B60C1E74FF4007321
:102350002B80BDE7414E317811F004011CD00021E3
:10236000CD20FFF7C8FD0028BBD1FF2003F06EF899
:1023700010216846FFF702FE0028B2D03024FF206B
:10238000013C03F063F814F0FF04F8D19DF80A3023
:102390001A0910239340D7E74920FFF7ACFD044604
:1023A00000289ED110216846FFF7E8FD002898D04C
:1023B00032789DF80A309DF80B1092070AD55B0021
:1023C0009DF80D2003F07E0303EBD1139209013336
:1023D000013ADFE7CA0002F01802C3F3840302EBFC
:1023E0005112013302FB0333AEE71C4B1B782B70F9
:1023F0006EE700214920FFF77EFD00287FF471AFD2
:1024000010212846FFF7BAFDB0FA80F464095FE7AF
:1024100000214A20EFE700217A20FFF76CFD0446F7
:1024200000287FF45EAF2E1DFF2003F00FF805F8A3
:10243000010BAE42F8D14BE70021CD20FFF75BFD49
:1024400000287FF44EAFFF2003F000F84021D8E7CA
:1024500004243DE7032411E7080000101E030010C8
:1024600008B5064605F0A3F900240546A54200DCA0
:10247000FEE7315D002003F0E5F80134F6E7FFFFE9
:1024800008B50148FFF7ECFF6EB5000002280CD933
:10249000074B1B685A68824207D09A68824204D070
:1024A000DB681B1A5842584170470120704700BF33
:1024B00044010010F8B504460E461546FFF7E6FF46
:1024C00048B3164B1B68DB68A34210D0A31E5C42C6
:1024D0005C4102F013FA0746002003F069F8022F6E
:1024E00017D1B0B1ACB9A54203DC2846F8BD012430
:1024F000EFE7315D4FF0FF32002003F00BF90134BC
:10250000F1E7315D002003F09DF80134A542F8DCCD
:10251000EBE70024FAE70248FFF7A2FF44010010AE
:10252000F2B5000008B5FFF7B1FF18B1002003F0C5
:10253000C5F808BD0148FFF793FF00BFC0B5000014
:10254000F8B504460D4600F0FDF8061941EB050705
:1025500002F0D4F902280CD100234FF47A72AB4276
:1025600008BFA24205D22046294603F003FD02F02F
:102570009FF800F0E7F8B94208BFB042F9D3F8BDC0
:102580004FF47A73A0FB0301FFF7DABF30B585B0D3
:1025900002F0E4FA02F07CFBADF8080002F08AFBDE
:1025A000ADF80A0002F098FBADF80C0002F0A6FBB3
:1025B0000024ADF80E0004AA04F0030302EB430369
:1025C000013433F8080C02F057FC3220FFF7D8FF33
:1025D000202CF0D145F6C05002F016FF002223490E
:1025E0002348FFF793F8234B18680023194602226B
:1025F000406804F0D5FFFDF715FE002501464FF4B5
:10260000E132002002F094FF00951B4B1B4A012190
:10261000204601F0B9F91A4B00950446194A0121E8
:10262000802001F0B1F922460146284602F0CCFF95
:10263000154A16491648174D04F014FFFDF7F2FD30
:1026400015490246022002F051FD0224E1B20220A7
:1026500002F00CFE18B12146284604F003FF0234B4
:10266000B4F5807FF2D105B030BD00BF2FB70000B8
:102670009003001044010010400300101F030010DD
:1026800048060010C805001025B6000036B6000048
:1026900087B60000A4B60000801A060010B50A4CE8
:1026A000236823B90949012001F08CFA206002F067
:1026B00025F9022806D120684FF0FF31BDE810400F
:1026C00001F0F6BB10BD00BF980600109C0600107C
:1026D00010B502F013F9022808D1054800231A4664
:1026E00019460068BDE8104001F0BEB910BD00BF3A
:1026F00098060010074A08B5136800210133084600
:10270000136002F015FC00210846BDE8084002F005
:10271000FDBB00BFEC06001008B5074A0749B0FB37
:10272000F1F10020013902F0BBFB0021044A084608
:10273000BDE8084002F0D8BBF526000040420F007B
:102740000087930370B5084E002002F0E9FB0546B0
:102750000020346802F0E4FB8542F5D8034B0021E9
:10276000E3FB040170BD00BFEC060010008793037B
:1027700008B5FFF7E7FF4FF47A72002303F0FAFB86
:1027800008BD70B5054608460C4605F010F8261839
:10279000B44205D128460A21BDE8704002F052BF7C
:1027A00014F8011B284602F04DFFF1E72DE9F04136
:1027B0001A4C07462379607943EA0020884607F1DE
:1027C000200602F04BFBC7F1FF2707F57F07E03734
:1027D000BB19984507DC23796079BDE8F04143EAED
:1027E000002002F02DBBA378E07843EA002002F03D
:1027F00013FB0028F7D0A6F1200515F8010B00F017
:10280000CFFDB542F9D1A378E07843EA002002F089
:1028100003FB0028F7D02036DAE700BF780B001062
:102820002DE9F041174C80460F0ACDB22646A37819
:10283000E07843EA002002F0EFFA0028F7D0A3790D
:10284000E07943EA002002F009FB022000F0A8FD35
:10285000404600F0A5FD384600F0A2FD284600F0F5
:102860009FFDA379E07943EA002002F0E9FAB3780A
:10287000F07843EA002002F0CFFA0028F7D0BDE854
:10288000F08100BF780B001010B50C4C6420FFF7EE
:1028900077FE2378607843EA002002F0DFFA6420B4
:1028A000FFF76EFE2378607843EA002002F0C8FA52
:1028B0006420BDE81040FFF763BE00BF780B001036
:1028C00010B5182000F056FD0921022002F096FAFA
:1028D000364C00B220700221C0F307206070084619
:1028E00002F06CFA00B2A070C0F30720E070002183
:1028F000022002F083FA00B22071C0F30720607159
:102900000721022002F07AFA00B2A071C0F307207A
:10291000E07104220021012002F01AFA00B22072B4
:102920000121C0F3072060720422084602F010FA69
:1029300000B204222073C0F3072011466073012007
:1029400002F006FA00B2A072C0F30720A379E07289
:10295000E07943EA002002F073FA2379607943EAD0
:10296000002002F06DFA2378607843EA002002F03C
:1029700067FAFFF789FF43F638010B20FFF750FF96
:102980000A20FFF7FDFD4FF460410320FFF748FFE9
:102990000A20FFF7F5FD022040F60601FFF740FF91
:1029A0000A20BDE81040FFF7EBBD00BF780B001018
:1029B00010B501248440064B31B959690C435C6160
:1029C000044B43F8202010BD19690C431C61F7E744
:1029D00080800240F00600102DE9F041164FDFF82C
:1029E0005C8000263D467B680124B440234202D12E
:1029F000BB681C4205D058F826309847EB681C434A
:102A0000EC600136202EEED1DFF83480002401275F
:102A10006B6A07FA04F6334202D1AB6A1E4205D054
:102A200058F824309847EB6A1E43EE620134202C9C
:102A3000EED1BDE8F08100BF80800240F0060010BA
:102A40007007001010B501248440064B31B9596B52
:102A50000C435C63044B43F8202010BD196B0C43FE
:102A60001C63F7E7808002407007001080B50B4CB4
:102A70000B4F0C4E0A2001F01BFE2378002BF9D0DF
:102A80003D78002DF6D13268074B0848642101FBE0
:102A9000023104F0E7FC2570ECE700BF00080010ED
:102AA0000C000010F4070010920B00101FB900007A
:102AB0002DE98048ADF5037D4FF40073404D414E44
:102AC00001934FF0010764202F7001F0F1FD002306
:102AD0002B7033781BB1642001F0EAFDF3E73A4C28
:102AE0003A4B2168DFF8FC80DFF8ECB0DFF8F8A0A3
:102AF000642000FB013101223548FEF73FFEDDF87E
:102B00000490B9F5007F08D19BF800302BB998F8F4
:102B1000003013B99AF800307BB12D48FFF723F845
:102B200098F800104FF400730193F9B123680BB9C2
:102B3000284B1B68013B236035E000F0BBFC01AB78
:102B40004A4602A92248FEF7FFFE00F0D5FC00F03D
:102B5000B1FC494602A8FFF729FE00F0CDFC33780E
:102B6000002BCCD00A2001F0A3FDF8E71A4A137815
:102B70004BB1184823680068117001338342A8BF25
:102B8000002323609FE7DFF8608098F8002072B18F
:102B9000124B1B68002B03DB0E4A12689342CADB00
:102BA0000F4804F0E5FC002388F800308BE7094962
:102BB0002368096801338B42A8BF1346236082E76C
:102BC000000800100C000010F4070010920B001019
:102BD000341600100408001001080010FC07001053
:102BE00074B9000002080010F8070010194B10B566
:102BF000194C1A682168012AC8680DD102221749A8
:102C00001A6003F04DFB23681548D96803F0C0FB38
:102C1000BDE8104000F058BB022A08D103220F493A
:102C20001A6003F03DFB23680E48D968EEE7032ADB
:102C300008D1012209491A6003F032FB23680A48CF
:102C4000D968E3E70146094803F0A2FB2368084876
:102C5000D968DBE71000001044010010CBB600007B
:102C6000D6B60000F0B600000CB7000028B7000090
:102C700030B70000034B00221A70034B01221A7078
:102C800000F022BB0C00001001080010034B0022D2
:102C90001A70034B01221A7000F016BB0C000010D2
:102CA0000208001008B5094B1B68D968084B1A7850
:102CB00042B1002207481A7003F06AFBBDE80840E1
:102CC00000F002BB01221A700348F5E7440100102E
:102CD0000C00001083B9000089B90000034B0022EA
:102CE0001A70034B01221A7000F0EEBA0C000010AB
:102CF000F807001008B50C4B0C4A1B68126801332A
:102D00009342A8BF00230A4A13600A4A10680A4A7D
:102D1000C068642101FB0322084903F0C1FABDE841
:102D2000084000F0D1BA00BFF407001004080010FA
:102D3000FC07001044010010920B001090B9000035
:102D4000F8B5274C27480023236004F011FC2649DE
:102D500026480122FEF7DAFC25492648FEF717FF30
:102D600070B9254D234F05F1160623493846FEF765
:102D70005CFF08B9AB7D73B92168204804F072FB91
:102D80001C48FEF743FF236813BB1D4804F0F0FB0B
:102D9000012003F071FA2B7ADB06E6D4304600F00E
:102DA00071FA70B132462168164804F05BFB236863
:102DB0005A1C2260144A6420314600FB032004F0B0
:102DC000EEFC2368132BD0DD104804F0D1FBD7E7CD
:102DD000012205490548BDE8F840FEF797BC00BF51
:102DE00004080010AEB900002FB70000FC1300105B
:102DF000C7B900005C18001064130010C9B90000C6
:102E0000FBB90000DAB90000920B0010E2B9000033
:102E100038B52C482C4C04F0ABFB2C4804F0A8FB34
:102E2000FFF78EFFFFF74CFD294804F0A1FB29486E
:102E300004F09EFB284804F09BFB284804F098FB14
:102E4000274804F095FB274804F092FB264804F03D
:102E50008FFB264804F08CFB254804F089FB2548AD
:102E600004F086FB244804F083FB244804F080FB34
:102E7000234804F07DFB234804F07AFB224B2348CF
:102E80001968642505FB014104F0ECFA204B214848
:102E9000196805FB014104F0E5FA1F4B1F4819684A
:102EA00004F0E0FA1E4B1F48196804F0DBFA1E4BD1
:102EB0001E48196804F0D6FA1D48BDE8384004F0F1
:102EC00057BB00BF51B70000920B00106EB7000057
:102ED0008AB70000A5B70000FCB80000BFB700002B
:102EE000D9B70000F6B70000FDB7000000B8000039
:102EF0001AB8000032B800004CB800004FB800000B
:102F0000ADB80000FBB80000F407001019B90000CC
:102F1000FC07001090B900001400001029B900004F
:102F2000F00700103DB90000080800104FB900007C
:102F300063B9000013B51E21002001F03FFF1D21E1
:102F4000002001F03BFF0F21002001F037FF11218D
:102F5000002001F033FF1E21002001F02FFF01218E
:102F6000022001F02BFF0421022001F027FF06219F
:102F7000022001F023FF264A01211E20FFF718FD41
:102F8000244A01211D20FFF713FD234A01210F20B0
:102F9000FFF70EFD214A01211120FFF709FD204A0C
:102FA00001211620FFF704FD012108461D4AFFF705
:102FB00049FD1D4A01210420FFF744FD1B4A012160
:102FC0000620FFF73FFD1A49262002F0A7F9194B0A
:102FD00040225A60FFF71CFF00240223CDE9003491
:102FE0004FF4807223461449144801F0E9F9032391
:102FF00000934FF4C062234611490194114801F037
:10300000DFF901F00BFA4FF0FF3002B010BD00BF46
:10301000DD2C0000F52C0000ED2B0000313200000B
:1030200099310000752C00008D2C0000A52C0000AB
:10303000D929000000E100E048B700006D2A000037
:103040004CB70000B12A000010B50D4C2368002BCE
:103050000DDD0C4A118801F2044189B2013B118057
:1030600023600BB94FF6FE610B20FFF7D9FB064B2F
:1030700022681B680549D868BDE8104003F010B904
:1030800014000010180000104401001031B90000B5
:1030900010B50C4C2368172B0ADC0B4A1188A1F2DF
:1030A000044189B201330B2011802360FFF7B8FB84
:1030B000064B22681B680649D868BDE8104003F03B
:1030C000EFB800BF140000101800001044010010F9
:1030D00031B9000010B50B4C2368002B09DD0A4AFA
:1030E0001188103989B2013B022011802360FFF75B
:1030F00097FB064B22681B680549D868BDE810405D
:1031000003F0CEB8F00700100A00001044010010D0
:1031100045B9000010B50B4C23680E2B09DC0A4A98
:103120001188103189B20133022011802360FFF72A
:1031300077FB064B22681B680549D868BDE810403C
:1031400003F0AEB8F00700100A00001044010010B0
:1031500045B9000010B50C4C2368002B0ADD0B4A62
:103160001188A1F5805189B2013B022011802360B2
:10317000FFF756FB064B22681B680649D868BDE876
:10318000104003F08DB800BF080800100A000010BE
:103190004401001057B90000104B1B68012B10B5FB
:1031A00005D1FFF751FFBDE8104000F08DB8022BAC
:1031B00002D1FFF78FFFF6E7032B02D1FFF7CAFF1B
:1031C000F1E7074C07482368D96803F0E1F8236862
:1031D0000548D96803F0DCF8E5E700BF10000010EF
:1031E0004401001028B7000030B7000010B50C4CA7
:1031F0002368062B0ADC0B4A118801F5805189B23D
:103200000133022011802360FFF70AFB064B22687E
:103210001B680649D868BDE8104003F041B800BFFC
:10322000080800100A0000104401001057B90000FF
:10323000104B1B68012B10B505D1FFF729FFBDE826
:10324000104000F041B8022B02D1FFF763FFF6E710
:10325000032B02D1FFF7CAFFF1E7074C07482368A9
:10326000D96803F095F823680548D96803F090F809
:10327000E5E700BF100000104401001028B700006F
:1032800030B7000010B503782E2B15D02E2104F096
:10329000A8FA044668B1094904F077FA38B1084938
:1032A000204604F072FAB0FA80F0400910BD012007
:1032B000FCE7044804F05CF90020F7E70DBA0000D1
:1032C00012BA000017BA00007047FFFF0C4600203A
:1032D000044908B5FFF755FA21460020FFF751FAD7
:1032E000FEE700BF4FBB000008B502490020FFF712
:1032F00048FAFEE715BB0000024B0022C3F8C020CD
:1033000030BF704700C00F4008B50C4600200A4986
:10331000FFF737FA09490020FFF733FA0849002080
:10332000FFF72FFA07490020FFF72BFA214600206C
:10333000FFF727FAFEE700BF1DBA00006FBA0000D2
:10334000B2BA0000E6BA0000034B0360034B0B6007
:1033500064231360704700BFA8090010180800100C
:1033600008B5FFF7EFF9024B1B68C01A08BD00BF94
:103370001008001038B50546084C242001F0AAFFBB
:1033800007232360FCF74AFF0223B0FBF3F2AA42B3
:1033900001D8236138BD0233DBB2F6E700C00A4032
:1033A000034B9860DA68D206FCD49868C0B27047C4
:1033B00000C00A4008B501F0B5FB00F069F8BDE8AF
:1033C000084001F0C3BB08B501F0ACFB00F0A8F861
:1033D000BDE8084001F0BABB08B501F0A3FB00F05E
:1033E000D1F8BDE8084001F0B1BBFFFF0848006814
:1033F000006880F308884FF0000080F3148862B6FC
:1034000061B6BFF34F8FBFF36F8F00DF00BF0000C7
:1034100008ED00E0DFF80C00016841F47001016084
:103420007047000088ED00E007B5002301930B4BC7
:103430001B68013304D00A49EF20FFF765FFFEE760
:103440004FF0180383F31188BFF36F8FBFF34F8FD3
:10345000019B002BFCD003B05DF804FB0C0A0010AC
:103460006CBB00004FF0807340F8043C074B40F801
:103470000C3C21F001016FF0020340F8081C40F8F9
:10348000202C40F8243C4438704700BF2934000009
:10349000074B19680868B0E8F04F80F30988BFF35C
:1034A0006F8F4FF0000080F311887047AFF30080FA
:1034B000100A001008B54FF0180383F31188BFF30A
:1034C0006F8FBFF34F8F094A13680133012B1360CD
:1034D0000AD1074B1B6813F0FF0F05D0054940F2D6
:1034E000AB10FFF711FFFEE708BD00BF0C0A00108C
:1034F00004ED00E086BB0000074A08B513682BB94D
:1035000006494FF4D970FFF7FFFEFEE7013B136059
:103510000BB983F3118808BD0C0A0010BBBB000077
:10352000EFF30980BFF36F8F154B1A681EF0100F71
:1035300008BF20ED108A20E9F04F10602DE9090046
:103540004FF0180080F31188BFF34F8FBFF36F8FD8
:1035500001F0D2F84FF0000080F3118809BC19681F
:103560000868B0E8F04F1EF0100F08BFB0EC108AEA
:1035700080F30988BFF36F8F704700BFAFF30080FF
:10358000100A001008B54FF0180383F31188BFF339
:103590006F8FBFF34F8F00F083FF18B1034B4FF0D5
:1035A00080521A60002383F3118808BD04ED00E007
:1035B00010B5084A084C002323601360FCF72EFE68
:1035C0004FF47A73B0FBF3F0044B01381860072313
:1035D000236010BD18E000E010E000E014E000E01F
:1035E000334B344A13B51968914205D132494FF42F
:1035F0009A70FFF789FEFEE71A68304B9A4205D1B0
:103600002F4940F23510FFF77FFEFEE72D4B1A7869
:10361000D2B20192FF221A701B782B4ADBB28DF8CE
:1036200003309DF8033003F018031370274A072373
:10363000136000219DF80300000603F1FF3409D454
:1036400011B1022B13600ED0214940F25D10FFF73B
:103650005BFEFEE79DF803305B00DBB28DF80330C4
:1036600001212346E6E74FF400731360019B154ADE
:10367000DBB21370174B1A6842F478021A601A68AA
:1036800042F078421A60FFF793FF134B00241C604E
:10369000FFF7C0FE114A136843F040431360FFF781
:1036A000A5FE01F029F8FFF7BFFE204602B010BDCD
:1036B00000ED00E071C20F4139BC000070C20F4143
:1036C0005CBC000000E400E0040A0010080A0010DE
:1036D0007FBC000020ED00E00C0A001034EF00E099
:1036E00008B5EFF305830F2B0BD90D4A9B5C0D4AF0
:1036F00012789A4205D90C4940F2FE20FFF704FEE9
:10370000FEE70A4B0A4A1B68126803F4E06393421F
:1037100005D9084940F20E30FFF7F6FDFEE708BD77
:10372000F0E300E0040A0010CDBB00000CED00E067
:10373000080A0010F7BB000010B5044600F0A8FE10
:10374000204602F031FE044600F03CFF0CB9FFF7C2
:10375000CBFD204610BD10B5044640B100F098FEE8
:10376000204602F029FEBDE8104000F02BBF10BD3E
:1037700000F108034FF0FF324360C0E90223036108
:1037800000230360704700230361704743684B6068
:103790009A688A609A685160996003680861013389
:1037A000036070470A68531C30B50AD103695A6830
:1037B0004A6091608B60596003680861013303605F
:1037C00030BD00F108035C6825689542EFD82346B8
:1037D000F9E7D0E9011203698A60516059688142B2
:1037E00008BF5A60002202611A68013A1A6018681C
:1037F000704710B50446FFF75DFEA46BFFF77CFE33
:10380000B4FA84F0400910BDF8B51546026C866B19
:10381000044652B9076847BB806801F0D1F8A76039
:1038200005460136A6632846F8BD65B9406802F032
:10383000CBFD6368226C1344A26863609342F0D3AB
:1038400023686360EDE7C06802F0BEFD236CE268A8
:1038500021685B421A448A42E2603EBFA2689B181C
:10386000E360022D01D116B1013E0025D9E73546AE
:10387000D7E7034610B41A6C084662B1D9689C6851
:103880001144A142D96024BF1968D960D9685DF894
:10389000044B02F099BD5DF8044B704770B50446C7
:1038A000FFF708FE94F8455004F124066DB2002D90
:1038B00014DCFF2384F84530FFF71EFEFFF7FAFD06
:1038C00094F8445004F110066DB2002D12DCFF2371
:1038D00084F84430BDE87040FFF70EBE636A002BE9
:1038E000E7D0304600F07EFF08B101F001F8013D5D
:1038F0006DB2DCE72369002BE9D0304600F072FF9F
:1039000008B100F0F5FF013D6DB2DEE738B50D46B8
:10391000044628B91A4940F20310FFF7F5FCFEE708
:10392000FFF7C8FDD4E90F30226862604343D11825
:103930001B1A1344A160E3600021FF23A16384F8F4
:10394000443084F8453095B9236963B104F110001F
:1039500000F048FF38B10B4B4FF080521A60BFF3B4
:103960004F8FBFF36F8FFFF7C7FD012038BD04F104
:103970001000FFF7FDFE04F12400FFF7F9FEF2E767
:1039800085BD000004ED00E013B51C4628B91E49B2
:103990004FF49D70FFF7B8FCFEE72BB91B494FF4BD
:1039A0009F70FFF7B1FCFEE732B161B918494FF4DF
:1039B000A170FFF7A9FCFEE729B1164940F24310B8
:1039C000FFF7A2FCFEE750230193019B502B05D08B
:1039D000114940F24B10FFF797FCFEE7002908BFA2
:1039E0002246019B22600123C4E90F0184F846307E
:1039F00019462046FFF78AFF9DF8103084F84C30B6
:103A0000204602B010BD00BFC2BC0000E4BC0000F4
:103A1000FABC000032BD00006ABD0000F8B50D46DA
:103A20001746064628B90F494FF4BB70FFF76CFCE8
:103A3000FEE748435030FFF77FFE044670B1002395
:103A400080F8463065B100F150032360C4E90F658A
:103A500001212046FFF75AFF84F84C702046F8BD3C
:103A60000346F2E7C2BC00002DE9FF4788460192F9
:103A70001F46044628B94E4940F2F120FFF744FCA6
:103A8000FEE739B9036C2BB14A4940F2F220FFF747
:103A90003BFCFEE7022F08D1E36B012B05D0464922
:103AA00040F2F320FFF730FCFEE700F027FF064668
:103AB00038B9019B33B1414940F2F620FFF724FCAD
:103AC000FEE700264FF00009DFF8F4A037E0019D83
:103AD0001DB9FFF711FD002050E016B902A800F053
:103AE000C1FEFFF709FD00F0D3FCFFF7E3FC94F8FB
:103AF0004430FF2B08BF84F8449094F84530FF2BE6
:103B000008BF84F84590FFF7F7FC01A902A800F070
:103B1000B5FE002846D1FFF7CDFCA26BE36B9A42BD
:103B20002FD1FFF7E9FC019904F1100000F042FEEB
:103B30002046FFF7B3FE00F045FD50B30126FFF726
:103B4000B9FCA26BE36B9A4201D3022FBFD13A4674
:103B500041462046FFF758FE636A1BB104F124007A
:103B600000F040FE38B1164B4FF080521A60BFF3A0
:103B70004F8FBFF36F8FFFF7BFFC012004B0BDE88C
:103B8000F087FFF7B9FC2046FFF788FE00F01AFD2A
:103B9000D4E74FF08053CAF80030BFF34F8FBFF324
:103BA0006F8FCBE72046FFF779FE00F00BFD92E721
:103BB00085BD00008DBD0000DDBD000024BE0000FD
:103BC00004ED00E013B5002200900B4601201146E1
:103BD000FFF7DAFE044638B1002383600360C36058
:103BE0001A461946FFF740FF204602B010BD10B537
:103BF000024600210120FFF711FF044638B10023DF
:103C000083600360C3601A461946FFF72DFF204604
:103C100010BDFFFF2DE9F843894690461F46044634
:103C200028B9284940F2C330FFF76EFBFEE739B9E7
:103C3000036C2BB124494FF47170FFF765FBFEE76D
:103C4000022F08D1E36B012B05D0204940F2C5308B
:103C5000FFF75AFBFEE7FFF743FDEFF311864FF046
:103C6000180383F31188BFF36F8FBFF34F8FA26BDD
:103C7000E36B9A4201D3022F22D194F845503A4681
:103C80006DB249462046FFF7BFFD6B1C13D1636A36
:103C90000BB901200BE004F1240000F0A3FD002883
:103CA000F7D0B8F1000FF4D00120C8F8000086F377
:103CB0001188BDE8F88301356DB284F84550E8E716
:103CC0000020F4E785BD00008DBD0000DDBD0000D3
:103CD00070B50D46044628B923494FF48C60FFF7B0
:103CE00013FBFEE7036C2BB1204940F26440FFF761
:103CF0000BFBFEE703683BB983682BB11C4940F21C
:103D00006940FFF701FBFEE7FFF7EAFCEFF31186DE
:103D10004FF0180383F31188BFF36F8FBFF34F8FFA
:103D2000A26BE36B93421CD994F8453001325BB22D
:103D3000A2635A1C10D1636A0BB9012009E004F197
:103D4000240000F04FFD0028F7D0002DF5D0012011
:103D5000286086F3118870BD01335BB284F845306A
:103D6000EBE70020F5E700BF85BD00007ABE00004C
:103D700093BE00002DE9F04385B00F460192044642
:103D800028B947494FF4A060FFF7BEFAFEE739B9FA
:103D9000036C2BB1434940F20450FFF7B5FAFEE73C
:103DA00000F0ACFD064638B9019B33B13E4940F204
:103DB0000950FFF7A9FAFEE700264FF00008DFF8E8
:103DC000EC903BE0019D1DB9FFF796FB002052E00F
:103DD00016B902A800F046FDFFF78EFB00F058FB75
:103DE000FFF768FB94F84430FF2B08BF84F8448049
:103DF00094F84530FF2B08BF84F84580FFF77CFB23
:103E000001A902A800F03AFD00283DD12046FFF7A5
:103E1000F0FC98B3019904F1240000F0CBFC20469B
:103E2000FFF73CFD00F0CEFB38B94FF08053C9F8E6
:103E30000030BFF34F8FBFF36F8F0126FFF73AFBC0
:103E4000A56B002DBED039462046013DFFF711FD80
:103E5000A563236963B104F1100000F0C3FC38B11D
:103E6000124B4FF080521A60BFF34F8FBFF36F8F2A
:103E7000FFF742FB012005B0BDE8F0832046FFF7C5
:103E80000DFD00F09FFBD8E72046FFF707FD00F08F
:103E900099FB2046FFF7ADFC0028CED096E700BF87
:103EA000FABE000006BF000024BE000004ED00E0E2
:103EB0002DE9FF410446019128B9584940F291503B
:103EC000FFF722FAFEE7056C2DB1554940F29550F7
:103ED000FFF71AFAFEE700F011FD064638B9019B1C
:103EE00053B1504940F29A50FFF70EFAFEE72E46C2
:103EF0000027DFF838814EE00546F9E7019B4BB912
:103F00002DB1494940F2E150FFF7FEF9FEE7FFF716
:103F1000F3FA5EE016B902A800F0A4FCFFF7ECFA91
:103F200000F0B6FAFFF7C6FA94F84430FF2B08BF4A
:103F300084F8447094F84530FF2B08BF84F845702E
:103F4000FFF7DAFA01A902A800F098FC00284AD18C
:103F50002046FFF74EFC00283FD023683BB9FFF70F
:103F6000A9FAA06800F0DAFC0546FFF7C5FA019946
:103F700004F1240000F01EFC2046FFF78FFC00F047
:103F800021FB38B94FF08053C8F80030BFF34F8F92
:103F9000BFF36F8F0126FFF78DFAA36B002BADD017
:103FA000013BA363236813B900F0B0FDA06023694F
:103FB00063B104F1100000F015FC38B11B4B4FF059
:103FC00080521A60BFF34F8FBFF36F8FFFF794FAE1
:103FD0000125284604B0BDE8F0812046FFF75EFCCD
:103FE00000F0F0FAD6E72046FFF758FC00F0EAFAB6
:103FF0002046FFF7FEFB0028CCD0002DE9D0FFF7CC
:1040000059FA616A19B1236B1968C1F10A01A068F4
:1040100000F024FD0025FFF76FFADAE7FABE000092
:104020007ABE000024BE0000A4BF000004ED00E042
:104030002DE9F84389469046054628B9214940F2C2
:10404000FB60FFF761F9FEE739B9036C2BB11E493C
:1040500040F2FC60FFF758F9FEE7FFF741FBEFF392
:1040600011874FF0180383F31188BFF36F8FBFF3ED
:104070004F8FAC6B1CB395F84460494676B2284626
:10408000FFF7F7FB013C731CAC6313D12B690BB931
:1040900001200BE005F1100000F0A4FB0028F7D090
:1040A000B8F1000FF4D00120C8F8000087F31188A0
:1040B000BDE8F883013676B285F84460E8E720462B
:1040C000F4E700BF85BD000059BF000008B528B95E
:1040D000064940F2B770FFF717F9FEE790F846304F
:1040E0001BB9BDE80840FFF736BB08BD85BD000021
:1040F0002DE9F0410446FFF7DDF92D4B2D4D1A68EF
:104100002D4F01321A602E68002E46D12C601B689C
:10411000012B1CD1B84640460136FFF729FB0A2E79
:1041200008F11408F7D1DFF8B880244E4046FFF7B5
:104130001FFB3046FFF71CFB2148FFF719FB214806
:10414000FFF716FB204BC3F80080204B1E60204A6F
:1041500020491368086801331360E26A236401236D
:104160009340034314200B6000FB0270211DFFF7F6
:104170000DFBFFF7C1F9184B1B6863B12B68DA6AB6
:10418000E36A9A4207D2154B4FF080521A60BFF390
:104190004F8FBFF36F8FBDE8F0810F4B1B68002B73
:1041A000D5D12B68DA6AE36A9A4298BF2C60CEE7D1
:1041B000E80A0010100A00101C0A0010100B001072
:1041C000300B0010480B0010140A0010180A0010E1
:1041D000F40A0010F80A0010440B001004ED00E08F
:1041E000FC0A001008B5074C074D4FF080562368B5
:1041F000012B04D92E60BFF34F8FBFF36F8FFFF7F2
:104200007BF8F4E71C0A001004ED00E0064A13688E
:104210001968064B19B94FF0FF321A6070471268DF
:10422000D268D2685268F8E7140A0010280B001010
:104230002DE9F047DDE909644FEA82094A4607465D
:104240000D46206BA521984602F0E6F8236BA9F1F4
:104250000409994429F007099DB36B1E04F1340247
:104260000B3513F8011F02F8011B09B1AB42F8D15D
:10427000002384F83F30089D092D28BF09254FF001
:10428000000AE562A564201DC4F84CA0FFF77BFA84
:10429000C5F10A0504F11800FFF775FAC4F854A037
:1042A0002461A5616462C4F850A084F858A0424615
:1042B00039464846FFF7D6F8206006B13460BDE8BD
:1042C000F08784F83450D6E7F8B51B4B1B4E1C68BA
:1042D0000546306804300F46FFF77BFA334640B995
:1042E0003168174EC96A32680120884022EA00020C
:1042F00032606A1C07D137B1196812480431BDE831
:10430000F840FFF743BA1A686419546007D30E4A9D
:1043100010681968BDE8F8400431FFF743BA0B4A4A
:10432000106819680431FFF73DFA094B1A68A24278
:1043300088BF1C60F8BD00BF5C0B0010100A0010A5
:10434000F80A0010480B0010180A0010140A001098
:10435000280B001070B586B0DDE90B542DB9154956
:1043600040F24D20FEF7D0FFFEE72CB9124940F293
:104370004E20FEF7C9FFFEE75C260596059E5C2EE3
:1043800005D00E4940F25620FEF7BEFFFEE725633A
:10439000022584F8595004AD01950A9D02940095B8
:1043A000059EFFF745FF2046FFF7A2FE049806B0E2
:1043B00070BD00BF8FC00000A6C00000BBC00000E1
:1043C0002DE9F043074685B0900088461646994689
:1043D000FFF7B2F90546E8B15C20FFF7ADF90446F6
:1043E000A8B1002380F859300D9B056301930C9B05
:1043F0000290009332464B4641463846FFF718FF7D
:104400002046FFF775FE012005B0BDE8F083284681
:10441000FFF7A1F94FF0FF30F6E7FFFF10B588B0C6
:10442000002407AA06A905A8CDE90544FEF78CFFDC
:10443000059B0293069B079A0F491048CDE900435C
:104440002346FFF787FF0E4B186090B14FF018031B
:1044500083F31188BFF36F8FBFF34F8F094B4FF07A
:10446000FF321A60084B01221A60084B1C60FFF7EC
:10447000B7F808B010BD00BF35C00000E54100002E
:10448000240B0010280B0010440B00105C0B0010D4
:10449000024A136801331360704700BFF00A00102E
:1044A0002DE9F84F3B4B1B68002B6BD13A4B1C6836
:1044B00001341C60A4B9394B1A6812682AB1384912
:1044C00040F67F20FEF720FFFEE7364A19681068A5
:1044D00018601160344A136801331360FFF796FEC9
:1044E000324D334F2B68A3424FF0000B11D93A687D
:1044F000304BD16A14224A439A58022A28BF4FF0FF
:10450000010B2D4A1268002A0CBF58460120BDE855
:10451000F88FDFF888A0DFF8A890DAF8002012689A
:104520001AB94FF0FF322A60E1E7DAF80020D268CA
:10453000D66871688C4201D22960D8E706F1040878
:104540004046FFF746F9B16A19B106F11800FFF7C6
:1045500040F9F06AD9F80030012202FA00F119435B
:10456000144BC9F800104FF0140C41460CFB0030FE
:10457000FFF70CF93868F16AC26A914228BF4FF020
:10458000010BCAE70D4A1368013313604FF0000BAB
:10459000B7E700BFF00A00105C0B0010140A00100F
:1045A000D4C00000180A00102C0B0010280B0010BB
:1045B000100A00101C0A0010600B0010EC0A00101A
:1045C000F80A00102DE9F8432F4C23682BB92F4926
:1045D00040F68500FEF798FEFEE7FEF76BFF2368C6
:1045E000013B236024682CB10024FEF785FF2046A0
:1045F000BDE8F883264B1B68002BF5D0254D264ED1
:10460000DFF8A8801FE0EB68DC6804F1040904F11E
:104610001800FFF7DEF84846FFF7DBF8E26A31687A
:10462000012707FA02F314200B4300FB02804946DE
:104630003360FFF7ABF8194BE26A1B68DB6A9A42FA
:1046400001D3174B1F602B68002BDCD10CB1FFF797
:10465000DDFD144D2C6844B1114E0127FFF720FFFA
:1046600000B13760013CF9D12C600D4B1B68002B69
:10467000BAD00D4B4FF080521A60BFF34F8FBFF38B
:104680006F8F0124B1E700BFF00A001039C10000AC
:10469000E80A0010300B0010F80A0010100A001091
:1046A000600B0010EC0A001004ED00E01C0A001082
:1046B00008B540B90D4B4FF080521A60BFF34F8FD1
:1046C000BFF36F8F08BD0A4B196829B1094940F241
:1046D0003C50FEF719FEFEE7FFF7DAFEFFF7F4FDA8
:1046E000FFF770FF0028E5D0ECE700BF04ED00E025
:1046F000F00A0010EFBF000038B5274B1A68274BAF
:1047000012B101221A6038BD1A60FEF729FE244A50
:10471000244C1568A84204D921680B6D5B1B034427
:104720000B65236810601B6B1A68B2F1A53F0BD1B3
:104730005A68B2F1A53F07D19A68B2F1A53F03D1FB
:10474000DB68B3F1A53F04D0206821683431FEF75F
:10475000BDFD154B1B68B3FA83F3DBB2C3F11F0336
:10476000142212495A4388188D582DB9104940F621
:10477000B730FEF7C9FDFEE7456808326D68456051
:104780000A44954204BF6A684260142202FB031384
:104790005B68DB682360B6E7F00A0010600B00106E
:1047A000E40A0010100A0010F80A00101C0A001099
:1047B0003AC0000010B50C4628B9084940F6CE3082
:1047C000FEF7A2FDFEE7064B19681831FEF7EAFF77
:1047D00020460121BDE81040FFF776BD09C000006A
:1047E000100A001038B5C368DC682CB9164940F6C9
:1047F0002940FEF789FDFEE704F118052846FEF77B
:10480000E8FF124B1B68E3B9251D2846FEF7E1FFC0
:104810000F49E26A08680123934003430B600D4B84
:104820001420294600FB0230FEF7B0FF0A4BE26A73
:104830001B68DB6A9A4283BF084B01201860002086
:1048400038BD29460648EFE72AC10000F00A0010EB
:10485000F80A00101C0A0010100A0010600B00106B
:10486000300B0010034B1B680360034B1B68436055
:10487000704700BF2C0B00105C0B001070B50C468D
:10488000054628B9164940F69440FEF73DFDFEE77F
:1048900029B9144940F69540FEF736FDFEE7FEF7CC
:1048A00009FE114B196823685A1C10D00F482E6856
:1048B00000686A68864201D08A420FD9881A83420A
:1048C0000AD95B1A134423602846FFF7CBFF002464
:1048D000FEF712FE204670BD002323600124F7E797
:1048E0002BC0000081C000005C0B00102C0B0010DE
:1048F000014B01221A607047600B0010054B1B68CA
:1049000033B1054B1B68002B0CBF02200020704701
:1049100001207047440B0010F00A00102DE9F0410F
:104920000446002835D0234AC36A1168C96A8B42FD
:10493000174636D28269204D002AA1BF3A68D26A52
:10494000C2F10A0282611426426906FB03539A42AD
:1049500021D100F104084046FEF73BFF174B48B950
:10496000E06A4643AA592AB91A680121814022EA1D
:1049700001021A603A681968D26AE262012404FAF4
:1049800002F0084318601420414600FB0250FEF775
:10499000FDFE204603E03B68DB6AC3620120BDE800
:1049A000F0811368806CDC6AA0422CBF00200120DB
:1049B000F5E700BF100A00101C0A0010F80A0010EA
:1049C000F8B5044608B90020F8BD1F4B1B688342A8
:1049D00005D01E4940F6D170FEF796FCFEE7DB6C71
:1049E0002BB91B4940F6D270FEF78EFCFEE7C16A78
:1049F000826C013B9142C364E5D0002BE3D1051DDD
:104A00002846FEF7E6FE134E134A50B9E76A142112
:104A1000794373582BB913680120B84023EA000387
:104A20001360A36CE362C3F10A01A1611168012460
:104A300004FA03F008431060142000FB03602946C9
:104A4000FEF7A4FE2046BFE7100A0010FFC00000DA
:104A500015C100001C0A0010F80A0010F8B5044641
:104A6000002847D0C26C2AB923494FF48150FEF781
:104A70004BFCFEE7836C994238BF1946C36A8B42F0
:104A800038D0012A36D11D4A1268824205D11C490C
:104A900041F23B00FEF738FCFEE78269194DC16226
:104AA000002A4FF014064269A8BFC1F10A0106FBB3
:104AB0000353A8BF81619A421CD1071D3846FEF7F7
:104AC00088FEE26A104C40B95643AB592BB92368B3
:104AD0000121914023EA01032360216801239340CF
:104AE0000B4314202360394600FB0250BDE8F84018
:104AF000FEF74CBEF8BD00BF15C10000100A001043
:104B000015C000001C0A0010F80A0010044B1A68B7
:104B10001AB11968CA6C0132CA641868704700BFBC
:104B2000100A001010B5FEF71BFC064B064A196868
:104B300029B1196814680B6D1B1B03440B651060C9
:104B400010BD00BF100A0010E40A001008B5FEF7FF
:104B500007FC014B186008BDE40A001007B50122EC
:104B60000221002000F0F4F801220321002000F0CF
:104B7000EFF804220021012000F0EAF801210422CC
:104B8000084600F0E5F804221146012000F0E0F8A4
:104B90000821012000F032F92B4B4FF480729A610A
:104BA0000921012000F00AF902220A21002000F068
:104BB000CFF802220B21ADF80000002000F0C8F869
:104BC000ADF80400009800F0D2F8019800F0CFF89A
:104BD0000321022000F012F91C4B00B21870C0F340
:104BE000072058701A21012000F008F9184B00B274
:104BF0001870C0F3072058701821012000F0FEF84B
:104C0000144B00B21870C0F3072058701221012015
:104C100000F0F4F8104B00B21870C0F30720587081
:104C20000A21012000F0CAF80F21012000F0C6F887
:104C30001E21002000F0C2F81D21002003B05DF805
:104C400004EB00F0BBB800BF208009206A0B001005
:104C5000680B0010660B0010640B0010024B4FF441
:104C60008072DA61704700BF20800920024B4FF448
:104C700080729A61704700BF20800920034B5869F9
:104C800080F40070C0F34020704700BF20800920EE
:104C9000074B82B01B88ADF804309DF8043000202B
:104CA00063F307009DF8053063F30F2002B07047EF
:104CB000640B0010074B82B01B88ADF804309DF8E0
:104CC0000430002063F307009DF8053063F30F20E4
:104CD00002B07047660B0010074B82B01B88ADF81E
:104CE00004309DF80430002063F307009DF8053080
:104CF00063F30F2002B07047680B0010074B82B0BF
:104D00001B88ADF804309DF80430002063F30700E1
:104D10009DF8053063F30F2002B070476A0B001056
:104D200082B0C3B2ADF80400C0F30720800000EBEE
:104D3000C31000F1804000F5303001F00701036836
:104D400023F00703036003681943016002B0704752
:104D500037B58DF801108DF8000004460D46009817
:104D60001146FFF7DDFF44EA052003B030BD82B0F5
:104D7000C3B2ADF80400C0F30720800000EBC310FD
:104D800000F1804000F53030036843F48063036035
:104D900002B0704782B0084BADF80400C0B20122E7
:104DA00053F820109DF805000B68824023EA0203A7
:104DB0000B6002B0704700BF50C1000037B58DF8DE
:104DC00000008DF80110044600980D46FFF7E2FF41
:104DD00044EA052003B030BD82B0074BADF80400B3
:104DE000C0B253F820209DF80500116801238340CC
:104DF0000B43136002B0704750C1000037B58DF807
:104E000000008DF80110044600980D46FFF7E4FFFE
:104E100044EA052003B030BD82B0084BADF8040071
:104E2000C0B29DF8051053F820305A6901238B4019
:104E3000134214BF0120002002B0704750C100008F
:104E4000C2B2054BC0F3072053F82220012382B0E1
:104E50008340936102B0704750C10000C2B2054B5D
:104E6000C0F3072053F82220012382B08340D3618E
:104E700002B0704750C1000007B5ADF804000198BA
:104E8000FFF7CAFF28B1019803B05DF804EBFFF704
:104E9000E5BF019803B05DF804EBFFF7D1BFFFFF5A
:104EA0002DE9F0410F4C04EBC00306461D7928465E
:104EB0000F46904600F00EFA54F8364000233F2289
:104EC00063604146A360284622606361A361E36199
:104ED0002362636200F022FA0123E7606360BDE8A9
:104EE000F08100BF68C10000074B53F8303030B587
:104EF00001205C6901EB4105A8402043586118334B
:104F000043F8212030BD00BF68C10000034B53F8B7
:104F10003020012303FA01F11160704768C10000DD
:104F2000024B53F830309868704700BF68C10000EA
:104F3000024B53F830309960704700BF68C10000E1
:104F40002DE9F041044617461E468846FFF7D6FC79
:104F5000002105466068FEF7ABFF00232373069B24
:104F60006361079BA361236884F80D802022022DD2
:104F7000A77326611A600BD140F6B8316068FEF75E
:104F800097FF18B1207BB0FA80F04009BDE8F081AE
:104F900000216068FEF78CFF0028F9D0F2E7FFFFE0
:104FA00003685A68282A13B557D00AD8102A2CD07B
:104FB000182A32D0082A09D1417B01F0FE019960FC
:104FC00028E0402A63D00DD8382A77D05A68027377
:104FD00020229A6110221A6008229A611A68D20669
:104FE000FCD426E0502A5BD0582AEFD10269996898
:104FF00011700022826120229A6110221A60082218
:105000009A611A68D106FCD413E0427B42F0010297
:105010009A6008229A6102B010BD846920219961CA
:105020000822C4B99961102119609A611A68D106E1
:10503000FCD4002301A940680193FEF749FE019BBF
:10504000002BE8D01F4B4FF080521A60BFF34F8FF8
:10505000BFF36F8FDFE7817BB1E7427BD20702D5D9
:1050600020221A60D5E782694AB920229A6110226B
:105070001A6008229A611A68D406FCD4D9E74169FB
:10508000013A11F8014B9C6041618261C1E7202225
:105090009A618269012A4FF00402E2D89A61B8E766
:1050A0000269996811700269013202618269013AEC
:1050B000012A82614FF00402D3D1EFE75B680373EA
:1050C000B7E700BF04ED00E00148FFF769BF00BF8C
:1050D000540000100148FFF763BF00BF3800001004
:1050E0000148FFF75DBF00BF1C0000102DE9F04331
:1050F000284B06461546884693E8070085B004AB62
:1051000003E9070040F60A33ADF800300C238DF8B0
:1051100002301C237343204AD45802EB030904AB2A
:10512000334403220021012013F8107CFEF776FCA3
:10513000C9F804000120FEF75AFDC9F808003846F6
:1051400000F0C8F86C23A361144A154B904588BF42
:1051500098462823B5FBF8F25208C8215343B3FB05
:10516000F1F323613C235A430023B2FBF1F2626165
:10517000A36263622362E3604023236004AB03EB1A
:105180008606384656F80C1C05B0BDE8F04300F022
:10519000C5B800BF88C100001C00001040420F00CD
:1051A000A08601002DE9F3410F4690461D4623B924
:1051B0000025284602B0BDE8F0810F4C1C2303FBFC
:1051C00000444FF0FF31A068FEF772FE0028EFD0D8
:1051D0000026089B019342462B4647F001010096AA
:1051E0002046FFF7ADFE3346054632463146A068FD
:1051F000FEF73AFCDDE700BF1C0000101FB50023DE
:105200008DF80F30012300930DF10F03FFF7CAFF54
:105210009DF80F0005B05DF804FBFFFFF7B50E46E3
:1052200017461D461BB90025284603B0F0BD0E4C9D
:105230001C2303FB00444FF0FF31A068FEF738FE4B
:105240000028F0D0089B3A46CDE9005306F0FE0155
:1052500000232046FFF774FE002305461A46194630
:10526000A068FEF701FCDFE71C0000101FB500225C
:1052700000920DF10F038DF80F20FFF7CFFF05B05F
:105280005DF804FB1FB58DF80F30012300930DF17D
:105290000F03FFF7C3FF05B05DF804FBFEE7FFFF58
:1052A00008B5FFF73FFC084B084A1B78103BDBB200
:1052B00052F823309847064B00221A601B68BDE85D
:1052C0000840FFF743BC00BF04ED00E07000001091
:1052D0006C0B0010242809D8054B064A185CD2F83C
:1052E000C410012383400B43C2F8C430704700BF91
:1052F00094C1000000C00F4024289FBF054B064A00
:10530000D3F8C430105C9ABF23FA00F000F001001B
:105310000020704700C00F4094C10000074B43F8C5
:10532000201043B2002B08DB012200F01F0002FA1C
:1053300000F05B09024A42F8230070477000001039
:1053400000E100E073B54FF0FF33B1F5805F0193EA
:1053500036D21D4C2369DE0734D41C4B1D69ED0782
:1053600030D41B4D0326AE602E611A4D1D6002B372
:1053700001AE5E6041F00046DE6041F20F061E6144
:10538000DAB1206041F0806140F68112E160656031
:105390002261114A516A41F003015162D868C0F399
:1053A0000B000028FAD1536A23F00303536202B0C2
:1053B00070BD586041F00846DEE701AA2260E3E7CD
:1053C0000120F4E70220F2E7000108202001082074
:1053D0000000082008C00A4000C00A4010B504467A
:1053E000FAF71CFF4FF47A73B0FBF3F00223B0FB23
:1053F000F3F2A24202D8034A136110BD0233DBB2BA
:10540000F5E700BF00C00A4010B504462420FFF7AE
:1054100061FF0B4B07221A6002225A602046FFF7F9
:10542000DDFF1A20FFF756FF064B01221A631A6BA5
:10543000D207FCD5044A0023936042F8183C10BD03
:1054400000C00A400000082020010820034B98609B
:10545000DA68D206FCD49868C0B2704700C00A402F
:105460000122FFF76FBF0022FFF76CBF026893684D
:10547000C3F34203022B73B5064623D0062B21D07B
:10548000012B34D100248DF803400194102501AA8A
:105490000DF103017068FEF7CBFD48B133689DF84C
:1054A00003201A70019B002B18BF0124013DEED18F
:1054B0000CB3124B4FF080521A60BFF34F8FBFF303
:1054C0006F8F18E00024019433681A7DD207EFD55E
:1054D0001B788DF8033001AA00230DF10301B06899
:1054E000FEF798FB019B002B18BF0124ECE7137D0E
:1054F000DBB20193019B02B070BD00BF04ED00E080
:105500000148FFF7B3BF00BF380100100148FFF7A3
:10551000ADBF00BF2C0100100148FFF7A7BF00BFBF
:10552000200100100148FFF7A1BF00BF14010010C7
:10553000134B70B515460646185C0C462D01FFF757
:10554000C9FEB4FBF5F307EE903AF8EE677AB6EED3
:10555000007A77EE877A0C20FCEEE77A7043094AEE
:1055600017EE903A12589BB280211173190ADBB2E0
:1055700011711370102382F828300723137370BD44
:10558000CCC1000014010010074B10B50446185C94
:10559000FFF7B2FE38B10C206043044B1B58187B58
:1055A000003018BF012010BDCCC100001401001054
:1055B000044A0C2303FB00204068003018BF012080
:1055C000704700BF140100102DE9F04105468846E0
:1055D0001646FFF7D9FF074618B900273846BDE839
:1055E000F081154C0C2303FB05439A6822B9B8F1EE
:1055F000000F01D0C3F808800C2303FB05435A6851
:105600000AB906B15E600C266E43A3199A68002A97
:10561000E3D05B68002BE0D0084B53F82510084B13
:10562000585DFFF77BFEA35941221A7206221A72B7
:1056300007225A60D2E700BF14010010BCC100006D
:10564000CCC1000038B50C234343074A0D46D4585B
:10565000FFF79AFF30B1237D9A06FCD52570237D94
:105660009B06FCD538BD00BF1401001070B5044680
:1056700015460E46FFF742F90F4B0C2202FB04348D
:10568000A468B4B1022814D16B1C09D04FF47A700D
:10569000A5FB00014FF47A72002300F06BFC054675
:1056A0002A4631462046FEF765FB003018BF012030
:1056B00070BD0020FCE700BF140100102DE9F84385
:1056C00006460F46124DFFF719F90C2404FB06534A
:1056D00081463046D3F80880FFF756FFA0B1B9F1F4
:1056E000020F0AD1B8F1000F07D0394630464FF00B
:1056F000FF32BDE8F843FFF7B9BF74432B591A7D59
:10570000D207FCD51B783B700020BDE8F88300BFB2
:1057100014010010F7B51F4D8DF807100746164607
:10572000FFF7ECF80C2303FB07535C6864B3022813
:105730002DD1711C09D04FF47A70A6FB00014FF4F3
:105740007A72002300F016FC0646002332460DF163
:1057500007012046FEF788F9041C18BF0124FDF755
:10576000A9FE0C2078432B182D582A7D520609D506
:1057700000220DF107015868FEF75AFC10B19DF8A0
:1057800007302B70FDF7B8FE204603B0F0BD0024B3
:10579000FAE700BF1401001081F0004102E000BFF1
:1057A00083F0004330B54FEA41044FEA430594EAE1
:1057B000050F08BF90EA020F1FBF54EA000C55EA1C
:1057C000020C7FEA645C7FEA655C00F0E2804FEAED
:1057D0005454D4EB5555B8BF6D420CDD2C4480EACF
:1057E000020281EA030382EA000083EA010180EAFF
:1057F000020281EA0303362D88BF30BD11F0004F4D
:105800004FEA01314FF4801C4CEA113102D0404282
:1058100061EB410113F0004F4FEA03334CEA1333BD
:1058200002D0524263EB430394EA050F00F0A780D5
:10583000A4F10104D5F1200E0DDB02FA0EFC22FAD0
:1058400005F2801841F1000103FA0EF2801843FAC4
:1058500005F359410EE0A5F120050EF1200E012AB5
:1058600003FA0EFC28BF4CF0020C43FA05F3C018F3
:1058700051EBE37101F0004507D54FF0000EDCF16C
:10588000000C7EEB00006EEB0101B1F5801F1BD315
:10589000B1F5001F0CD349085FEA30004FEA3C0C19
:1058A00004F101044FEA445212F5800F80F09A800F
:1058B000BCF1004F08BF5FEA500C50F1000041EB13
:1058C000045141EA050130BD5FEA4C0C404141EB17
:1058D000010111F4801FA4F10104E9D191F0000F3E
:1058E00004BF01460020B1FA81F308BF2033A3F1C1
:1058F0000B03B3F120020CDA0C3208DD02F1140CB8
:10590000C2F10C0201FA0CF021FA02F10CE002F1F2
:105910001402D8BFC2F1200C01FA02F120FA0CFCEB
:10592000DCBF41EA0C019040E41AA2BF01EB045134
:10593000294330BD6FEA04041F3C1CDA0C340EDC32
:1059400004F11404C4F1200220FA04F001FA02F375
:1059500040EA030021FA04F345EA030130BDC4F133
:105960000C04C4F1200220FA02F001FA04F340EA28
:105970000300294630BD21FA04F0294630BD94F0D9
:10598000000F83F4801306BF81F480110134013DC0
:105990004EE77FEA645C18BF7FEA655C29D094EA31
:1059A000050F08BF90EA020F05D054EA000C04BFAF
:1059B0001946104630BD91EA030F1EBF002100209A
:1059C00030BD5FEA545C05D14000494128BF41F039
:1059D000004130BD14F580043CBF01F5801130BD9D
:1059E00001F0004545F0FE4141F470014FF0000028
:1059F00030BD7FEA645C1ABF194610467FEA655CD9
:105A00001CBF0B46024650EA013406BF52EA03357A
:105A100091EA030F41F4002130BD00BF90F0000F68
:105A200004BF0021704730B54FF4806404F13204A4
:105A30004FF000054FF0000150E700BF90F0000F5D
:105A400004BF0021704730B54FF4806404F1320484
:105A500010F0004548BF40424FF000013EE700BF54
:105A600042004FEAE2014FEA31014FEA02701FBFE4
:105A700012F07F4393F07F4F81F06051704732F016
:105A80007F4208BF704793F07F4F04BF41F400216D
:105A9000704730B54FF4607401F0004521F00041CB
:105AA0001CE700BF50EA010208BF704730B54FF055
:105AB00000050AE050EA010208BF704730B511F056
:105AC000004502D5404261EB41014FF4806404F18E
:105AD00032045FEA915C3FF4D8AE4FF003025FEA14
