:1000000000000110E500000075010000590100002A
:100010007501000075010000750100007501000008
:1000200075010000750100007501000095270000B2
:100030007501000075010000A7270000B927000026
:100040002546000025460000254600002546000004
:1000500025460000254600002546000025460000F4
:1000600025460000254600002546000025460000E4
:1000700025460000254600002546000025460000D4
:1000800025460000254600002546000025460000C4
:1000900025460000254600002546000025460000B4
:1000A00025460000254600002546000025460000A4
:1000B0002546000025460000254600002546000094
:1000C0002546000025460000254600002546000084
:1000D0002546000025460000254600002546000074
:1000E0002546000008B500F057F900F073F900F05C
:1000F0007BF900F09BF800F095F802F05FF902F050
:1001000097F800F0BFF840B141F28734002502F0C3
:1001100081F98D4208BF8442F9D200F082F918B902
:100120000849094806F04CFB0649084806F048FB18
:1001300002F090FA064B07481B68D96805F0D6FA1A
:10014000FEE700BFC09F0000CC9F0000F99F0000A9
:100150003401001011A000001EF0040F0CBFEFF3DB
:100160000880EFF309808169004A1047D10100003F
:100170007047FFFF38B50F4C0F4B10481D782368B0
:10018000D96805F0B3FA23680D49D8682A4605F006
:1001900035FA0F2D236807D80A4A0B4952F8252053
:1001A000D86805F02BFAFEE7D968084805F09EFAF2
:1001B000F9E700BF3401001004ED00E04CA000009E
:1001C00066A0000058A10000A0A00000BEA0000092
:1001D00010B5044600F04AF8236883606368C36082
:1001E000A3680361E3684361236943626369013B78
:1001F000C361A3698361E3690362BFF34F8F05495C
:10020000054BCA6802F4E0621343CB60BFF34F8F23
:1002100000BFFDE700ED00E00400FA05004870476C
:1002200000D8B8050048704700D8B8050E4B072223
:10023000C3F88420AA210122C3F88020C3F88C10BF
:100240005521C3F88C10C3F8A821D3F88820520593
:10025000FBD51A6822F4704242F480421A6040F2E0
:100260000112C3F80421704700C00F400248034A3E
:10027000034BC0E90023704700000020EFBEADDE55
:100280001041522138B5224C224B22689A423DD16E
:100290006268214B9A4239D1204D21482B68D96898
:1002A00005F024FA2B68A2691E49D86805F0A6F962
:1002B0002B68E2691C49D86805F0A0F92B68226A0E
:1002C0001A49D86805F09AF92B68A2681849D868C5
:1002D00005F094F92B68E2681649D86805F08EF9A4
:1002E0002B6822691449D86805F088F92B6862697F
:1002F0001249D86805F082F92B681148D96805F0D1
:10030000F5F901200023C4E9003338BD0020F9E7E6
:1003100000000020EFBEADDE10415221340100107C
:1003200098A10000EBA10000FAA1000009A20000C2
:1003300018A2000027A2000036A2000045A200007B
:1003400054A200000E4A136810B50E4C1918A142B1
:10035000116002D30C4CA1420BD313600B4A0C4921
:1003600013681844884208D30A49884205D21060AD
:1003700001E0002BF2D0184610BD0023FBE700BFC0
:100380000000001028000020008000200400001061
:10039000640A001000000110094A0A4B0A498B4206
:1003A00005D30A4B0A4A0021934205D3704712F83D
:1003B000010B03F8010BF2E703F8011BF4E700BFA0
:1003C0006CB30000000000100803001008030010C8
:1003D000640A0010034AD2F8883043F47003C2F86C
:1003E0008830704700ED00E0044800232021C21847
:1003F0000133292B82F80013F9D1704700E100E0A6
:1004000008B52A2219233821022004F0FDF80D2214
:100410003821022004F0B4F8A0F12A0358425841D0
:1004200008BDFFF7EDBF42884378007843EA022316
:1004300040EA032070470B0A017043700B0C090E51
:100440008370C170704710B5024410F8013B11F879
:10045000014B9042A3EB040301D0002BF5D01846CA
:1004600010BDC3690239023B8B4283BF4389006BD5
:1004700001FB030000207047024600F10B01002041
:10048000C30143EA500312F8010B50FA83F38A4286
:10049000D8B2F5D1704702684AB1134613F8011B70
:1004A0001F290BD93A29F9D1911C8B4202D04FF068
:1004B000FF3070471278302AF9D10360002070476E
:1004C00001380A4411F8013B00F8013F9142F9D18B
:1004D0007047CA7E8B7E032843EA022301BF487D12
:1004E0000A7D42EA002243EA024318467047C2F3FB
:1004F00007238A76CB760378032B01BF120C0A758B
:10050000120A4A75704770B500F13806426B04460E
:1005100001233146407801F0CCFA054688B9616B79
:10052000A36A226AE070CB1A934208D2A378022B06
:1005300005D10A4401233146607801F0BAFA284611
:1005400070BD0125FBE738B5436B8B4204460D4671
:1005500019D0C3788BB901232A4604F13801607899
:1005600001F093FA002818BF4FF0FF35034665638A
:100570000CBF03460123184638BDFFF7C4FF0346EE
:100580000028F8D1E7E70023F5E7FFFF38B500239F
:10059000C3704FF0FF3343630546FFF7D4FF0446B3
:1005A00018BB95F8372295F8363243EA02234AF60B
:1005B000552293421BD195F83830EB2B03D01833DA
:1005C000DBB2012B15D803220B4905F16E00FFF7B2
:1005D0003AFF40B10522094905F18A00FFF733FFD0
:1005E000002818BF0224204638BD0424FBE703245A
:1005F000F9E70224F7E700BFB5A30000B9A30000A4
:100600002DE9F043002385B00B600F461546FFF738
:1006100042FF061EC0F23981A44B53F82640002C3D
:1006200000F03581206901F095F9002800F0318152
:100630003C60237805F0FE056BB1607801F020FA8C
:10064000C10708D41DB110F0040500D00A252846C2
:1006500005B0BDE8F0830023F0B22370607001F0B4
:1006600001FAC20700F117810DB14307EED4002152
:100670002046FFF78BFF022840F0EE806F4604F51E
:10068000FF7104F23E263D4611F8040C10B10846F5
:10069000FFF7C9FE10318E4245F8040BF4D1002556
:1006A00057F8046B002E00F0CE8031462046FFF74D
:1006B0006DFF012800F2C88094F8442094F843307C
:1006C00043EA0223B3F5007F40F0CA8094F84F302C
:1006D00094F84E5055EA032504D104F15C00FFF76D
:1006E000A2FE054694F8481025624B1E012BA1700E
:1006F00000F2B68094F845901FFA89F36381002BCD
:1007000000F0AE8009F1FF3313EA090F40F0A88032
:1007100094F84A3094F8497047EA03273FB21FFA29
:1007200087F818F00F0FA4F8088040F0998094F82B
:100730004C3094F84B0050EA032003D104F15800E8
:10074000FFF771FE94F8472094F8463053EA0223ED
:1007500000F0868005FB01FC03EB18126244904216
:100760007ED3801A4845B0FBF9F179D350488142D5
:1007700076D84FF6F570814240F28F804FF0030932
:10078000023133443244B9F1030FE1616662A3627E
:10079000226369D194F8632094F8623043EA02231B
:1007A0001F433FB2002F5BD104F16400FFF73BFE13
:1007B000E062890001F2FF11B5EB512F50D34FF0E9
:1007C000FF33C4E90533B9F1030F4FF08003237100
:1007D0002FD194F8692094F8683043EA0223012B62
:1007E00027D1711C2046FFF7AEFE10BB94F83722CC
:1007F00094F83632207143EA02234AF65522934296
:1008000017D104F13800FFF70EFE2A4B984210D1A1
:1008100004F50770FFF707FE274B984209D104F54E
:100820000870FFF700FEA06104F50970FFF7FBFDFB
:100830006061224A84F80090138801339BB21380D0
:10084000E380002503E703200135042D7FF428AF62
:10085000042805D10125FAE60428FBD0012801D996
:100860000D25F4E6002627E7B8F1000FF8D0634421
:10087000B9F1020FE3624FEA41031BBF5B1801F0BD
:100880000101194601EB530194E70B25DFE60C2526
:10089000DDE60F25DBE60325D9E640F6F579494587
:1008A0008CBF4FF002094FF0010969E708030010FF
:1008B000F5FFFF0F52526141727241610C0300104B
:1008C00001292DE9F04705460C46174672D9C36940
:1008D0008B426FD90378022B3FD0032B50D0012BD2
:1008E00068D101EB5108816A01EB5821FFF72BFE1B
:1008F000064638BB05F1380908F1010AC8F30808B3
:1009000014F001041FBF19F8083003F00F023B0177
:1009100003F0F00314BF1343FBB209F80830A96ACF
:100920000123EB7001EB5A212846FFF70CFE064627
:1009300040B9CAF3080A44B1C7F3071709F80A70A7
:100940000123EB703046BDE8F08719F80A30C7F391
:10095000032723F00F031F43F0E7816A01EB142103
:10096000FFF7F1FD06460028ECD1640005F13803DD
:1009700004F4FF741A191F55C7F307275770DFE7F0
:10098000816A01EBD411FFF7DEFD06460028D9D1BC
:10099000A40005F1380304F4FE741C442046FFF75C
:1009A00042FD27F0704700F0704139432046FFF7C1
:1009B00042FDC5E70226C5E70129F8B505460C4604
:1009C00052D9C36999424FD20378022B29D0032B05
:1009D00038D0012B48D101EB5106816A01EB562139
:1009E000FFF7B1FD10B14FF0FF30F8BD771CA96AD9
:1009F000C6F308062E4401EB5721284696F83860C6
:100A0000FFF7A1FD0028EED1C7F308073D44E30737
:100A100095F8380046EA00204CBF0009C0F30B00EF
:100A2000E3E7816A01EB1421FFF78DFD0028DAD19D
:100A30006400383504F4FF742B19285D5B7840EAB4
:100A40000320D2E7816A01EBD411FFF77CFD002877
:100A5000C9D1A40005F1380004F4FE742044FFF766
:100A6000E2FC20F07040C0E70120BEE7B1F5001FB6
:100A7000F8B506460D4601D30220F8BDCA06FBD1E3
:100A8000826804683161CAB92378022B01D9E36A0C
:100A90009BB92389B3EB551FEED9E36AB361B36900
:100AA0007261002BE8D003EB55233834C5F30805F9
:100AB0002C44B361F4610020DFE71A4667897F02A6
:100AC000BD42114604D22046FFF7CBFCB061E6E7F9
:100AD0003068FFF771FF431C024606D00128CBD9CE
:100AE000E3698342C8D9ED1BEAE70120C5E72DE998
:100AF000F041804605680F4649B96E69C6B1EB6999
:100B0000B34298BF0126AB69A3B9002406E028468A
:100B1000FFF752FF0128044603D801242046BDE810
:100B2000F081421C51D0EB698342F7D83E46EAE798
:100B30000126E8E7BE4215D1EB69D8F80000741C25
:100B4000A34298BF02242146FFF736FF0128E4D0D4
:100B5000431C3AD0D8B16B69012B03D9EA6993429F
:100B600038BF1E463446EB690134A34202D8012E39
:100B7000CBD902242146D8F80000FFF71DFF40B171
:100B80000128CAD0013020D0B442ECD1BDE7002CFE
:100B9000E8D04FF0FF3221462846FFF791FE90B98A
:100BA00057B9D5E90632023A93426C6110D92B79D4
:100BB00043F001032B71B1E7224639462846FFF77F
:100BC0007FFE0028EDD00128A7D14FF0FF34A5E724
:100BD000013BAB61EBE7F8B50D46012D0746114629
:100BE00004682BD9E369AB4228D92AB14FF0FF3210
:100BF0002046FFF765FE30B929463868FFF7DCFE6E
:100C0000064608B90020F8BD012817D0431C17D0AC
:100C1000002229462046FFF753FE0028F3D1D4E9ED
:100C20000632911E8B4205D20133A361237943F032
:100C300001032371B2423546DED8E3E70220E2E742
:100C40000120E0E740B1A1F10B03012B04D90F29EA
:100C500002D0006900F087BE704738B50D460446E3
:100C6000F0B10368DBB11A78B2B18188DA889142B9
:100C700012D1186900F06EFE034698B123685878C7
:100C800000F0FEFE10F0010002D124682C6038BD97
:100C900000212068FFF7D6FF09200024F6E71C4654
:100CA0000920F3E70F201C46F0E7F8B5C3780446A7
:100CB0000D46C3B929462046FFF7D3FB04F1380699
:100CC0000746606304F50E723346002103F8011BEA
:100CD0009342FBD1002563899D420AD36089401B62
:100CE00018BF0120F8BDFFF70EFC0028E2D001205C
:100CF000F8E701237A193146607800F0DAFE00281F
:100D0000ECD10135E7E72DE9F8430769056820379D
:100D1000B7F5001F24BF0023836183690446894619
:100D200073B1C7F30808B8F1000F39D14169013335
:100D3000836139B92B89B3EB571F31D80023A361E5
:100D400004200BE06B89013B13EA572328D1284686
:100D5000FFF732FE0128064602D80220BDE8F883DC
:100D6000421C01D10120F9E7EB69834212D8B9F1A5
:100D7000000FE3D061692046FFF7B9FE0646A8B12F
:100D80000128EAD0431CEDD001462846FFF78DFF2D
:100D90000028E7D1666131462846FFF762FBA06173
:100DA000383545442761E5610020D7E70720D5E7BE
:100DB0002DE9F04F002185B00446D0F80080FFF700
:100DC00055FE8146002840F08C804FF0FF334FF0F5
:100DD000FF0AE36257460093A1694046FFF7B3FB61
:100DE000814600287DD1E5692E78002E7DD0EA7AF3
:100DF000E52E02F03F03A37103D0100704D50F2B9B
:100E000004D0009BE36252E00F2B57D194F82B30B3
:100E1000590642D4720648D5236995F80DA0E362BD
:100E200006F0BF066B7B534541D1EA7EAB7E53EAA9
:100E300002233CD12F78D8F80CB007F03F077B1E77
:100E40000D275F432A4B012113F8012BA81815F831
:100E50000290407849EA002959B37F2F039326D89E
:100E6000484600F0B9FD7A1C02903BF81700019249
:100E700000F0B2FD0299814219D1019A039B4946C3
:100E800017461C4A9A42DFD12B785B0603D511B175
:100E90003BF817305BB9013EF7B200212046FFF75F
:100EA00032FF8146002897D01BE0B742BAD0FF2717
:100EB000F3E74FF6FF729145E3D0F8E727B92846EC
:100EC000FFF7DAFA50450CD094F82B9019F001098D
:100ED00097D10B2204F120012846FFF7B4FA00282D
:100EE0008FD1484605B0BDE8F08F4FF00409F8E710
:100EF000A8A30000B5A300002DE9F04F85B003685A
:100F0000019306468A4611F8013B2F2BFAD05C2B41
:100F1000F8D00021B1609AF800301F2B00F2CD808C
:100F20008023304686F82B3005B0BDE8F04FFFF740
:100F30009DBD7F2807D8924A12F8013B1BB1984209
:100F4000FAD106204EE0802DFBD02BF8150001359C
:100F5000B7E033F8022D202A02D02E2A40F0D480A8
:100F6000013DCEE00246D7E0C84505D2AB4249D1AB
:100F7000B9F10B0F3ED102E0B9F10B0F35D144F0BE
:100F800003044FF00B0996F82030E52B04BF05232E
:100F900086F82030B9F1080F04BFBF00FFB207F098
:100FA0000C030C2B03D007F00303032B01D144F0F7
:100FB0000204A50707D4F80748BF44F010047907D6
:100FC00048BF44F0080486F82B403046FFF7F0FE97
:100FD00096F82B3000285FD0042803D113F0040FBB
:100FE00008BF052005B0BDE8F08FAB4202D044F049
:100FF0000304C8D8BF00FFB22B464FF00B094FF0D7
:101000000808B9E07F2812D944F0020240F2B51175
:101010000393029200F0ACFC10F0800FDDE9022394
:101020000FD000F07F005749085C144628B156499C
:1010300011F8012BF2B18242FAD144F003045F208F
:1010400011E0FF28F1D909F1FF31884503D344F0BD
:101050000304C84690E006EB0801040A81F820402A
:1010600008F10108144606EB080208F1010882F8AD
:10107000200081E0A0F1410292B2192A02D847F083
:101080000207F0E7A0F1610292B2192A9EBF203850
:1010900047F0010780B2E6E75A07A3D4B379DB062D
:1010A0006CD5019B03F138013369C3F3080319447C
:1010B000019B1878FFF70DFAB0603368D3F80CB0D5
:1010C00000251AF8010B68B140F2B51100F070FC70
:1010D00000283FF436AF1F2804D92F2802D05C28FF
:1010E0007FF427AF524613782F2B924602F101026C
:1010F000F9D05C2BF7D0202834BF042400240BEB5C
:101100004503002D7FF425AF00220BEB45032BF8A0
:101110001520002D3FF415AF3BF81210202902F1E5
:1011200001003FF41FAF0AB92E2901D144F0030496
:1011300033F8021D2E2901D0013DF9D106F120031B
:1011400006F12B01202003F8010B9942FBD14FF04F
:1011500000084FF0080947463BF81200531C0028CE
:101160003FF411AF202805D02E287FF4FDAEAB420E
:101170003FF4FEAE44F003041A46EDE7052031E7E4
:10118000BFA3000028A30000C8A3000070B5C37867
:101190000446002B45D12378032B39D12379012B29
:1011A00036D104F1380604F50E723346002503F8F3
:1011B000015B9342FBD1552384F83632AA2384F88D
:1011C000373252234122722184F8383084F8393082
:1011D000612384F83A3084F83B2084F81E2284F896
:1011E0001F3284F81C1284F81D1204F50870A169DE
:1011F000FFF721F9616904F50970FFF71CF9626ACC
:101200006078013262630123314600F052FC25719F
:1012100000221146607800F060FC003018BF012009
:1012200003E0FFF770F90028B5D070BD2DE9F04F4D
:1012300090F82B4014F0A00489B0054640F08F8050
:101240000668F26832F81430002B66D105F12007E9
:101250000C22394605A8FFF733F99DF81F30DB074C
:1012600040F186804023DFF8448285F82B304FF030
:10127000010A0B2205A93846D6F80C90FFF720F991
:10128000BAF1050F5AD9A9F10201534631F8022FDC
:10129000002A44D10DF11300072203F00F0C0CF1CA
:1012A0003001392988BF0CF137010F2B00F80119E3
:1012B00002F1FF324FEA131142D808AB13447E21EA
:1012C00003F8141C05F11F0108460023934206D0C1
:1012D00010F801CFBCF1200F03F1010E32D1072A23
:1012E0009CBF08A8801803F1010396BF10F8140CE6
:1012F00020200132072BC854F1D92846FFF758FDAA
:10130000814678BB0AF1010ABAF1640FB1D14FF0FE
:101310000709484609B0BDE8F08F013492E7102074
:1013200002F0010C0CEB430313F4803F18BF83EA77
:10133000080301384FEA5202F2D1A7E75346A9E762
:101340000B46AAE77346C1E7804601212846FFF70E
:10135000DAFC814610B3B9F1040FD8D0D9E74FF0C9
:101360000609D6E70428D4D19DF81F3085F82B3024
:101370009DF81F30D5F800A09B0748BF0C344FF0F4
:101380000001284649BF0D230124B4FBF3F40134C6
:10139000FFF76CFB81460028DDD18046A9695046E5
:1013A000FFF7D1F881460028D5D1EB691B78E52BF2
:1013B00001D0002BC8D108F101084445C5D1013C3A
:1013C00055D029692846A1EB4411FFF74FFB814610
:1013D00000289ED13846FFF74FF84FF6FF7801906E
:1013E000A9693046FFF7AFF88146002891D1EB6933
:1013F000019AD6F80CE05A73E1B24FF00F024FF0A9
:101400000D0CDA72DFF8A8A018734A1E0CFB02F26A
:101410009876D876844640451AF8019B18BF3EF866
:10142000120003F8090003EB090B0CF1010C18BFC3
:1014300001324FEA1029002808BF4046BCF10D0FC9
:101440008BF80190E7D1404502D03EF812200AB94E
:1014500041F0400119700123F37000212846FFF785
:1014600052FC814600287FF454AF013CB8D1A969F1
:101470003046FFF768F8814600287FF44AAFEB69F1
:10148000014603F1200203F8011B9342FBD10B221A
:101490003946E869FFF714F895F82B30EA6903F04C
:1014A000180313730123F37033E700BF2110010009
:1014B000A8A30000F0B585B0CDE9001003A814463C
:1014C0000391FEF7E8FF051E28DB154F57F825604E
:1014D0004EB1306900F039FA18B90224204605B03F
:1014E000F0BD00233370019979B9019B47F825308D
:1014F000002CF3D001A900226846FFF781F80446CA
:1015000001460198FFF79EFBE8E7002301F8103B36
:10151000E8B200F010FA0028E7D1DEE70B24DDE79F
:10152000080300102DE9F041D0B0174601910446A0
:10153000002800F0DB8002F03F052A4602A901A83E
:10154000FFF75EF8064600284BD1029B01990393F2
:101550000FAADA6003A8FFF7CFFC20B99DF9373056
:10156000002BB8BF062017F01C0F00F09F8000284A
:1015700042D0042835D103A8FFF758FE88BB45F0B8
:101580000805029BDDF8288018784146FEF7A1FF88
:10159000074600F0B4FA014608F10E00FEF74BFFD3
:1015A0000A9B02982022DA720A990022FEF79FFF16
:1015B0000A9B00221A775A779A77DA77029B0121E1
:1015C000D97017B3394603A8D3F83480FFF703FB6B
:1015D00038B941460298FEF7B6FF029B013F5F61B2
:1015E00098B100232360064631460298FFF72AFB94
:1015F000304650B0BDE8F0819DF8123013F0110F65
:101600005ED178076CD43907BBD4DDF808800A9F17
:10161000D8F834302362676298F800002907394609
:1016200048BF45F04005FEF754FFA06007F11C00DD
:10163000FEF7F9FEB8F80630A38004F1280700236E
:10164000E060C4F8008025746374E361636104F5AD
:101650000A713A4602F8013B9142FBD1AA06C3D572
:10166000E568002DC0D0B8F80A80A16865614FEA2E
:101670004828A84526D30020A1610028B1D1C5F390
:101680000803002BB0D0DDF808804046FEF7E9FEE5
:1016900050B300EB5522E2610123394698F801006E
:1016A00000F0F3F900289FD001209AE7002898D194
:1016B0009DF81230DA0615D4BF07A6D5D807A4D5F1
:1016C00007208EE72068FFF777F901280146A5EB90
:1016D000080503D9431CCCD10120CDE70220CBE77C
:1016E00008207EE704207CE702207AE709267FE7CE
:1016F0002DE9F04F9B4685B000238946CBF800309A
:1017000003A904461646FFF7A8FA054608B9657C02
:1017100025B129460398FFF795FA08E0257C15F0D6
:10172000010508D107210398FFF78CFA0725284601
:1017300005B0BDE8F08FE3686769DF1BB74204F1CD
:10174000280328BF374600932FB939460398FFF77F
:1017500079FA3D46EBE76269C2F30803002B76D1C4
:10176000039B5B89013B13EA522313D12AB9A0687A
:10177000012809D802256574CBE7A1692068019387
:10178000FFF71AF9019BF3E7421C02D101216174B2
:10179000C0E7A061DDF80CA0A16901935046FEF7F7
:1017A00060FE019B20B90225657429465046B2E7C8
:1017B000B7F5007F03EB00082BD37E0ABAF80A20A6
:1017C0009AF801009919914288BFD61A33464246C9
:1017D000494600F05AF90028D8D194F91030002B6E
:1017E0000BDAE069A0EB0800B04206D24FF40072B9
:1017F000009909EB4020FEF763FE7602DBF800302B
:101800003344CBF800306369BF1BB1441E446661AA
:101810009AE7E269424518D094F91030002B0BDAB0
:10182000012300999AF8010000F043F90028ADD196
:10183000237C03F07F0323740398009940780123ED
:10184000424600F022F90028A0D1C4F81C8061694A
:10185000009BC1F30801C1F50076BE4228BF3E4699
:10186000324619444846FEF72BFEC7E7F7B501A9F3
:101870000446FFF7F2F90546002843D1237C13F014
:1018800040053FD01B0614D50198E269407801233A
:1018900004F1280100F00DF938B101210198FFF79A
:1018A000D1F90125284603B0F0BD237C03F07F0366
:1018B000237400F024F9216A07460198FEF743FEDD
:1018C0000546F8B9666AF37A43F02003F372A2681A
:1018D00020683146FEF70BFEE16806F11C00FEF7BA
:1018E000AAFD394606F11600FEF7A5FD0198B5746C
:1018F0000123F574C370FFF749FC237C23F04003F8
:101900000546237429460198FFF79CF9CAE737B5C5
:101910000546FFF7ABFF044650B901A92846FFF77B
:101920009CF9044620B9286001460198FFF78AF91E
:10193000204603B030BD10B501200C4601F047FB36
:101940002060003018BF012010BD08B501F0AEFDC9
:10195000012008BD08B540F6B83101F099FC431EDE
:101960005842584108BD00231A46194601F06CBA86
:101970007F2810B501D880B210BDB0F5803F13D2DA
:1019800040F2B51399420FD10849002231F8024BB9
:10199000844293B203D103F18000C0B2ECE701327C
:1019A000802AF3D11346F6E70020E5E77EA6000083
:1019B0007F280DD940F2B513994208D1FF2806D8E7
:1019C00000F10040034B803833F8100070470020CE
:1019D000704700BF7EA60000B0F5803FF0B521D271
:1019E0001E4A1F4983B2B0F5805F28BF0A46141D06
:1019F00034F8042C2146A2B1934212D334F8025C8D
:101A00002E0AEDB2AF18B84222DA082E09D8DFE864
:101A100006F0050A10121416181A1C00801A34F861
:101A200010301846F0BD981A00F001001B1A9BB246
:101A3000F7E7103BFBE7203BF9E7303BF7E71A3BC2
:101A4000F5E70833F3E7503BF1E7A3F5E353EEE79F
:101A50000434002ECCD101EB4502C8E7D0A300002E
:101A6000C2A5000010B5044600F06AFC34B900F0CD
:101A70000FF9044600F07EFC204610BD0424F9E76F
:101A800008B900F0A3B904207047F8B507460C4622
:101A900015461E4600F054FC4FB92046F2B22946C6
:101AA00000F09CF9044600F065FC2046F8BD0424D3
:101AB000F9E7F8B507460C4615461E4600F040FC0F
:101AC0004FB92046F2B2294600F0CEF9044600F0A4
:101AD00051FC2046F8BD0424F9E770B506460C46D3
:101AE000154600F02DFC46B92046294600F010FAB4
:101AF000044600F03FFC204670BD0424F9E70020B6
:101B0000704738B500F086FC00F5FA75FF2002F04A
:101B10005FFEFF2002F05CFEFF28044603D000F0C9
:101B200079FC8542F5D8204638BDFFFF08B502F0A4
:101B300057FAFFF7E6FF02F05BFA034A137843F027
:101B40000103137008BD00BF0800001038B505463A
:101B50000C46FFF7D6FFFF2821D1204602F038FEC1
:101B6000FD2C1ED0AC1C05F2022514F8020C02F06C
:101B70002FFE023414F8030C02F02AFEAC42F4D11A
:101B8000FF2002F025FEFF2002F022FEFF2002F0DF
:101B90001FFE00F01F00431F5842584138BD00206F
:101BA000FCE70120FAE737B5020604460D4607D5E3
:101BB00000217720FFF7F7FF012831D804F07F04D8
:101BC00002F016FA02F00CFAFFF79BFFFF282BD168
:101BD000402C27D0482C0CBF872301232A0E8DF8D8
:101BE00001202A0C8DF8022006212A0A68468DF869
:101BF00000408DF803208DF804508DF8053002F078
:101C0000F1FD4C2C02D1FF2002F0E2FD0A24FF205E
:101C100002F0DEFD030603D5013C14F0FF04F6D10B
:101C200003B030BD9523D9E7FF20F9E770B505462D
:101C300000F0F0FB00F16406FF2002F0C9FD04464D
:101C400000F0E8FB864201D3FF2CF5D0FE2C0CD12E
:101C50004FF40071284602F0C8FDFF2002F0B8FDE5
:101C6000FF2002F0B5FD012070BD0020FCE7FFFF62
:101C700038B5064D2C78E4B202F0C2F918B104F080
:101C8000FD042C7038BD44F00304FAE7080000108E
:101C90002DE9F341FFF7ECFF4A4B1A7812F0020FDF
:101CA0001E4604D01878C0B202B0BDE8F081C8204A
:101CB00002F056FD0A25FF20013D02F089FD15F0D6
:101CC000FF05F8D102F08CF929464020FFF76BFFA1
:101CD0000128044671D100F09DFB4FF4D57100F549
:101CE0007A774820FFF75FFF012848D101ADA84669
:101CF0000424FF2002F06CFD013C14F0FF0408F8FE
:101D0000010BF6D19DF80630012B56D19DF8073016
:101D1000AA2B52D100F07EFB874206D94FF08041BA
:101D2000E920FFF740FF0028F4D100F073FB874261
:101D300043D900217A20FFF736FF00283DD1042443
:101D4000FF2002F045FD013C14F0FF0405F8010BF3
:101D5000F6D19DF8043013F0400F14BF0C24042476
:101D6000194B1C7002F044F94CB3337845F6C0505F
:101D700003F0FE03337002F0F3FC307893E729465A
:101D8000E920FFF710FF022836BFE925412502248C
:101D900000F040FB874205D900212846FFF703FFEA
:101DA0000028F5D100F036FB874206D84FF40071C9
:101DB0005020FFF7F8FE0028D2D00024D0E7FFF72C
:101DC000B5FEDAE7080000100E03001008B5FFF7B3
:101DD0004FFF014B187808BD0800001070B514467D
:101DE00005460E46FFF744FF002C35D01C4B1B78F0
:101DF000DA0733D402F0F4F81A4B1B781B0758BFEC
:101E00007602012C314611D15120FFF7CCFE38B9B2
:101E10004FF400712846FFF709FFB0FA80F4640917
:101E200002F0E6F8201C18BF012070BD5220FFF719
:101E3000BAFE0028F4D14FF400712846FFF7F6FEF1
:101E400028B1013C14F0FF0405F50075F3D1002121
:101E50004C20FFF7A8FEE3E70420E6E70320E4E7D1
:101E6000080000100E03001070B5144605460E461B
:101E7000FFF7FEFE002C41D0234B1A78D0073FD449
:101E80001B7859073ED402F0ABF8204B1B781A0799
:101E900058BF7602012C11D131465820FFF783FE3E
:101EA00050BBFE212846FFF751FEB0FA80F46409CA
:101EB00002F09EF8201C18BF012070BD13F0060F21
:101EC00003D02146D720FFF76EFE31465920FFF799
:101ED0006AFE0028ECD1FC212846FFF737FE28B126
:101EE000013C14F0FF0405F50075F4D1FD2100203C
:101EF000FFF72CFE0028DBD10124D9E70420DCE722
:101F00000320DAE70220D8E7080000100E030010D3
:101F10007FB506460D46FFF7ABFE052E15D12C7892
:101F2000012C10D02CB1022C0AD00424204604B07D
:101F300070BD02F065F80028F8D0FFF7F7FDF5E76F
:101F400002F05EF868700024F0E76F4B1C7814F024
:101F5000010440F0D7800E2E00F2D280DFE806F0B8
:101F600008134E52D0D0D0D0D0D09DA1B0B3C40071
:101F700002F036F8FFF7C5FDB0F1FF0418BF0124E9
:101F800002F036F8D2E700214920FFF70CFE0446A4
:101F900008B10124F4E710216846FFF747FE002846
:101FA000F7D09DF800309DF808109B09012B9DF893
:101FB000093006D15A1C02EB012292B292022A6029
:101FC000DEE79DF807209DF80A00920002EB9112CF
:101FD0009DF80610890201F4406101320A449DF81F
:101FE00005105B0001F00F0101EBD01103F00603B7
:101FF0000B44073B02FA03F32B60C1E74FF4007375
:102000002B80BDE7414E317811F004011CD0002136
:10201000CD20FFF7C8FD0028BBD1FF2002F0D8FB80
:1020200010216846FFF702FE0028B2D03024FF20BE
:10203000013C02F0CDFB14F0FF04F8D19DF80A300A
:102040001A0910239340D7E74920FFF7ACFD044657
:1020500000289ED110216846FFF7E8FD002898D09F
:1020600032789DF80A309DF80B1092070AD55B0074
:102070009DF80D2003F07E0303EBD1139209013389
:10208000013ADFE7CA0002F01802C3F3840302EB4F
:102090005112013302FB0333AEE71C4B1B782B704C
:1020A0006EE700214920FFF77EFD00287FF471AF25
:1020B00010212846FFF7BAFDB0FA80F464095FE703
:1020C00000214A20EFE700217A20FFF76CFD04464B
:1020D00000287FF45EAF2E1DFF2002F079FB05F88B
:1020E000010BAE42F8D14BE70021CD20FFF75BFD9D
:1020F00000287FF44EAFFF2002F06AFB4021D8E7B2
:1021000004243DE7032411E7080000100E0300102B
:1021100008B5064604F064FC00240546A54200DC30
:10212000FEE7315D002002F04FFC0134F6E7FFFFCF
:1021300002280CD9074B1B685A68824207D09A685C
:10214000824204D0DB681B1A584258417047012074
:10215000704700BF34010010F8B504460E4615461E
:10216000FFF7E6FF48B3164B1B68DB68A34210D0AD
:10217000A31E5C425C4101F083FD0746002002F093
:10218000D9FB022F17D1B0B1ACB9A54203DC284668
:10219000F8BD0124EFE7315D4FF0FF32002002F07F
:1021A0007BFC0134F1E7315D002002F00DFC0134CD
:1021B000A542F8DCEBE70024FAE70248FFF7A8FFA6
:1021C00034010010B0A7000008B5FFF7B1FF18B147
:1021D000002002F035FC08BD0148FFF799FF00BF61
:1021E0007EA70000F8B504460D4600F0FDF806197C
:1021F00041EB050701F044FD02280CD100234FF408
:102200007A72AB4208BFA24205D22046294603F0AB
:1022100073F801F00FFC00F0E7F8B94208BFB042D4
:10222000F9D3F8BD4FF47A73A0FB0301FFF7DABFCF
:1022300030B585B001F054FE01F0ECFEADF80800B9
:1022400001F0FAFEADF80A0001F008FFADF80C004D
:1022500001F016FF0024ADF80E0004AA04F00303F9
:1022600002EB4303013433F8080C01F0C7FF3220BE
:10227000FFF7D8FF202CF0D145F6C05002F086FAC7
:10228000002223492348FFF715F9234B1868002340
:1022900019460222406804F0BBFAFDF7C3FF00258F
:1022A00001464FF4E132002002F004FB00951B4B85
:1022B0001B4A0121204600F057FD1A4B00950446A9
:1022C000194A0121802000F04FFD22460146284690
:1022D00002F03CFB154A16491648174D04F070FAF7
:1022E000FDF7A0FF15490246022002F0C1F80224C2
:1022F000E1B2022002F07CF918B12146284604F030
:102300005FFA0234B4F5807FF2D105B030BD00BF72
:10231000BDA0000080030010340100103003001045
:102320000F03001038060010B8050010E3A70000E6
:10233000F4A7000045A8000062A80000801A06006B
:1023400010B50A4C236823B90949012000F02AFE80
:10235000206001F095FC022806D120684FF0FF3183
:10236000BDE8104000F094BF10BD00BF880600100B
:102370008C06001010B501F083FC022808D1054836
:1023800000231A4619460068BDE8104000F05CBD05
:1023900010BD00BF88060010074A08B51368002169
:1023A00001330846136001F085FF00210846BDE8AF
:1023B000084001F06DBF00BFDC06001008B5074AF9
:1023C0000749B0FBF1F10020013901F02BFF00219A
:1023D000044A0846BDE8084001F048BF99230000C0
:1023E00040420F000087930370B5084E002001F0B3
:1023F00059FF05460020346801F054FF8542F5D8A6
:10240000034B0021E3FB040170BD00BFDC0600109C
:102410000087930308B5FFF7E7FF4FF47A720023B4
:1024200002F06AFF08BD70B5054608460C4604F088
:10243000D7FA2618B44205D128460A21BDE87040D3
:1024400002F0C2BA14F8011B284602F0BDFAF1E707
:102450002DE9F0411A4C07462379607943EA0020C0
:10246000884607F1200601F0BBFEC7F1FF2707F5FC
:102470007F07E037BB19984507DC23796079BDE811
:10248000F04143EA002001F09DBEA378E07843EAE2
:10249000002001F083FE0028F7D0A6F1200515F8F2
:1024A000010B00F06DF9B542F9D1A378E07843EA69
:1024B000002001F073FE0028F7D02036DAE700BFD5
:1024C000480A00102DE9F041174C80460F0ACDB2A2
:1024D0002646A378E07843EA002001F05FFE00285A
:1024E000F7D0A379E07943EA002001F079FE0220D9
:1024F00000F046F9404600F043F9384600F040F954
:10250000284600F03DF9A379E07943EA002001F084
:1025100059FEB378F07843EA002001F03FFE00282E
:10252000F7D0BDE8F08100BF480A001010B50C4C90
:102530006420FFF777FE2378607843EA002001F0FB
:102540004FFE6420FFF76EFE2378607843EA002098
:1025500001F038FE6420BDE81040FFF763BE00BF05
:10256000480A001010B5182000F0F4F809210220E4
:1025700001F006FE364C00B220700221C0F30720A5
:102580006070084601F0DCFD00B2A070C0F30720C7
:10259000E0700021022001F0F3FD00B22071C0F3D1
:1025A000072060710721022001F0EAFD00B2A0714E
:1025B000C0F30720E07104220021012001F08AFD10
:1025C00000B220720121C0F3072060720422084685
:1025D00001F080FD00B204222073C0F307201146F1
:1025E0006073012001F076FD00B2A072C0F30720F5
:1025F000A379E072E07943EA002001F0E3FD23795A
:10260000607943EA002001F0DDFD2378607843EA39
:10261000002001F0D7FDFFF789FF43F638010B20BA
:10262000FFF750FF0A20FFF7FDFD4FF46041032044
:10263000FFF748FF0A20FFF7F5FD022040F60601EC
:10264000FFF740FF0A20BDE81040FFF7EBBD00BFD9
:10265000480A001000B5ADF2344DFFF783FF4FF488
:10266000007301221049019382A8FEF75BFF98B91D
:1026700001AB4FF4007202A982A8FFF739F820B924
:102680004FF4007102A8FFF7E3FE019BB3F5007F52
:10269000EED082A8FFF73BF901F082F84FF0FF304F
:1026A0000DF2344D5DF804FB89A800000C460020B3
:1026B000044908B5FFF7B7FE21460020FFF7B3FE37
:1026C000FEE700BFC1A9000008B502490020FFF7DE
:1026D000AAFEFEE787A90000024B0022C3F8C02033
:1026E00030BF704700C00F4008B50C4600200A49B3
:1026F000FFF799FE09490020FFF795FE08490020E1
:10270000FFF791FE07490020FFF78DFE21460020CC
:10271000FFF789FEFEE700BF8FA80000E1A80000D8
:1027200024A9000058A90000034B0360034B0B6071
:1027300064231360704700BF78080010E80600109B
:1027400008B5FFF751FE024B1B68C01A08BD00BF59
:10275000E006001038B50546084C242001F07CFF47
:1027600007232360FDF75AFD0223B0FBF3F2AA42D0
:1027700001D8236138BD0233DBB2F6E700C00A405E
:10278000034B9860DA68D206FCD49868C0B27047F0
:1027900000C00A4008B501F087FB00F069F8BDE809
:1027A000084001F095BB08B501F07EFB00F0A8F8E9
:1027B000BDE8084001F08CBB08B501F075FB00F0E6
:1027C000D1F8BDE8084001F083BBFFFF084800686E
:1027D000006880F308884FF0000080F3148862B628
:1027E00061B6BFF34F8FBFF36F8F00DF00BF0000F4
:1027F00008ED00E0DFF80C00016841F470010160B1
:102800007047000088ED00E007B5002301930B4BF3
:102810001B68013304D00A49EF20FFF765FFFEE78C
:102820004FF0180383F31188BFF36F8FBFF34F8FFF
:10283000019B002BFCD003B05DF804FBDC0800100A
:10284000DEA900004FF0807340F8043C074B40F8CD
:102850000C3C21F001016FF0020340F8081C40F825
:10286000202C40F8243C4438704700BF0928000061
:10287000074B19680868B0E8F04F80F30988BFF388
:102880006F8F4FF0000080F311887047AFF3008026
:10289000E008001008B54FF0180383F31188BFF368
:1028A0006F8FBFF34F8F094A13680133012B1360F9
:1028B0000AD1074B1B6813F0FF0F05D0054940F202
:1028C000AB10FFF711FFFEE708BD00BFDC080010EA
:1028D00004ED00E0F8A90000074A08B513682BB919
:1028E00006494FF4D970FFF7FFFEFEE7013B136086
:1028F0000BB983F3118808BDDC0800102DAA000075
:10290000EFF30980BFF36F8F154B1A681EF0100F9D
:1029100008BF20ED108A20E9F04F10602DE9090072
:102920004FF0180080F31188BFF34F8FBFF36F8F04
:1029300001F0A4F84FF0000080F3118809BC196879
:102940000868B0E8F04F1EF0100F08BFB0EC108A16
:1029500080F30988BFF36F8F704700BFAFF300802B
:10296000E008001008B54FF0180383F31188BFF397
:102970006F8FBFF34F8F00F055FF18B1034B4FF02F
:1029800080521A60002383F3118808BD04ED00E033
:1029900010B5084A084C002323601360FDF73EFC85
:1029A0004FF47A73B0FBF3F0044B0138186007233F
:1029B000236010BD18E000E010E000E014E000E04B
:1029C000334B344A13B51968914205D132494FF45B
:1029D0009A70FFF789FEFEE71A68304B9A4205D1DC
:1029E0002F4940F23510FFF77FFEFEE72D4B1A7896
:1029F000D2B20192FF221A701B782B4ADBB28DF8FB
:102A000003309DF8033003F018031370274A07239F
:102A1000136000219DF80300000603F1FF3409D480
:102A200011B1022B13600ED0214940F25D10FFF767
:102A30005BFEFEE79DF803305B00DBB28DF80330F0
:102A400001212346E6E74FF400731360019B154A0A
:102A5000DBB21370174B1A6842F478021A601A68D6
:102A600042F078421A60FFF793FF134B00241C607A
:102A7000FFF7C0FE114A136843F040431360FFF7AD
:102A8000A5FE00F0FBFFFFF7BFFE204602B010BD21
:102A900000ED00E071C20F41ABAA000070C20F410F
:102AA000CEAA000000E400E0D4080010D80800100E
:102AB000F1AA000020ED00E0DC08001034EF00E097
:102AC00008B5EFF305830F2B0BD90D4A9B5C0D4A1C
:102AD00012789A4205D90C4940F2FE20FFF704FE15
:102AE000FEE70A4B0A4A1B68126803F4E06393424C
:102AF00005D9084940F20E30FFF7F6FDFEE708BDA4
:102B0000F0E300E0D40800103FAA00000CED00E064
:102B1000D808001069AA000010B5044600F07AFE3B
:102B2000204602F0EFFD044600F00EFF0CB9FFF75F
:102B3000CBFD204610BD10B5044640B100F06AFE42
:102B4000204602F0E7FDBDE8104000F0FDBE10BDDC
:102B500000F108034FF0FF324360C0E90223036134
:102B600000230360704700230361704743684B6094
:102B70009A688A609A6851609960036808610133B5
:102B8000036070470A68531C30B50AD103695A685C
:102B90004A6091608B60596003680861013303608B
:102BA00030BD00F108035C6825689542EFD82346E4
:102BB000F9E7D0E9011203698A60516059688142DE
:102BC00008BF5A60002202611A68013A1A60186848
:102BD000704710B50446FFF75DFEA46BFFF77CFE5F
:102BE000B4FA84F0400910BDF8B51546026C866B46
:102BF000044652B9076847BB806801F0A3F8A76094
:102C000005460136A6632846F8BD65B9406802F05E
:102C100089FD6368226C1344A26863609342F0D319
:102C200023686360EDE7C06802F07CFD236CE26816
:102C300021685B421A448A42E2603EBFA2689B1848
:102C4000E360022D01D116B1013E0025D9E73546DA
:102C5000D7E7034610B41A6C084662B1D9689C687D
:102C60001144A142D96024BF1968D960D9685DF8C0
:102C7000044B02F057BD5DF8044B704770B5044635
:102C8000FFF708FE94F8455004F124066DB2002DBC
:102C900014DCFF2384F84530FFF71EFEFFF7FAFD32
:102CA00094F8445004F110066DB2002D12DCFF239D
:102CB00084F84430BDE87040FFF70EBE636A002B15
:102CC000E7D0304600F050FF08B100F0D3FF013DDF
:102CD0006DB2DCE72369002BE9D0304600F044FFF9
:102CE00008B100F0C7FF013D6DB2DEE738B50D4613
:102CF000044628B91A4940F20310FFF7F5FCFEE735
:102D0000FFF7C8FDD4E90F30226862604343D11851
:102D10001B1A1344A160E3600021FF23A16384F820
:102D2000443084F8453095B9236963B104F110004B
:102D300000F01AFF38B10B4B4FF080521A60BFF30E
:102D40004F8FBFF36F8FFFF7C7FD012038BD04F130
:102D50001000FFF7FDFE04F12400FFF7F9FEF2E793
:102D6000F7AB000004ED00E013B51C4628B91E497E
:102D70004FF49D70FFF7B8FCFEE72BB91B494FF4E9
:102D80009F70FFF7B1FCFEE732B161B918494FF40B
:102D9000A170FFF7A9FCFEE729B1164940F24310E4
:102DA000FFF7A2FCFEE750230193019B502B05D0B7
:102DB000114940F24B10FFF797FCFEE7002908BFCE
:102DC0002246019B22600123C4E90F0184F84630AA
:102DD00019462046FFF78AFF9DF8103084F84C30E2
:102DE000204602B010BD00BF34AB000056AB00005F
:102DF0006CAB0000A4AB0000DCAB0000F8B50D46E6
:102E00001746064628B90F494FF4BB70FFF76CFC14
:102E1000FEE748435030FFF77FFE044670B10023C1
:102E200080F8463065B100F150032360C4E90F65B6
:102E300001212046FFF75AFF84F84C702046F8BD68
:102E40000346F2E734AB00002DE9FF4788460192C4
:102E50001F46044628B94E4940F2F120FFF744FCD2
:102E6000FEE739B9036C2BB14A4940F2F220FFF773
:102E70003BFCFEE7022F08D1E36B012B05D046494E
:102E800040F2F320FFF730FCFEE700F0F9FE0646C3
:102E900038B9019B33B1414940F2F620FFF724FCD9
:102EA000FEE700264FF00009DFF8F4A037E0019DAF
:102EB0001DB9FFF711FD002050E016B902A800F07F
:102EC00093FEFFF709FD00F0A5FCFFF7E3FC94F883
:102ED0004430FF2B08BF84F8449094F84530FF2B12
:102EE00008BF84F84590FFF7F7FC01A902A800F09D
:102EF00087FE002846D1FFF7CDFCA26BE36B9A4218
:102F00002FD1FFF7E9FC019904F1100000F014FE45
:102F10002046FFF7B3FE00F017FD50B30126FFF780
:102F2000B9FCA26BE36B9A4201D3022FBFD13A46A0
:102F300041462046FFF758FE636A1BB104F12400A6
:102F400000F012FE38B1164B4FF080521A60BFF3FA
:102F50004F8FBFF36F8FFFF7BFFC012004B0BDE8B8
:102F6000F087FFF7B9FC2046FFF788FE00F0ECFC85
:102F7000D4E74FF08053CAF80030BFF34F8FBFF350
:102F80006F8FCBE72046FFF779FE00F0DDFC92E77C
:102F9000F7AB0000FFAB00004FAC000096AC0000A8
:102FA00004ED00E013B5002200900B46012011460D
:102FB000FFF7DAFE044638B1002383600360C36084
:102FC0001A461946FFF740FF204602B010BD10B563
:102FD000024600210120FFF711FF044638B100230B
:102FE00083600360C3601A461946FFF72DFF204631
:102FF00010BDFFFF2DE9F843894690461F46044661
:1030000028B9284940F2C330FFF76EFBFEE739B913
:10301000036C2BB124494FF47170FFF765FBFEE799
:10302000022F08D1E36B012B05D0204940F2C530B7
:10303000FFF75AFBFEE7FFF743FDEFF311864FF072
:10304000180383F31188BFF36F8FBFF34F8FA26B09
:10305000E36B9A4201D3022F22D194F845503A46AD
:103060006DB249462046FFF7BFFD6B1C13D1636A62
:103070000BB901200BE004F1240000F075FD0028DD
:10308000F7D0B8F1000FF4D00120C8F8000086F3A3
:103090001188BDE8F88301356DB284F84550E8E742
:1030A0000020F4E7F7AB0000FFAB00004FAC0000DE
:1030B00070B50D46044628B923494FF48C60FFF7DC
:1030C00013FBFEE7036C2BB1204940F26440FFF78D
:1030D0000BFBFEE703683BB983682BB11C4940F248
:1030E0006940FFF701FBFEE7FFF7EAFCEFF311860B
:1030F0004FF0180383F31188BFF36F8FBFF34F8F27
:10310000A26BE36B93421CD994F8453001325BB259
:10311000A2635A1C10D1636A0BB9012009E004F1C3
:10312000240000F021FD0028F7D0002DF5D001206B
:10313000286086F3118870BD01335BB284F8453096
:10314000EBE70020F5E700BFF7AB0000ECAC0000B8
:1031500005AD00002DE9F04385B00F46019204460D
:1031600028B947494FF4A060FFF7BEFAFEE739B926
:10317000036C2BB1434940F20450FFF7B5FAFEE768
:1031800000F07EFD064638B9019B33B13E4940F25E
:103190000950FFF7A9FAFEE700264FF00008DFF814
:1031A000EC903BE0019D1DB9FFF796FB002052E03B
:1031B00016B902A800F018FDFFF78EFB00F02AFBFD
:1031C000FFF768FB94F84430FF2B08BF84F8448075
:1031D00094F84530FF2B08BF84F84580FFF77CFB4F
:1031E00001A902A800F00CFD00283DD12046FFF700
:1031F000F0FC98B3019904F1240000F09DFC2046F6
:10320000FFF73CFD00F0A0FB38B94FF08053C9F840
:103210000030BFF34F8FBFF36F8F0126FFF73AFBEC
:10322000A56B002DBED039462046013DFFF711FDAC
:10323000A563236963B104F1100000F095FC38B177
:10324000124B4FF080521A60BFF34F8FBFF36F8F56
:10325000FFF742FB012005B0BDE8F0832046FFF7F1
:103260000DFD00F071FBD8E72046FFF707FD00F0E9
:103270006BFB2046FFF7ADFC0028CED096E700BFE1
:103280006CAD000078AD000096AC000004ED00E0ED
:103290002DE9FF410446019128B9584940F2915067
:1032A000FFF722FAFEE7056C2DB1554940F2955023
:1032B000FFF71AFAFEE700F0E3FC064638B9019B77
:1032C00053B1504940F29A50FFF70EFAFEE72E46EE
:1032D0000027DFF838814EE00546F9E7019B4BB93E
:1032E0002DB1494940F2E150FFF7FEF9FEE7FFF743
:1032F000F3FA5EE016B902A800F076FCFFF7ECFAEC
:1033000000F088FAFFF7C6FA94F84430FF2B08BFA4
:1033100084F8447094F84530FF2B08BF84F845705A
:10332000FFF7DAFA01A902A800F06AFC00284AD1E6
:103330002046FFF74EFC00283FD023683BB9FFF73B
:10334000A9FAA06800F0ACFC0546FFF7C5FA0199A0
:1033500004F1240000F0F0FB2046FFF78FFC00F0A2
:10336000F3FA38B94FF08053C8F80030BFF34F8FED
:10337000BFF36F8F0126FFF78DFAA36B002BADD043
:10338000013BA363236813B900F082FDA0602369A9
:1033900063B104F1100000F0E7FB38B11B4B4FF0B4
:1033A00080521A60BFF34F8FBFF36F8FFFF794FA0D
:1033B0000125284604B0BDE8F0812046FFF75EFCF9
:1033C00000F0C2FAD6E72046FFF758FC00F0BCFA3E
:1033D0002046FFF7FEFB0028CCD0002DE9D0FFF7F8
:1033E00059FA616A19B1236B1968C1F10A01A06821
:1033F00000F0F6FC0025FFF76FFADAE76CAD00008D
:10340000ECAC000096AC000016AE000004ED00E04D
:103410002DE9F84389469046054628B9214940F2EE
:10342000FB60FFF761F9FEE739B9036C2BB11E4968
:1034300040F2FC60FFF758F9FEE7FFF741FBEFF3BE
:1034400011874FF0180383F31188BFF36F8FBFF319
:103450004F8FAC6B1CB395F84460494676B2284652
:10346000FFF7F7FB013C731CAC6313D12B690BB95D
:1034700001200BE005F1100000F076FB0028F7D0EA
:10348000B8F1000FF4D00120C8F8000087F31188CC
:10349000BDE8F883013676B285F84460E8E7204657
:1034A000F4E700BFF7AB0000CBAD000008B528B9CA
:1034B000064940F2B770FFF717F9FEE790F846307B
:1034C0001BB9BDE80840FFF736BB08BDF7AB0000ED
:1034D0002DE9F0410446FFF7DDF92D4B2D4D1A681B
:1034E0002D4F01321A602E68002E46D12C601B68C9
:1034F000012B1CD1B84640460136FFF729FB0A2EA6
:1035000008F11408F7D1DFF8B880244E4046FFF7E1
:103510001FFB3046FFF71CFB2148FFF719FB214832
:10352000FFF716FB204BC3F80080204B1E60204A9B
:1035300020491368086801331360E26A2364012399
:103540009340034314200B6000FB0270211DFFF722
:103550000DFBFFF7C1F9184B1B6863B12B68DA6AE2
:10356000E36A9A4207D2154B4FF080521A60BFF3BC
:103570004F8FBFF36F8FBDE8F0810F4B1B68002B9F
:10358000D5D12B68DA6AE36A9A4298BF2C60CEE7FD
:10359000B8090010E0080010EC080010E009001065
:1035A000000A0010180A0010E4080010E8080010D3
:1035B000C4090010C8090010140A001004ED00E04E
:1035C000CC09001008B5074C074D4FF08056236812
:1035D000012B04D92E60BFF34F8FBFF36F8FFFF71E
:1035E0007BF8F4E7EC08001004ED00E0064A1368ED
:1035F0001968064B19B94FF0FF321A60704712680C
:10360000D268D2685268F8E7E4080010F8090010A0
:103610002DE9F047DDE909644FEA82094A46074689
:103620000D46206BA521984602F0A4F8236BA9F162
:103630000409994429F007099DB36B1E04F1340273
:103640000B3513F8011F02F8011B09B1AB42F8D189
:10365000002384F83F30089D092D28BF09254FF02D
:10366000000AE562A564201DC4F84CA0FFF77BFAB0
:10367000C5F10A0504F11800FFF775FAC4F854A063
:103680002461A5616462C4F850A084F858A0424641
:1036900039464846FFF7D6F8206006B13460BDE8E9
:1036A000F08784F83450D6E7F8B51B4B1B4E1C68E6
:1036B0000546306804300F46FFF77BFA334640B9C1
:1036C0003168174EC96A32680120884022EA000238
:1036D00032606A1C07D137B1196812480431BDE85D
:1036E000F840FFF743BA1A686419546007D30E4ACA
:1036F00010681968BDE8F8400431FFF743BA0B4A77
:10370000106819680431FFF73DFA094B1A68A242A4
:1037100088BF1C60F8BD00BF2C0A0010E008001034
:10372000C8090010180A0010E8080010E40800108A
:10373000F809001070B586B0DDE90B542DB91549B4
:1037400040F24D20FEF7D0FFFEE72CB9124940F2BF
:103750004E20FEF7C9FFFEE75C260596059E5C2E0F
:1037600005D00E4940F25620FEF7BEFFFEE7256366
:10377000022584F8595004AD01950A9D02940095E4
:10378000059EFFF745FF2046FFF7A2FE049806B00E
:1037900070BD00BF01AF000018AF00002DAF0000EA
:1037A00010B588B0002407AA06A905A8CDE90544EC
:1037B000FEF7BAFF059B0293069B079A0F49104834
:1037C000CDE900432346FFF7B5FF0E4B186090B1DB
:1037D0004FF0180383F31188BFF36F8FBFF34F8F40
:1037E000094B4FF0FF321A60084B01221A60084B58
:1037F0001C60FFF7E5F808B010BD00BFA7AE0000E1
:10380000C5350000F4090010F8090010140A001072
:103810002C0A0010024A136801331360704700BF7E
:10382000C00900102DE9F84F3B4B1B68002B6BD1F2
:103830003A4B1C6801341C60A4B9394B1A681268F1
:103840002AB1384940F67F20FEF74EFFFEE7364AA0
:103850001968106818601160344A136801331360E6
:10386000FFF7C4FE324D334F2B68A3424FF0000BDD
:1038700011D93A68304BD16A14224A439A58022A25
:1038800028BF4FF0010B2D4A1268002A0CBF584682
:103890000120BDE8F88FDFF888A0DFF8A890DAF8FB
:1038A000002012681AB94FF0FF322A60E1E7DAF817
:1038B0000020D268D66871688C4201D22960D8E7AE
:1038C00006F104084046FFF774F9B16A19B106F130
:1038D0001800FFF76EF9F06AD9F80030012202FAF9
:1038E00000F11943144BC9F800104FF0140C414675
:1038F0000CFB0030FFF73AF93868F16AC26A91426E
:1039000028BF4FF0010BCAE70D4A1368013313605B
:103910004FF0000BB7E700BFC00900102C0A0010E1
:10392000E408001046AF0000E8080010FC09001091
:10393000F8090010E0080010EC080010300A001030
:10394000BC090010C80900102DE9F8432F4C23686A
:103950002BB92F4940F68500FEF7C6FEFEE7FEF7BD
:1039600099FF2368013B236024682CB10024FEF7F3
:10397000B3FF2046BDE8F883264B1B68002BF5D02B
:10398000254D264EDFF8A8801FE0EB68DC6804F1C7
:10399000040904F11800FFF70CF94846FFF709F98C
:1039A000E26A3168012707FA02F314200B4300FB97
:1039B000028049463360FFF7D9F8194BE26A1B6869
:1039C000DB6A9A4201D3174B1F602B68002BDCD1B6
:1039D0000CB1FFF70BFE144D2C6844B1114E0127BA
:1039E000FFF720FF00B13760013CF9D12C600D4B8F
:1039F0001B68002BBAD00D4B4FF080521A60BFF3FA
:103A00004F8FBFF36F8F0124B1E700BFC0090010D3
:103A1000ABAF0000B8090010000A0010C809001080
:103A2000E0080010300A0010BC09001004ED00E0AE
:103A3000EC08001008B540B90D4B4FF080521A60E9
:103A4000BFF34F8FBFF36F8F08BD0A4B196829B1C1
:103A5000094940F23C50FEF747FEFEE7FFF7DAFE69
:103A6000FFF722FEFFF770FF0028E5D0ECE700BF6C
:103A700004ED00E0C009001061AE000038B5274B2E
:103A80001A68274B12B101221A6038BD1A60FEF77E
:103A900057FE244A244C1568A84204D921680B6DAE
:103AA0005B1B03440B65236810601B6B1A68B2F143
:103AB000A53F0BD15A68B2F1A53F07D19A68B2F180
:103AC000A53F03D1DB68B3F1A53F04D0206821688E
:103AD0003431FEF7EBFD154B1B68B3FA83F3DBB211
:103AE000C3F11F03142212495A4388188D582DB967
:103AF000104940F6B730FEF7F7FDFEE7456808329B
:103B00006D6845600A44954204BF6A6842601422A9
:103B100002FB03135B68DB682360B6E7C009001093
:103B2000300A0010B4090010E0080010C8090010A5
:103B3000EC080010ACAE000010B50C4628B90849DE
:103B400040F6CE30FEF7D0FDFEE7064B196818317F
:103B5000FFF718F820460121BDE81040FFF7A4BD8B
:103B60007BAE0000E008001038B5C368DC682CB9F3
:103B7000164940F62940FEF7B7FDFEE704F11805A7
:103B80002846FFF716F8124B1B68E3B9251D284697
:103B9000FFF70FF80F49E26A0868012393400343D7
:103BA0000B600D4B1420294600FB0230FEF7DEFFB0
:103BB0000A4BE26A1B68DB6A9A4283BF084B01200A
:103BC0001860002038BD29460648EFE79CAF00008A
:103BD000C0090010C8090010EC080010E00800102F
:103BE000300A0010000A0010034B1B680360034BEF
:103BF0001B684360704700BFFC0900102C0A0010CE
:103C000070B50C46054628B9164940F69440FEF7B3
:103C10006BFDFEE729B9144940F69540FEF764FDB7
:103C2000FEE7FEF737FE114B196823685A1C10D0C7
:103C30000F482E6800686A68864201D08A420FD910
:103C4000881A83420AD95B1A134423602846FFF777
:103C5000CBFF0024FEF740FE204670BD002323600A
:103C60000124F7E79DAE0000F3AE00002C0A00101F
:103C7000FC090010014B01221A607047300A001045
:103C8000054B1B6833B1054B1B68002B0CBF022092
:103C90000020704701207047140A0010C00900106E
:103CA0002DE9F0410446002835D0234AC36A116843
:103CB000C96A8B42174636D28269204D002AA1BFBD
:103CC0003A68D26AC2F10A0282611426426906FB8E
:103CD00003539A4221D100F104084046FEF769FFE0
:103CE000174B48B9E06A4643AA592AB91A68012114
:103CF000814022EA01021A603A681968D26AE262D7
:103D0000012404FA02F0084318601420414600FB25
:103D10000250FEF72BFF204603E03B68DB6AC362DC
:103D20000120BDE8F0811368806CDC6AA0422CBFE2
:103D300000200120F5E700BFE0080010EC080010AB
:103D4000C8090010F8B5044608B90020F8BD1F4B9B
:103D50001B68834205D01E4940F6D170FEF7C4FCB3
:103D6000FEE7DB6C2BB91B4940F6D270FEF7BCFCBA
:103D7000FEE7C16A826C013B9142C364E5D0002B2F
:103D8000E3D1051D2846FEF714FF134E134A50B920
:103D9000E76A1421794373582BB913680120B8409E
:103DA00023EA00031360A36CE362C3F10A01A1617B
:103DB0001168012404FA03F008431060142000FB8A
:103DC00003602946FEF7D2FE2046BFE7E008001058
:103DD00071AF000087AF0000EC080010C8090010A8
:103DE000F8B50446002847D0C26C2AB923494FF4DD
:103DF0008150FEF779FCFEE7836C994238BF194683
:103E0000C36A8B4238D0012A36D11D4A12688242D9
:103E100005D11C4941F23B00FEF766FCFEE78269D2
:103E2000194DC162002A4FF014064269A8BFC1F1C2
:103E30000A0106FB0353A8BF81619A421CD1071DEA
:103E40003846FEF7B6FEE26A104C40B95643AB590D
:103E50002BB923680121914023EA010323602168E3
:103E6000012393400B4314202360394600FB02508A
:103E7000BDE8F840FEF77ABEF8BD00BF87AF00008E
:103E8000E008001087AE0000EC080010C809001020
:103E9000044B1A681AB11968CA6C0132CA641868EE
:103EA000704700BFE008001010B5FEF749FC064B54
:103EB000064A196829B1196814680B6D1B1B034465
:103EC0000B65106010BD00BFE0080010B4090010C1
:103ED00008B5FEF735FC014B186008BDB4090010A9
:103EE00007B501220221002000F0F4F8012203218D
:103EF000002000F0EFF804220021012000F0EAF891
:103F000001210422084600F0E5F8042211460120B0
:103F100000F0E0F80821012000F032F92B4B4FF4BB
:103F200080729A610921012000F00AF902220A2117
:103F3000002000F0CFF802220B21ADF80000002095
:103F400000F0C8F8ADF80400009800F0D2F801982D
:103F500000F0CFF80321022000F012F91C4B00B250
:103F60001870C0F3072058701A21012000F008F9DA
:103F7000184B00B21870C0F30720587018210120A8
:103F800000F0FEF8144B00B21870C0F30720587010
:103F90001221012000F0F4F8104B00B21870C0F3A9
:103FA000072058700A21012000F0CAF80F210120D3
:103FB00000F0C6F81E21002000F0C2F81D210020EC
:103FC00003B05DF804EB00F0BBB800BF208009200F
:103FD0003A0A0010380A0010360A0010340A00109D
:103FE000024B4FF48072DA61704700BF20800920D5
:103FF000024B4FF480729A61704700BF2080092005
:10400000034B586980F40070C0F34020704700BF34
:1040100020800920074B82B01B88ADF804309DF842
:104020000430002063F307009DF8053063F30F2090
:1040300002B07047340A0010074B82B01B88ADF8FD
:1040400004309DF80430002063F307009DF805302C
:1040500063F30F2002B07047360A0010074B82B09E
:104060001B88ADF804309DF80430002063F307008E
:104070009DF8053063F30F2002B07047380A001036
:10408000074B82B01B88ADF804309DF80430002047
:1040900063F307009DF8053063F30F2002B070470B
:1040A0003A0A001082B0C3B2ADF80400C0F3072092
:1040B000800000EBC31000F1804000F5303001F0CB
:1040C0000701036823F007030360036819430160D5
:1040D00002B0704737B58DF801108DF80000044626
:1040E0000D4600981146FFF7DDFF44EA052003B0B6
:1040F00030BD82B0C3B2ADF80400C0F30720800029
:1041000000EBC31000F1804000F53030036843F449
:104110008063036002B0704782B0084BADF80400C2
:10412000C0B2012253F820109DF805000B688240B0
:1041300023EA02030B6002B0704700BFC0AF00006B
:1041400037B58DF800008DF80110044600980D4633
:10415000FFF7E2FF44EA052003B030BD82B0074B11
:10416000ADF80400C0B253F820209DF80500116896
:10417000012383400B43136002B07047C0AF0000BF
:1041800037B58DF800008DF80110044600980D46F3
:10419000FFF7E4FF44EA052003B030BD82B0084BCE
:1041A000ADF80400C0B29DF8051053F820305A69EC
:1041B00001238B40134214BF0120002002B070473E
:1041C000C0AF0000C2B2054BC0F3072053F8222055
:1041D000012382B08340936102B07047C0AF0000FA
:1041E000C2B2054BC0F3072053F82220012382B04E
:1041F0008340D36102B07047C0AF000007B5ADF88F
:1042000004000198FFF7CAFF28B1019803B05DF8D8
:1042100004EBFFF7E5BF019803B05DF804EBFFF78F
:10422000D1BFFFFF2DE9F0410F4C04EBC003064660
:104230001D7928460F46904600F00EFA54F8364095
:1042400000233F2263604146A360284622606361E9
:10425000A361E3612362636200F022FA0123E76055
:104260006360BDE8F08100BFD8AF0000074B53F892
:10427000303030B501205C6901EB4105A840204396
:104280005861183343F8212030BD00BFD8AF00007B
:10429000034B53F83020012303FA01F111607047FA
:1042A000D8AF0000024B53F830309868704700BF19
:1042B000D8AF0000024B53F830309960704700BF10
:1042C000D8AF00002DE9F041044617461E46884647
:1042D000FFF7D6FC002105466068FEF7D9FF0023F2
:1042E0002373069B6361079BA361236884F80D8099
:1042F0002022022DA77326611A600BD140F6B83137
:104300006068FEF7C5FF18B1207BB0FA80F0400965
:10431000BDE8F08100216068FEF7BAFF0028F9D0FF
:10432000F2E7FFFF03685A68282A13B557D00AD866
:10433000102A2CD0182A32D0082A09D1417B01F04A
:10434000FE01996028E0402A63D00DD8382A77D042
:104350005A68027320229A6110221A6008229A6118
:104360001A68D206FCD426E0502A5BD0582AEFD136
:104370000269996811700022826120229A611022DC
:104380001A6008229A611A68D106FCD413E0427BB5
:1043900042F001029A6008229A6102B010BD84695D
:1043A000202199610822C4B99961102119609A618C
:1043B0001A68D106FCD4002301A940680193FEF7D6
:1043C00077FE019B002BE8D01F4B4FF080521A6004
:1043D000BFF34F8FBFF36F8FDFE7817BB1E7427B86
:1043E000D20702D520221A60D5E782694AB9202275
:1043F0009A6110221A6008229A611A68D406FCD4C5
:10440000D9E74169013A11F8014B9C604161826131
:10441000C1E720229A618269012A4FF00402E2D8A2
:104420009A61B8E702699968117002690132026104
:104430008269013A012A82614FF00402D3D1EFE789
:104440005B680373B7E700BF04ED00E00148FFF7C6
:1044500069BF00BF440000100148FFF763BF00BF01
:10446000280000100148FFF75DBF00BF0C000010DE
:104470002DE9F043284B06461546884693E8070089
:1044800085B004AB03E9070040F60A33ADF800300D
:104490000C238DF802301C237343204AD45802EBBE
:1044A000030904AB334403220021012013F8107CDC
:1044B000FEF7A4FCC9F804000120FEF788FDC9F846
:1044C0000800384600F0C8F86C23A361144A154B65
:1044D000904588BF98462823B5FBF8F25208C821BA
:1044E0005343B3FBF1F323613C235A430023B2FB54
:1044F000F1F26261A36263622362E360402323609E
:1045000004AB03EB8606384656F80C1C05B0BDE834
:10451000F04300F0C5B800BFF8AF00000C00001079
:1045200040420F00A08601002DE9F3410F4690465E
:104530001D4623B90025284602B0BDE8F0810F4C86
:104540001C2303FB00444FF0FF31A068FEF7A0FEE0
:104550000028EFD00026089B019342462B4647F0E7
:10456000010100962046FFF7ADFE33460546324670
:104570003146A068FEF768FCDDE700BF0C000010C4
:104580001FB500238DF80F30012300930DF10F03A9
:10459000FFF7CAFF9DF80F0005B05DF804FBFFFFB1
:1045A000F7B50E4617461D461BB90025284603B031
:1045B000F0BD0E4C1C2303FB00444FF0FF31A068FC
:1045C000FEF766FE0028F0D0089B3A46CDE900537E
:1045D00006F0FE0100232046FFF774FE0023054687
:1045E0001A461946A068FEF72FFCDFE70C00001002
:1045F0001FB5002200920DF10F038DF80F20FFF779
:10460000CFFF05B05DF804FB1FB58DF80F30012317
:1046100000930DF10F03FFF7C3FF05B05DF804FB36
:10462000FEE7FFFF08B5FFF73FFC084B084A1B7881
:10463000103BDBB252F823309847064B00221A6039
:104640001B68BDE80840FFF743BC00BF04ED00E075
:10465000600000103C0A0010242809D8054B064AC7
:10466000185CD2F8C410012383400B43C2F8C43055
:10467000704700BF04B0000000C00F4024289FBF57
:10468000054B064AD3F8C430105C9ABF23FA00F0F9
:1046900000F001000020704700C00F4004B000008F
:1046A000074B43F8201043B2002B08DB012200F037
:1046B0001F0002FA00F05B09024A42F8230070472B
:1046C0006000001000E100E073B54FF0FF33B1F57A
:1046D000805F019336D21D4C2369DE0734D41C4B16
:1046E0001D69ED0730D41B4D0326AE602E611A4DB7
:1046F0001D6002B301AE5E6041F00046DE6041F233
:104700000F061E61DAB1206041F0806140F681122F
:10471000E16065602261114A516A41F00301516212
:10472000D868C0F30B000028FAD1536A23F00303C2
:10473000536202B070BD586041F00846DEE701AA3E
:104740002260E3E70120F4E70220F2E700010820FD
:10475000200108200000082008C00A4000C00A40CC
:1047600010B50446FBF75AFD4FF47A73B0FBF3F033
:104770000223B0FBF3F2A24202D8034A136110BD38
:104780000233DBB2F5E700BF00C00A4010B50446B3
:104790002420FFF761FF0B4B07221A6002225A60A8
:1047A0002046FFF7DDFF1A20FFF756FF064B0122D8
:1047B0001A631A6BD207FCD5044A0023936042F8AF
:1047C000183C10BD00C00A4000000820200108204D
:1047D000034B9860DA68D206FCD49868C0B2704780
:1047E00000C00A400122FFF76FBF0022FFF76CBF35
:1047F00002689368C3F34203022B73B5064623D0C5
:10480000062B21D0012B34D100248DF803400194D4
:10481000102501AA0DF103017068FEF7F9FD48B1FA
:1048200033689DF803201A70019B002B18BF0124E8
:10483000013DEED10CB3124B4FF080521A60BFF322
:104840004F8FBFF36F8F18E00024019433681A7DF7
:10485000D207EFD51B788DF8033001AA00230DF1A4
:104860000301B068FEF7C6FB019B002B18BF0124B3
:10487000ECE7137DDBB20193019B02B070BD00BF7A
:1048800004ED00E00148FFF7B3BF00BF28010010AE
:104890000148FFF7ADBF00BF1C0100100148FFF742
:1048A000A7BF00BF100100100148FFF7A1BF00BF64
:1048B00004010010134B70B515460646185C0C46F3
:1048C0002D01FFF7C9FEB4FBF5F307EE903AF8EEC1
:1048D000677AB6EE007A77EE877A0C20FCEEE77AFC
:1048E0007043094A17EE903A12589BB28021117317
:1048F000190ADBB211711370102382F828300723D4
:10490000137370BD3CB0000004010010074B10B5DC
:104910000446185CFFF7B2FE38B10C206043044B2C
:104920001B58187B003018BF012010BD3CB00000A0
:1049300004010010044A0C2303FB002040680030EF
:1049400018BF0120704700BF040100102DE9F0419D
:10495000054688461646FFF7D9FF074618B90027CF
:104960003846BDE8F081154C0C2303FB05439A68DB
:1049700022B9B8F1000F01D0C3F808800C2303FB63
:1049800005435A680AB906B15E600C266E43A31946
:104990009A68002AE3D05B68002BE0D0084B53F8FC
:1049A0002510084B585DFFF77BFEA35941221A7270
:1049B00006221A7207225A60D2E700BF04010010D3
:1049C0002CB000003CB0000038B50C234343074A2C
:1049D0000D46D458FFF79AFF30B1237D9A06FCD5D7
:1049E0002570237D9B06FCD538BD00BF0401001057
:1049F00070B5044615460E46FFF742F90F4B0C22E0
:104A000002FB0434A468B4B1022814D16B1C09D091
:104A10004FF47A70A5FB00014FF47A72002300F086
:104A20006BFC05462A4631462046FEF793FB0030D4
:104A300018BF012070BD0020FCE700BF040100107A
:104A40002DE9F84306460F46124DFFF719F90C24DD
:104A500004FB065381463046D3F80880FFF756FF23
:104A6000A0B1B9F1020F0AD1B8F1000F07D0394651
:104A700030464FF0FF32BDE8F843FFF7B9BF74434B
:104A80002B591A7DD207FCD51B783B700020BDE85E
:104A9000F88300BF04010010F7B51F4D8DF8071013
:104AA00007461646FFF7ECF80C2303FB07535C6838
:104AB00064B302282DD1711C09D04FF47A70A6FB83
:104AC00000014FF47A72002300F016FC0646002322
:104AD00032460DF107012046FEF7B6F9041C18BF57
:104AE0000124FDF7D7FE0C2078432B182D582A7D82
:104AF000520609D500220DF107015868FEF788FC1F
:104B000010B19DF807302B70FDF7E6FE204603B08C
:104B1000F0BD0024FAE700BF0401001081F000415D
:104B200002E000BF83F0004330B54FEA41044FEA92
:104B3000430594EA050F08BF90EA020F1FBF54EA2D
:104B4000000C55EA020C7FEA645C7FEA655C00F0C9
:104B5000E2804FEA5454D4EB5555B8BF6D420CDD9A
:104B60002C4480EA020281EA030382EA000083EA1D
:104B7000010180EA020281EA0303362D88BF30BDBD
:104B800011F0004F4FEA01314FF4801C4CEA113113
:104B900002D0404261EB410113F0004F4FEA033372
:104BA0004CEA133302D0524263EB430394EA050FFD
:104BB00000F0A780A4F10104D5F1200E0DDB02FA6C
:104BC0000EFC22FA05F2801841F1000103FA0EF200
:104BD000801843FA05F359410EE0A5F120050EF1C6
:104BE000200E012A03FA0EFC28BF4CF0020C43FAF7
:104BF00005F3C01851EBE37101F0004507D54FF004
:104C0000000EDCF1000C7EEB00006EEB0101B1F553
:104C1000801F1BD3B1F5001F0CD349085FEA300099
:104C20004FEA3C0C04F101044FEA445212F5800FA4
:104C300080F09A80BCF1004F08BF5FEA500C50F141
:104C4000000041EB045141EA050130BD5FEA4C0C24
:104C5000404141EB010111F4801FA4F10104E9D1AD
:104C600091F0000F04BF01460020B1FA81F308BFA4
:104C70002033A3F10B03B3F120020CDA0C3208DD70
:104C800002F1140CC2F10C0201FA0CF021FA02F14B
:104C90000CE002F11402D8BFC2F1200C01FA02F1BB
:104CA00020FA0CFCDCBF41EA0C019040E41AA2BFE0
:104CB00001EB0451294330BD6FEA04041F3C1CDAA8
:104CC0000C340EDC04F11404C4F1200220FA04F0C8
:104CD00001FA02F340EA030021FA04F345EA030172
:104CE00030BDC4F10C04C4F1200220FA02F001FA34
:104CF00004F340EA0300294630BD21FA04F02946B6
:104D000030BD94F0000F83F4801306BF81F480114E
:104D10000134013D4EE77FEA645C18BF7FEA655CC1
:104D200029D094EA050F08BF90EA020F05D054EA93
:104D3000000C04BF1946104630BD91EA030F1EBF98
:104D40000021002030BD5FEA545C05D1400049419C
:104D500028BF41F0004130BD14F580043CBF01F58F
:104D6000801130BD01F0004545F0FE4141F4700175
:104D70004FF0000030BD7FEA645C1ABF1946104650
:104D80007FEA655C1CBF0B46024650EA013406BF51
:104D900052EA033591EA030F41F4002130BD00BF10
:104DA00090F0000F04BF0021704730B54FF48064CD
:104DB00004F132044FF000054FF0000150E700BF4E
:104DC00090F0000F04BF0021704730B54FF48064AD
:104DD00004F1320410F0004548BF40424FF000019A
:104DE0003EE700BF42004FEAE2014FEA31014FEADD
:104DF00002701FBF12F07F4393F07F4F81F060512C
:104E0000704732F07F4208BF704793F07F4F04BF76
:104E100041F40021704730B54FF4607401F0004553
:104E200021F000411CE700BF50EA010208BF7047B3
:104E300030B54FF000050AE050EA010208BF7047A4
:104E400030B511F0004502D5404261EB41014FF40D
:104E5000806404F132045FEA915C3FF4D8AE4FF015
:104E600003025FEADC0C18BF03325FEADC0C18BFF8
:104E7000033202EBDC02C2F1200300FA03FC20FA49
:104E800002F001FA03FE40EA0E0021FA02F1144496
:104E9000BDE600BF70B54FF0FF0C4CF4E06C1CEAAF
:104EA00011541DBF1CEA135594EA0C0F95EA0C0F20
:104EB00000F0DEF82C4481EA030621EA4C5123EA93
:104EC0004C5350EA013518BF52EA033541F48011C2
:104ED00043F4801338D0A0FB02CE4FF00005E1FB75
:104EE00002E506F00042E0FB03E54FF00006E1FBBF
:104EF00003569CF0000F18BF4EF0010EA4F1FF0402
:104F0000B6F5007F64F5407404D25FEA4E0E6D4141
:104F100046EB060642EAC62141EA55514FEAC52052
:104F200040EA5E504FEACE2EB4F1FD0C88BFBCF5CE
:104F3000E06F1ED8BEF1004F08BF5FEA500E50F17F
:104F4000000041EB045170BD06F0004646EA010145
:104F500040EA020081EA0301B4EB5C04C2BFD4EB77
:104F60000C0541EA045170BD41F480114FF0000E70
:104F7000013C00F3AB8014F1360FDEBF002001F0DE
:104F8000004170BDC4F10004203C35DA0C341BDC58
:104F900004F11404C4F1200500FA05F320FA04F02A
:104FA00001FA05F240EA020001F0004221F000415E
:104FB00010EBD37021FA04F642EB06015EEA430ED1
:104FC00008BF20EAD37070BDC4F10C04C4F1200501
:104FD00000FA04F320FA05F001FA04F240EA0200B4
:104FE00001F0004110EBD37041F100015EEA430E85
:104FF00008BF20EAD37070BDC4F1200500FA05F2A5
:105000004EEA020E20FA04F301FA05F243EA020323
:1050100021FA04F001F0004121FA04F220EA020032
:1050200000EBD3705EEA430E08BF20EAD37070BD78
:1050300094F0000F0FD101F00046400041EB010158
:1050400011F4801F08BF013CF7D041EA060195F03A
:10505000000F18BF704703F00046520043EB0303F4
:1050600013F4801F08BF013DF7D043EA06037047E1
:1050700094EA0C0F0CEA135518BF95EA0C0F0CD0EC
:1050800050EA410618BF52EA4306D1D181EA030132
:1050900001F000414FF0000070BD50EA410606BF2C
:1050A0001046194652EA430619D094EA0C0F02D171
:1050B00050EA013613D195EA0C0F05D152EA0336B6
:1050C0001CBF104619460AD181EA030101F00041D4
:1050D00041F0FE4141F470014FF0000070BD41F01D
:1050E000FE4141F4780170BD70B54FF0FF0C4CF4F7
:1050F000E06C1CEA11541DBF1CEA135594EA0C0F16
:1051000095EA0C0F00F0A7F8A4EB050481EA030E62
:1051100052EA03354FEA013100F088804FEA033349
:105120004FF0805545EA131343EA12634FEA022217
:1051300045EA111545EA10654FEA00260EF00041D8
:105140009D4208BF964244F1FD0404F5407402D22A
:105150005B084FEA3202B61A65EB03055B084FEABB
:1051600032024FF480104FF4002CB6EB020E75EBB8
:10517000030E22BFB61A754640EA0C005B084FEAE0
:105180003202B6EB020E75EB030E22BFB61A75465D
:1051900040EA5C005B084FEA3202B6EB020E75EBA8
:1051A000030E22BFB61A754640EA9C005B084FEA20
:1051B0003202B6EB020E75EB030E22BFB61A75462D
:1051C00040EADC0055EA060E18D04FEA051545EA1C
:1051D00016754FEA06164FEAC30343EA52734FEAC5
:1051E000C2025FEA1C1CC0D111F4801F0BD141EA3E
:1051F00000014FF000004FF0004CB6E711F4801FA3
:1052000004BF01430020B4F1FD0C88BFBCF5E06F82
:105210003FF6AFAEB5EB030C04BFB6EB020C5FEA92
:10522000500C50F1000041EB045170BD0EF0004EE7
:105230004EEA113114EB5C04C2BFD4EB0C0541EA19
:10524000045170BD41F480114FF0000E013C90E616
:1052500045EA060E8DE60CEA135594EA0C0F08BFDA
:1052600095EA0C0F3FF43BAF94EA0C0F0AD150EAD9
:1052700001347FF434AF95EA0C0F7FF425AF10466C
:1052800019462CE795EA0C0F06D152EA03353FF494
:10529000FDAE1046194622E750EA410618BF52EA11
:1052A00043067FF4C5AE50EA41047FF40DAF52EAE5
:1052B00043057FF4EBAE12E74A0011D212F500125B
:1052C00011D20DD56FF47873B3EB62520ED44FEA5E
:1052D000C12343F0004343EA505323FA02F07047DE
:1052E0004FF00000704750EA013002D14FF0FF301C
:1052F00070474FF00000704753B94AB9002908BF02
:1053000000281CBF4FF0FF314FF0FF3000F074B9A0
:10531000ADF1080C6DE904CE00F006F8DDF804E00C
:10532000DDE9022304B070472DE9F047089E0446EA
:105330008846002B40F085808A42154648D9B2FA4B
:1053400082F24AB1C2F1200701FA02F320FA07F70C
:10535000954047EA030894404FEA154E230CB8FBEA
:10536000FEF71FFA85FC0EFB178843EA084307FB8C
:105370000CF1994209D9EB1807F1FF3080F0E38076
:10538000994240F2E080023F2B445B1AA4B2B3FB87
:10539000FEF00EFB103344EA034400FB0CFCA44572
:1053A00009D92C1900F1FF3380F0CB80A44540F2DD
:1053B000C88002382C4440EA0740A4EB0C040027C4
:1053C0001EB1D4400023C6E900433946BDE8F0874A
:1053D000002A53D0B2FA82F2002A40F0B680491B6C
:1053E0004FEA154E1FFA85F80127B1FBFEFC230C8E
:1053F0000EFB1C1143EA014308FB0CF1994207D94B
:10540000EB180CF1FF3002D2994200F2EC80844696
:10541000591AA3B2B1FBFEF00EFB101443EA044488
:1054200008FB00F8A04507D92C1900F1FF3302D280
:10543000A04500F2DC801846A4EB080440EA0C40CA
:10544000BEE78B4208D9002E78D00027C6E90001BC
:1054500038463946BDE8F087B3FA83F77FB98B4207
:1054600002D3824200F2BD80841A61EB0303012063
:105470009846002EA9D0C6E90048A6E7FFDEC7F18E
:105480002005BB4022FA05FC4CEA030C01FA07F4A4
:1054900020FA05F821FA05F34FEA1C4E48EA040405
:1054A000B3FBFEF9210C0EFB19331FFA8CF841EA0D
:1054B000034309FB08FA9A4502FA07F200FA07F1DA
:1054C0000BD91CEB030309F1FF3080F088809A456B
:1054D00040F28580A9F102096344A3EB0A03A4B258
:1054E000B3FBFEF00EFB103344EA034400FB08F864
:1054F000A04508D91CEB040400F1FF336BD2A04592
:1055000069D90238644440EA0940A4EB0804A0FBCE
:1055100002894C45C6464B4654D351D0002E69D023
:10552000B1EB0E0264EB030404FA05F522FA07F36B
:10553000FC401D43C6E90054002746E73746304685
:1055400043E7184637E707461FE7C2F1200320FA72
:1055500003F7954001FA02F021FA03F34FEA154EE2
:105560003843010CB3FBFEF71FFA85F80EFB173327
:1055700041EA034107FB08F38B4204FA02F407D91E
:10558000691807F1FF3C28D28B4226D9023F2944F3
:10559000CB1A81B2B3FBFEF00EFB103341EA03419C
:1055A00000FB08F38B4207D9691800F1FF3C10D2C9
:1055B0008B420ED902382944C91A40EA074714E73A
:1055C0004145ABD2B8EB020E69EB0C020138134631
:1055D000A4E76046F0E7184695E76746D8E78146B6
:1055E0007BE7384645E7ACF1020C2B4410E7023864
:1055F0002C4421E73746E8E6704700BF0EB403B5F8
:10560000014603AB054853F8042B0068019300F0F2
:105610008BF902B05DF804EB03B070473401001061
:1056200070B50E461446054618B183690BB903F0F0
:105630007BF82B4B9C421ED16C68636EDA0705D455
:10564000A3899B0502D4A06D00F059F8A38918071F
:105650001BD52369CBB1013E16F8011F39BB656E1E
:1056600015F0010539D1A389990502D4A06D00F088
:1056700047F8284670BD1B4B9C4201D1AC68DCE763
:10568000194B9C4208BFEC68D7E72146284602F038
:105690007DF80028DFD0636EDA0705D4A3899B0567
:1056A00002D4A06D00F02CF84FF0FF35E1E7A368BD
:1056B000013B002BA36004DAA269934206DB0A29AE
:1056C00004D023685A1C22601970C5E72246284678
:1056D00002F00AF80130BFD1DDE70D46C9E700BF8F
:1056E00010B2000030B20000F0B10000024B0A46D8
:1056F00001461868FFF794BF3401001070477047E7
:105700007047FFFF024B0146186800F089B800BFE0
:1057100034010010024B0146186800F033B800BF96
:10572000340100100A44914200F1FF3300D1704768
:1057300010B511F8014B03F8014F9142F9D110BD9A
:10574000884210B501EB020302D983421C4607D8F8
:10575000421E994208D011F8014B02F8014FF8E7B8
:1057600083189A1A9A4200D110BD14F8011D03F84B
:10577000011DF7E702440346934200D1704703F846
:10578000011BF9E738B50546002945D051F8043C1E
:105790000C1F002BB8BFE41803F05AFC1F4A136813
:1057A000104633B9636014602846BDE8384003F002
:1057B00055BCA3420CD921686218934204BF1A68F1
:1057C0005B68636004BF521822600460ECE7134614
:1057D0005A680AB1A242FAD919685818A0420BD1E6
:1057E00020680144581882421960DDD1106852685F
:1057F0005A6001441960D7E702D90C232B60D3E724
:10580000206821188A4204BF11685268626004BF90
:10581000091821605C60C7E738BD00BF400A00106E
:10582000F8B5CD1C25F0030508350C2D38BF0C2527
:10583000002D064601DBA94203D90C23336000206A
:10584000F8BD03F005FC21490A6814469CB9204FB5
:105850003B6823B92146304600F0CAFF386029462C
:10586000304600F0C5FF431C23D10C233360304683
:1058700003F0F4FBE3E723685B1B17D40B2B03D97E
:1058800023601C44256004E06368A2420CBF0B60E7
:105890005360304603F0E2FB04F10B00231D20F0BF
:1058A0000700C21ACCD01B1AA350C9E7224664686D
:1058B000CCE7C41C24F00304A042E3D0211A3046F4
:1058C00000F096FF0130DDD1CFE700BF400A0010A5
:1058D000440A00109368013B002B10B4936008DA6F
:1058E0009469A34201DB0A2903D15DF8044B01F05E
:1058F000FBBE1368581C1060197008465DF8044B15
:105900007047F8B506460F461446D518AC4201D18B
:10591000002007E03A4614F8011B3046FFF7DAFF93
:10592000431CF3D1F8BDFFFF2DE9F04F0D469DB0AC
:1059300014461E46074618B183690BB902F0F4FEFF
:10594000854B9D421BD17D686B6ED90705D4AB8911
:105950009A0502D4A86DFFF7D2FEAB891B0701D5CB
:105960002B69EBB92946384601F010FFC0B16B6EC8
:10597000D8070ED54FF0FF301DB0BDE8F08F774B44
:105980009D4201D1BD68DFE7754B9D4208BFFD68B0
:10599000DAE7AB899905EDD4A86DFFF7B1FEE9E729
:1059A0000023099320238DF82930DFF8B89103965E
:1059B00030238DF82A304FF0010A23461E4613F893
:1059C000012B0AB1252AF9D1B6EB040B0BD05B46AB
:1059D000224629463846FFF794FF013000F0A380A5
:1059E000099B5B4409933378002B00F09C800023D3
:1059F0004FF0FF32CDE905230136049307938DF86C
:105A000053301A933446052214F8011B554803F00D
:105A1000CFFA049BC0B9DA0644BF20228DF8532088
:105A2000180744BF2B228DF8532032782A2A13D02E
:105A3000079A344600200A26214611F8013B303BE4
:105A4000092B4BD970B914E0A0EB09000AFA00F059
:105A5000184304902646D5E7039A111D1268039156
:105A6000002A01DB079204E0524243F0020307924E
:105A7000049323782E2B0CD163782A2B33D1039BEC
:105A80001A1D1B680392002BB8BF4FF0FF3302347E
:105A90000593354E21780322304603F089FA38B158
:105AA0004023801B03FA00F0049B0343013404935A
:105AB00014F8011B2D488DF82810062203F078FAFF
:105AC00000283FD02A4B13BB039B073323F0070367
:105AD00008330393099B434409936EE706FB0232A4
