:1000000000000110E500000075010000590100002A
:100010007501000075010000750100007501000008
:100020007501000075010000750100000D1C000045
:1000300075010000750100001F1C0000311C00004C
:10004000713D0000713D0000713D0000713D0000F8
:10005000713D0000713D0000713D0000713D0000E8
:10006000713D0000713D0000713D0000713D0000D8
:10007000713D0000713D0000713D0000713D0000C8
:10008000713D0000713D0000713D0000713D0000B8
:10009000713D0000713D0000713D0000713D0000A8
:1000A000713D0000713D0000713D0000713D000098
:1000B000713D0000713D0000713D0000713D000088
:1000C000713D0000713D0000713D0000713D000078
:1000D000713D0000713D0000713D0000713D000068
:1000E000713D000008B500F057F900F073F900F019
:1000F0007BF900F09BF800F095F801F0EBFA01F0C5
:1001000023FA00F0BFF840B141F28734002501F036
:100110000DFB8D4208BF8442F9D200F082F918B974
:100120000849094805F008FF0649084805F004FF9A
:1001300001F01AFB064B07481B68D96804F080FEE3
:10014000FEE700BFB4A40000C0A40000EDA40000BE
:100150008401001005A500001EF0040F0CBFEFF392
:100160000880EFF309808169004A1047D10100003F
:100170007047FFFF38B50F4C0F4B10481D782368B0
:10018000D96804F05DFE23680D49D8682A4604F05A
:10019000DFFD0F2D236807D80A4A0B4952F82520A6
:1001A000D86804F0D5FDFEE7D968084804F048FE99
:1001B000F9E700BF8401001004ED00E040A5000055
:1001C0005AA500004CA6000094A50000B2A50000AE
:1001D00010B5044600F04AF8236883606368C36082
:1001E000A3680361E3684361236943626369013B78
:1001F000C361A3698361E3690362BFF34F8F05495C
:10020000054BCA6802F4E0621343CB60BFF34F8F23
:1002100000BFFDE700ED00E00400FA05004870476C
:1002200000D8B8050048704700D8B8050E4B072223
:10023000C3F88420AA210122C3F88020C3F88C10BF
:100240005521C3F88C10C3F8A821D3F88820520593
:10025000FBD51A6822F4704242F480421A6040F2E0
:100260000112C3F80421704700C00F400248034A3E
:10027000034BC0E90023704700000020EFBEADDE55
:100280001041522138B5224C224B22689A423DD16E
:100290006268214B9A4239D1204D21482B68D96898
:1002A00004F0CEFD2B68A2691E49D86804F050FD09
:1002B0002B68E2691C49D86804F04AFD2B68226A61
:1002C0001A49D86804F044FD2B68A2681849D86818
:1002D00004F03EFD2B68E2681649D86804F038FD4A
:1002E0002B6822691449D86804F032FD2B686269D2
:1002F0001249D86804F02CFD2B681148D96804F025
:100300009FFD01200023C4E9003338BD0020F9E738
:1003100000000020EFBEADDE10415221840100102C
:100320008CA60000DFA60000EEA60000FDA60000DF
:100330000CA700001BA700002AA7000039A7000097
:1003400048A700000E4A136810B50E4C1918A142B8
:10035000116002D30C4CA1420BD313600B4A0C4921
:1003600013681844884208D30A49884205D21060AD
:1003700001E0002BF2D0184610BD0023FBE700BFC0
:100380000000001028000020008000200400001061
:100390005411001000000110094A0A4B0A498B420F
:1003A00005D30A4B0A4A0021934205D3704712F83D
:1003B000010B03F8010BF2E703F8011BF4E700BFA0
:1003C00004B900000000001058030010580300108A
:1003D00054110010034AD2F8883043F47003C2F875
:1003E0008830704700ED00E0044800232021C21847
:1003F0000133292B82F80013F9D1704700E100E0A6
:1004000008B52A2219233821022003F0A3FC0D226B
:100410003821022003F05AFCA0F12A035842584127
:1004200008BDFFF7EDBF42884378007843EA022316
:1004300040EA0320704710B5024410F8013B11F860
:10044000014B9042A3EB040301D0002BF5D01846DA
:1004500010BD02684AB1134613F8011B1F290BD9BE
:100460003A29F9D1911C8B4202D04FF0FF307047EE
:100470001278302AF9D103600020704770B500F17E
:100480003806426B044601233146407800F05AFAA0
:10049000054688B9616BA36A226AE070CB1A934261
:1004A00008D2A378022B05D10A4401233146607893
:1004B00000F048FA284670BD0125FBE738B5436BCC
:1004C0008B4204460D4619D0C3788BB901232A46C6
:1004D00004F13801607800F021FA002818BF4FF0CD
:1004E000FF35034665630CBF03460123184638BD3C
:1004F000FFF7C4FF03460028F8D1E7E70023F5E73C
:1005000038B50023C3704FF0FF3343630546FFF750
:10051000D5FF044618BB95F8372295F8363243EAE2
:1005200002234AF6552293421BD195F83830EB2B23
:1005300003D01833DBB2012B15D803220B4905F188
:100540006E00FFF778FF40B10522094905F18A00E6
:10055000FFF771FF002818BF0224204638BD04248D
:10056000FBE70324F9E70224F7E700BF1CA800001B
:1005700020A800002DE9F043002385B00B600F4652
:100580001546FFF766FF061EC0F23981A44B53F8EB
:100590002640002C00F03581206900F09EF90028EB
:1005A00000F031813C60237805F0FE056BB1607886
:1005B00000F0AFF9C10708D41DB110F0040500D058
:1005C0000A25284605B0BDE8F0830023F0B2237069
:1005D000607000F090F9C20700F117810DB1430778
:1005E000EED400212046FFF78BFF022840F0EE807A
:1005F0006F4604F5FF7104F23E263D4611F8040CE7
:1006000010B10846FFF70FFF10318E4245F8040B7A
:10061000F4D1002557F8046B002E00F0CE8031464F
:100620002046FFF76DFF012800F2C88094F84420AF
:1006300094F8433043EA0223B3F5007F40F0CA80C8
:1006400094F84F3094F84E5055EA032504D104F144
:100650005C00FFF7E8FE054694F8481025624B1E43
:10066000012BA17000F2B68094F845901FFA89F32F
:100670006381002B00F0AE8009F1FF3313EA090F0C
:1006800040F0A88094F84A3094F8497047EA03276C
:100690003FB21FFA87F818F00F0FA4F8088040F057
:1006A000998094F84C3094F84B0050EA032003D121
:1006B00004F15800FFF7B7FE94F8472094F846304D
:1006C00053EA022300F0868005FB01FC03EB1812BD
:1006D000624490427ED3801A4845B0FBF9F179D349
:1006E0005048814276D84FF6F570814240F28F80B3
:1006F0004FF00309023133443244B9F1030FE16191
:100700006662A362226369D194F8632094F8623030
:1007100043EA02231F433FB2002F5BD104F1640080
:10072000FFF781FEE062890001F2FF11B5EB512F66
:1007300050D34FF0FF33C4E90533B9F1030F4FF045
:10074000800323712FD194F8692094F8683043EA2C
:100750000223012B27D1711C2046FFF7AFFE10BBEF
:1007600094F8372294F83632207143EA02234AF68D
:100770005522934217D104F13800FFF754FE2A4B5B
:10078000984210D104F50770FFF74DFE274B9842B1
:1007900009D104F50870FFF746FEA06104F5097061
:1007A000FFF741FE6061224A84F80090138801330C
:1007B0009BB21380E380002503E703200135042D5D
:1007C0007FF428AF042805D10125FAE60428FBD0E0
:1007D000012801D90D25F4E6002627E7B8F1000F1E
:1007E000F8D06344B9F1020FE3624FEA41031BBF43
:1007F0005B1801F00101194601EB530194E70B2549
:10080000DFE60C25DDE60F25DBE60325D9E640F61D
:10081000F57949458CBF4FF002094FF0010969E7AE
:1008200058030010F5FFFF0F52526141727241618F
:100830005C03001040B1A1F10B03012B04D90F2977
:1008400002D0006900F052B87047FFFFF0B585B0E4
:10085000CDE9001003A814460391FFF7FAFD051E29
:1008600028DB154F57F825604EB1306900F030F89D
:1008700018B90224204605B0F0BD00233370019959
:1008800079B9019B47F82530002CF3D001A900224B
:100890006846FFF76FFE044601460198FFF7CAFF5E
:1008A000E8E7002301F8103BE8B200F007F8002861
:1008B000E7D1DEE70B24DDE75803001010B5012077
:1008C0000C4601F00CFD2060003018BF012010BD67
:1008D00008B501F073FF012008BD08B540F6B83136
:1008E00001F05EFE431E5842584108BD00231A46DF
:1008F000194601F031BC10B5044600F0ADFE34B924
:1009000000F0FAF8044600F0C1FE204610BD0424B1
:10091000F9E708B900F08EB904207047F8B507462A
:100920000C4615461E4600F097FE4FB92046F2B21F
:10093000294600F087F9044600F0A8FE2046F8BDDD
:100940000424F9E7F8B507460C4615461E4600F0A4
:1009500083FE4FB92046F2B2294600F0B9F90446A9
:1009600000F094FE2046F8BD0424F9E738B500F005
:10097000DDFE00F5FA75FF2003F0D0FAFF2003F04A
:10098000CDFAFF28044603D000F0D0FE8542F5D80A
:10099000204638BD08B502F0C9FEFFF7E7FF02F0B8
:1009A000CDFE034A137843F00103137008BD00BF66
:1009B0000800001038B505460C46FFF7D7FFFF28A2
:1009C00021D1204603F0AAFAFD2C1ED0AC1C05F262
:1009D000022514F8020C03F0A1FA023414F8030CF7
:1009E00003F09CFAAC42F4D1FF2003F097FAFF2009
:1009F00003F094FAFF2003F091FA00F01F00431F68
:100A00005842584138BD0020FCE70120FAE737B5CD
:100A1000020604460D4607D500217720FFF7F7FFB1
:100A2000012831D804F07F0402F088FE02F07EFE37
:100A3000FFF79CFFFF282BD1402C27D0482C0CBF60
:100A4000872301232A0E8DF801202A0C8DF802201D
:100A500006212A0A68468DF800408DF803208DF89B
:100A600004508DF8053003F063FA4C2C02D1FF20BE
:100A700003F054FA0A24FF2003F050FA030603D5CA
:100A8000013C14F0FF04F6D103B030BD9523D9E743
:100A9000FF20F9E770B5054600F048FE00F1640656
:100AA000FF2003F03BFA044600F040FE864201D3EB
:100AB000FF2CF5D0FE2C0CD14FF40071284603F02A
:100AC0003AFAFF2003F02AFAFF2003F027FA012068
:100AD00070BD0020FCE7FFFF38B5064D2C78E4B26E
:100AE00002F034FE18B104F0FD042C7038BD44F05F
:100AF0000304FAE7080000102DE9F341FFF7ECFFCB
:100B00004A4B1A7812F0020F1E4604D01878C0B271
:100B100002B0BDE8F081C82003F0C8F90A25FF2023
:100B2000013D03F0FBF915F0FF05F8D102F0FEFDE1
:100B300029464020FFF76BFF0128044671D100F0E1
:100B4000F5FD4FF4D57100F57A774820FFF75FFF88
:100B5000012848D101ADA8460424FF2003F0DEF9A6
:100B6000013C14F0FF0408F8010BF6D19DF80630A3
:100B7000012B56D19DF80730AA2B52D100F0D6FD9B
:100B8000874206D94FF08041E920FFF740FF002857
:100B9000F4D100F0CBFD874243D900217A20FFF742
:100BA00036FF00283DD10424FF2003F0B7F9013CB3
:100BB00014F0FF0405F8010BF6D19DF8043013F092
:100BC000400F14BF0C240424194B1C7002F0B6FD16
:100BD0004CB3337845F6C05003F0FE03337003F096
:100BE00065F9307893E72946E920FFF710FF0228DE
:100BF00036BFE9254125022400F098FD874205D93A
:100C000000212846FFF703FF0028F5D100F08EFDF4
:100C1000874206D84FF400715020FFF7F8FE0028F5
:100C2000D2D00024D0E7FFF7B5FEDAE708000010C5
:100C30005E03001008B5FFF74FFF014B187808BDA1
:100C40000800001070B5144605460E46FFF744FF35
:100C5000002C35D01C4B1B78DA0733D402F066FD2C
:100C60001A4B1B781B0758BF7602012C314611D155
:100C70005120FFF7CCFE38B94FF400712846FFF73A
:100C800009FFB0FA80F4640902F058FD201C18BF77
:100C9000012070BD5220FFF7BAFE0028F4D14FF4B6
:100CA00000712846FFF7F6FE28B1013C14F0FF045E
:100CB00005F50075F3D100214C20FFF7A8FEE3E70E
:100CC0000420E6E70320E4E7080000105E030010BC
:100CD00070B5144605460E46FFF7FEFE002C41D0C7
:100CE000234B1A78D0073FD41B7859073ED402F023
:100CF0001DFD204B1B781A0758BF7602012C11D11D
:100D000031465820FFF783FE50BBFE212846FFF7EF
:100D100051FEB0FA80F4640902F010FD201C18BFE7
:100D2000012070BD13F0060F03D02146D720FFF736
:100D30006EFE31465920FFF76AFE0028ECD1FC21F7
:100D40002846FFF737FE28B1013C14F0FF0405F5F3
:100D50000075F4D1FD210020FFF72CFE0028DBD127
:100D60000124D9E70420DCE70320DAE70220D8E7F2
:100D7000080000105E03001008B5064605F09FFA53
:100D800000240546A54200DCFEE7315D002003F0AB
:100D9000C1F90134F6E7FFFF02280CD9074B1B68A5
:100DA0005A68824207D09A68824204D0DB681B1AD4
:100DB0005842584170470120704700BF840100101D
:100DC000F8B504460E461546FFF7E6FF48B3164B46
:100DD0001B68DB68A34210D0A31E5C425C4102F09A
:100DE000BFFA0746002003F04BF9022F17D1B0B12C
:100DF000ACB9A54203DC2846F8BD0124EFE7315D1C
:100E00004FF0FF32002003F0EDF90134F1E7315DDE
:100E1000002003F07FF90134A542F8DCEBE7002461
:100E2000FAE70248FFF7A8FF8401001058A8000065
:100E300008B5FFF7B1FF18B1002003F0A7F908BD0E
:100E40000148FFF799FF00BF26A800002DE9F84FE1
:100E500006461446884610461B49DFF87C90DFF8AA
:100E60007CA0DFF87CB000F042FDB368214640462C
:100E7000984735680DB9BDE8F88F6F68384605F0BA
:100E80001EFA32288CBF514649463B462A68204606
:100E900000F02DFD5946204600F054FE0B49074650
:100EA000204600F04FFE07B918B10949204600F06E
:100EB00088FD0849204600F084FDB368214640467D
:100EC0009847ED68D6E700BF8BA80000D2A80000C5
:100ED000BDAA0000D1A80000E7A80000D4A8000027
:100EE000F3A8000030B504294FF0000538BF0421F5
:100EF0000560C0E90112C36030BD11B10368CB6069
:100F0000016070472DE9F041144605460F46104632
:100F1000424900F05BFE4249204600F098FD00285F
:100F200033D03F49204600F074FD28B122463946AF
:100F30002846FFF78BFF68E02021204600F010FED6
:100F4000DFF8F0802E680EB92E6810E04246316856
:100F5000204600F093FD002838D1F668F3E76A6870
:100F60003168204600F05FFD00282FD1F668002E82
:100F7000F5D131462B4A204600F0F9FCAB682146FA
:100F800038469847AB6825493DE02E68DFF8A480D5
:100F90000EB92E680EE042463168204600F06EFD24
:100FA000B8B9F668F4E76A683168204600F03BFD9E
:100FB00078B9F668002EF6D131461B4A204600F07B
:100FC000D6FCAB68214638469847AFE7AB687168F6
:100FD000D6E72021204600F0C3FDB368AA68214669
:100FE0003846984788B1114A0021204600F0BFFCDE
:100FF000AB682146384698470D497268204600F094
:1010000076FCAB68214638469847E96821B1AB6861
:101010003846BDE8F0411847BDE8F081D1A800008E
:10102000F5A8000028A9000051A90000FAA80000B6
:101030000BA90000BCB6000010B54C1E14F8010F3F
:1010400000B910BD04F090FFF8E7FFFF70B5A0B045
:1010500006461B4A8021684600F07EFC0446304666
:1010600022460021FFF74EFF204600F02FFC2046CD
:1010700000F026FD0028F2D103F0EAFEC5B2082DEB
:1010800016D1204600F00DFC60B10121204600F091
:1010900048FD284604F068FF202004F065FF28463C
:1010A00004F062FF204600F002FC0028DFD0D6E703
:1010B000284604F059FF2946204600F09EFCF1E73F
:1010C000F5A8000030B589B004AD2846164B174A84
:1010D000174C0421FFF706FF95E80F0084E80F0086
:1010E00020461449FFF709FF20461349FFF705FF83
:1010F00020461249FFF701FF20461149FFF7FDFE88
:1011000020461049FFF7F9FE0F4B02930F4B019356
:10111000032300934FF4007223460D490D4801F05C
:10112000DBFC09B030BD00BF82A90000391000000F
:10113000600300103C0000101C0000100C000010A8
:101140004C0000102C000010700B001070030010F9
:10115000D5A900004D1000002DE9F043E7B00DF1D6
:1011600098084FF4807281460E464046002103F0F5
:10117000BDFE802106A800F071FB05AF01233B6096
:1011800005460024009704AB03AA20494846CDE950
:10119000034400F0B9FB012831D93B6800939DF866
:1011A00010209DF80C104346022002F063FD81469A
:1011B000E8B1039A1649DFF86490284600F097FBDF
:1011C00029462046B0473B68A34202D867B0BDE835
:1011D000F083049A18F804300093224449462846C4
:1011E00000F085FB29460020B0470134EBE70949B0
:1011F000284600F09AFB29464846B047E6E70649EC
:10120000284600F092FB29462046F6E74DAB000049
:101210005AAB00008BAB0000B8AB000074AB000011
:101220002DE9F043E7B000240DF198084FF48072E7
:1012300081460F4640462146CDE9034403F056FE61
:10124000802106A800F00AFB04AB064603AA294940
:10125000484600F059FB022844D12021484600F0BE
:101260007FFC2021484600F07BFC059405A94846F8
:1012700000F084FC0546D0B9009443469DF8102048
:101280009DF80C10022002F031FD814610B3039B43
:101290001949DFF870902246304600F028FB3146AD
:1012A0002846B847AC4207D167B0BDE8F083059B3C
:1012B00008F804300134D9E7049A18F8053000938F
:1012C0002A444946304600F012FB31460020B84718
:1012D0000135E7E70949304600F027FB314648462B
:1012E000B847E1E70649304600F01FFB314620468B
:1012F000F6E700BFF8AB000002AC000039AC00001C
:1013000067AC000022AC0000F8B50D4628460E4937
:10131000164600F09CFB0D490446284600F097FB5A
:1013200020210746284600F01BFC2CB131462846F8
:10133000FFF712FF0020F8BD27B131462846FFF71E
:101340006FFFF7E70120F6E742AB000047AB000074
:1013500000231B60FFDEFFFF2DE9F04F89B0084638
:1013600004AF0D46914600F0AFFA041E04DD02F012
:101370000BF9204601F06EFDDAB00024FC6000F0AD
:1013800059FA0DF1100B786007F10C020A2158464A
:1013900001F09AFF224A38602249284600F0A7FA55
:1013A00029462046C847A0465E464FF0000A20E086
:1013B000736943451AD1B269FB68144423B16421AF
:1013C000B3FBF1F3B2FBF3F3317BCDE90232338CA3
:1013D0009B00CDE90083144B726853F82130134908
:1013E000284600F084FA29460020C8470AF1010A7D
:1013F00024363B685345DBD108F10108B8F10A0FE8
:10140000D2D17B680A491A1B284600F070FA294697
:101410000020C84700201437BD46BDE8F08F00BF4C
:10142000F0AC0000F5AC000070AD000020AD000095
:101430003DAD000030B50C468BB016492046154630
:1014400000F005FB88B105AB6A461349204600F061
:101450005BFA05A801F022FD10B92146A84701E07A
:1014600001F0B8FD00200BB030BD0C49204600F063
:10147000EEFA68B105AB6A460749204600F044FA27
:1014800005A801F00BFD0028E7D001F091FBE9E78A
:101490000349E3E7B9AC0000C1AC0000CBAC0000ED
:1014A000D2AC000073B500220E460120042100F0EA
:1014B0002DFE0E4D0E4C286000220421012000F06C
:1014C00025FE0C490C4B20600B604FF0FF320023CF
:1014D000286800F041FE00234FF0FF3201A9206888
:1014E000019600F039FE002002B070BD1C11001002
:1014F0001811001020110010D9A90000F8B50446F9
:101500000D4600F0FDF8061941EB050701F028FF34
:1015100002280CD100234FF47A72AB4208BFA242DA
:1015200005D22046294603F08DFA01F093FC00F025
:10153000E7F8B94208BFB042F9D3F8BD4FF47A7367
:10154000A0FB0301FFF7DABF30B585B002F06EF8FB
:1015500002F006F9ADF8080002F014F9ADF80A003F
:1015600002F022F9ADF80C0002F030F90024ADF8D9
:101570000E0004AA04F0030302EB4303013433F822
:10158000080C02F0E1F93220FFF7D8FF202CF0D14F
:1015900045F6C05002F0A0FC002223492348FFF783
:1015A00055F9234B1868002319460222406804F0BD
:1015B00075FDFEF737FE002501464FF4E1320020AD
:1015C00002F01EFD00951B4B1B4A0121204600F036
:1015D00053FD1A4B00950446194A0121802000F062
:1015E0004BFD22460146284602F056FD154A164993
:1015F0001648174D04F0A0FCFEF714FE15490246EC
:10160000022002F0DBFA0224E1B2022002F096FB93
:1016100018B12146284604F08FFC0234B4F5807FCF
:10162000F2D105B030BD00BFD3A800003C0C0010C3
:1016300084010010EC0B0010CC0B0010F40E001015
:10164000740E001084AD000095AD0000E6AD000002
:1016500003AE0000801A060010B50A4C236823B9B7
:101660000949012000F026FE206001F079FE0228E1
:1016700006D120684FF0FF31BDE8104000F090BF68
:1016800010BD00BF440F0010480F001010B501F04E
:1016900067FE022808D1054800231A46194600684B
:1016A000BDE8104000F058BD10BD00BF440F001051
:1016B000074A08B51368002101330846136002F099
:1016C0009FF900210846BDE8084002F087B900BF35
:1016D000980F001008B5074A0749B0FBF1F1002048
:1016E000013902F045F90021044A0846BDE80840E6
:1016F00002F062B9B116000040420F000087930368
:1017000070B5084E002002F073F9054600203468D9
:1017100002F06EF98542F5D8034B0021E3FB04018A
:1017200070BD00BF980F00100087930308B5FFF746
:10173000E7FF4FF47A72002303F084F908BD70B517
:10174000054608460C4604F0BAFD2618B44205D1F9
:1017500028460A21BDE8704002F0DCBC14F8011BE9
:10176000284602F0D7FCF1E708B51148114C124D9C
:10177000124E04F07BFC00220421012000F0C6FC84
:10178000002220600421012000F0C0FC0C4B1860F6
:10179000FFF798FC4FF0FF320749206800F062FE27
:1017A0000028F7D0B542F5D100F00CF8F2E700BF01
:1017B0002AAE00001C11001024110010D9A900004D
:1017C000181100107047FFFF0C460020044908B5AF
:1017D000FFF7B5FF21460020FFF7B1FFFEE700BF8E
:1017E00072AF000008B502490020FFF7A8FFFEE72E
:1017F00038AF000008B50C4600200A49FFF79FFFEC
:1018000009490020FFF79BFF08490020FFF797FFD9
:1018100007490020FFF793FF21460020FFF78FFFC5
:10182000FEE700BF40AE000092AE0000D5AE000063
:1018300009AF000008B5FFF763FF024B1B68C01A31
:1018400008BD00BFA00F001008B5FFF759FF024BFD
:10185000C3E9000108BD00BFA00F001038B50D4658
:10186000044658B103290BD90A46002103F03EFB78
:1018700023462A0A03F8022B65701C46204638BD11
:101880000024FBE710F8023C10F8010C40EA0320AA
:10189000033880B2704708B5FFF7F4FF013080B21B
:1018A00008BD08B510B104F00AFD80B208BD10B53E
:1018B0000446FFF7F6FF02462046FFF7E3FF8242A9
:1018C00034BF0020012010BD03F03EBA0023037096
:1018D000704710B50446FFF7DEFF13460A4601467F
:1018E000204605F0F3FB20EAE07080B210BD0EB494
:1018F00003B503AA52F8041B0192FFF7EAFF02B0F6
:101900005DF804EB03B070470EB403B503AA52F8B8
:10191000041B019205F00CFC0028CCBF80B2002013
:1019200002B05DF804EB03B0704738B505460C46CD
:10193000084671B104F0C3FC01462846FFF7A2FF38
:1019400089B28142024605D82146284604F0F4FCBB
:10195000012038BD0020FCE738B51546FFF77EFFB3
:10196000044610B12946FFF7E0FF204638BD2DE9B7
:10197000F04105460F4614460AB3FFF792FFB842FE
:1019800006461CD3204604F09AFC321880462846AE
:1019900092B2FFF777FF824211D8C7F101023D44AE
:1019A000324492B2294605EB080003F085FA42461C
:1019B0002146284604F0C0FC0120BDE8F08100204B
:1019C000FBE770B506460C46A9B1FFF76AFF05466E
:1019D000204604F074FC82B2A918304689B2FFF7A1
:1019E00051FF884207D3013292B22146701903F0A9
:1019F00055FA012070BD0020FCE707B500238DF8E3
:101A0000041001A98DF80530FFF7DBFF03B05DF886
:101A100004FB08B529B104F029FCB0FA80F04009B4
:101A200008BD0846FCE770B5064615460C4661B190
:101A3000FFF737FFA84208D32A462146304604F074
:101A400069FCB0FA80F0400970BD0020FCE770B579
:101A500005460C4681B1FFF724FF0646204604F0F8
:101A60002EFC8642024607D32146284604F030FC6D
:101A7000B0FA80F0400970BD0020FCE72DE9F0418C
:101A8000074614460D46C9B1C2B1FFF70AFF8046AA
:101A9000284604F014FC804506460FD3024629462A
:101AA000384604F037FC48B9B85D237883421ABF42
:101AB000B0FA80F040090120BDE8F0810020FBE78A
:101AC00010B50446FFF7EDFE40B1013880B2205C4E
:101AD0000D2804D0A0F10A035842584110BD01203E
:101AE000FCE770B50C4605461646FFF7DAFEA04245
:101AF00011D9011BB142C4F101030A461844A8BF21
:101B00003246801A14FA82F1294482B2281903F06D
:101B1000D3F9012070BD0020FCE70A460021FFF741
:101B2000E0BF38B50C460546FFF7BBFEA04224BF18
:101B3000001B81B22246284638BF0021BDE838404C
:101B4000FFF7CFBF10B5044604F009FC031E1FBF0A
:101B50001B1B9BB2002201200CBF0020E25410BDD1
:101B600010B5044604F09EFB38B1011B013120463C
:101B700089B2BDE81040FFF7D0BF10BD70B5064672
:101B8000054611480C462B4613F8011BC9B10A5CE7
:101B9000520714D524B1284603F0D6F8206001245A
:101BA000094A294615F8013B13B19B5C5B07F8D441
:101BB000891B89B23046FFF7B0FF204670BD1D4635
:101BC000E1E70C46ECE700BFB1B50000F8B506460A
:101BD0000C46C9B1FFF765FE0546204604F06FFBD1
:101BE0006B1E33442044013E0021B34202D0224602
:101BF000824201D1012008E012F8015B1F78AF4258
:101C0000F6D103F80119F0E70846F8BD08B501F070
:101C1000F1FC00F04DF8BDE8084001F0FFBC08B54C
:101C200001F0E8FC00F08CF8BDE8084001F0F6BCDB
:101C300008B501F0DFFC00F0B5F8BDE8084001F0A0
:101C4000EDBCFFFF07B5002301930B4B1B6801336D
:101C500004D00A49EF20FFF7CDFDFEE74FF018034F
:101C600083F31188BFF36F8FBFF34F8F019B002B5E
:101C7000FCD003B05DF804FBB00F00108FAF000084
:101C80004FF0807340F8043C074B40F80C3C21F0C7
:101C900001016FF0020340F8081C40F8202C40F8C6
:101CA000243C4438704700BF451C0000FFFFFFFF85
:101CB000074B19680868B0E8F04F80F30988BFF354
:101CC0006F8F4FF0000080F311887047AFF30080F2
:101CD000B40F001008B54FF0180383F31188BFF359
:101CE0006F8FBFF34F8F094A13680133012B1360C5
:101CF0000AD1074B1B6813F0FF0F05D0054940F2CE
:101D0000AB10FFF777FDFEE708BD00BFB00F001076
:101D100004ED00E0A9AF0000074A08B513682BB92D
:101D200006494FF4D970FFF765FDFEE7013B1360EC
:101D30000BB983F3118808BDB00F0010DEAF0000AF
:101D4000EFF30980BFF36F8F154B1A681EF0100F69
:101D500008BF20ED108A20E9F04F10602DE909003E
:101D60004FF0180080F31188BFF34F8FBFF36F8FD0
:101D700001F0D2F84FF0000080F3118809BC196817
:101D80000868B0E8F04F1EF0100F08BFB0EC108AE2
:101D900080F30988BFF36F8F704700BFAFF30080F7
:101DA000B40F001008B54FF0180383F31188BFF388
:101DB0006F8FBFF34F8F00F045FF18B1034B4FF00B
:101DC00080521A60002383F3118808BD04ED00E0FF
:101DD00008B5EFF305830F2B0BD90D4A9B5C0D4A19
:101DE00012789A4205D90C4940F2FE20FFF702FD15
:101DF000FEE70A4B0A4A1B68126803F4E063934249
:101E000005D9084940F20E30FFF7F4FCFEE708BDA3
:101E1000F0E300E0A80F0010F0AF00000CED00E0D0
:101E2000AC0F00101AB0000010B5044600F002FF1D
:101E3000204603F023F8044600F096FF0CB9FFF7A4
:101E4000D1FC204610BD10B5044640B100F0F2FEB2
:101E5000204603F01BF8BDE8104000F085BF10BD20
:101E600000F108034FF0FF324360C0E90223036131
:101E700000230360704700230361704743684B6091
:101E80009A688A609A6851609960036808610133B2
:101E9000036070470A68531C30B50AD103695A6859
:101EA0004A6091608B605960036808610133036088
:101EB00030BD00F108035C6825689542EFD82346E1
:101EC000F9E7D0E9011203698A60516059688142DB
:101ED00008BF5A60002202611A68013A1A60186845
:101EE000704710B50446FFF7F5FEA46BFFF714FF2B
:101EF000B4FA84F0400910BDF8B51546026C866B43
:101F0000044652B9076847BB806801F08BFAA760A6
:101F100005460136A6632846F8BD65B9406802F05B
:101F2000BDFF6368226C1344A26863609342F0D3E0
:101F300023686360EDE7C06802F0B0FF236CE268DD
:101F400021685B421A448A42E2603EBFA2689B1845
:101F5000E360022D01D116B1013E0025D9E73546D7
:101F6000D7E7034610B41A6C084662B1D9689C687A
:101F70001144A142D96024BF1968D960D9685DF8BD
:101F8000044B02F08BBF5DF8044B704770B50446FC
:101F9000FFF7A0FE94F8455004F124066DB2002D21
:101FA00014DCFF2384F84530FFF7B6FEFFF792FEFE
:101FB00094F8445004F110066DB2002D12DCFF239A
:101FC00084F84430BDE87040FFF7A6BE636A002B7A
:101FD000E7D0304601F080F808B101F003F9013D87
:101FE0006DB2DCE72369002BE9D0304601F074F8CC
:101FF00008B101F0F7F8013D6DB2DEE738B50D46E6
:10200000044628B91A4940F20310FFF7F3FBFEE734
:10201000FFF760FED4E90F30226862604343D118B5
:102020001B1A1344A160E3600021FF23A16384F81D
:10203000443084F8453095B9236963B104F1100048
:1020400001F04AF838B10B4B4FF080521A60BFF3E1
:102050004F8FBFF36F8FFFF75FFE012038BD04F194
:102060001000FFF7FDFE04F12400FFF7F9FEF2E790
:102070001FB1000004ED00E013B51C4628B91E494D
:102080004FF49D70FFF7B6FBFEE72BB91B494FF4E9
:102090009F70FFF7AFFBFEE732B161B918494FF40B
:1020A000A170FFF7A7FBFEE729B1164940F24310E4
:1020B000FFF7A0FBFEE750230193019B502B05D0B7
:1020C000114940F24B10FFF795FBFEE7002908BFCE
:1020D0002246019B22600123C4E90F0184F84630A7
:1020E00019462046FFF78AFF9DF8103084F84C30DF
:1020F000204602B010BD00BF5CB000007EB0000002
:1021000094B00000CCB0000004B10000F8B50D465A
:102110001746064628B90F494FF4BB70FFF76AFB14
:10212000FEE748435030FFF77FFE044670B10023BE
:1021300080F8463065B100F150032360C4E90F65B3
:1021400001212046FFF75AFF84F84C702046F8BD65
:102150000346F2E75CB000002DE9FF478846019294
:102160001F46044628B94E4940F2F120FFF742FBD2
:10217000FEE739B9036C2BB14A4940F2F220FFF770
:1021800039FBFEE7022F08D1E36B012B05D046494E
:1021900040F2F320FFF72EFBFEE701F0E1F80646E0
:1021A00038B9019B33B1414940F2F620FFF722FBD9
:1021B000FEE700264FF00009DFF8F4A037E0019DAC
:1021C0001DB9FFF7A9FD002050E016B902A800F0E4
:1021D000C3FFFFF7A1FD00F02DFDFFF77BFD94F895
:1021E0004430FF2B08BF84F8449094F84530FF2B0F
:1021F00008BF84F84590FFF78FFD01A902A800F001
:10220000B7FF002846D1FFF765FDA26BE36B9A424A
:102210002FD1FFF781FD019904F1100000F044FF78
:102220002046FFF7B3FE00F09FFD50B30126FFF7F5
:1022300051FDA26BE36B9A4201D3022FBFD13A4604
:1022400041462046FFF758FE636A1BB104F12400A3
:1022500000F042FF38B1164B4FF080521A60BFF3C6
:102260004F8FBFF36F8FFFF757FD012004B0BDE81C
:10227000F087FFF751FD2046FFF788FE00F074FD60
:10228000D4E74FF08053CAF80030BFF34F8FBFF34D
:102290006F8FCBE72046FFF779FE00F065FD92E7F0
:1022A0001FB1000027B1000077B10000BEB10000EF
:1022B00004ED00E013B5002200900B46012011460A
:1022C000FFF7DAFE044638B1002383600360C36081
:1022D0001A461946FFF740FF204602B010BD10B560
:1022E000024600210120FFF711FF044638B1002308
:1022F00083600360C3601A461946FFF72DFF20462E
:1023000010BDFFFF2DE9F843894690461F4604465D
:1023100028B9284940F2C330FFF76CFAFEE739B913
:10232000036C2BB124494FF47170FFF763FAFEE799
:10233000022F08D1E36B012B05D0204940F2C530B4
:10234000FFF758FAFEE7FFF743FDEFF311864FF072
:10235000180383F31188BFF36F8FBFF34F8FA26B06
:10236000E36B9A4201D3022F22D194F845503A46AA
:102370006DB249462046FFF7BFFD6B1C13D1636A5F
:102380000BB901200BE004F1240000F0A5FE0028A9
:10239000F7D0B8F1000FF4D00120C8F8000086F3A0
:1023A0001188BDE8F88301356DB284F84550E8E73F
:1023B0000020F4E71FB1000027B1000077B1000052
:1023C00070B50D46044628B923494FF48C60FFF7D9
:1023D00011FAFEE7036C2BB1204940F26440FFF78D
:1023E00009FAFEE703683BB983682BB11C4940F248
:1023F0006940FFF7FFF9FEE7FFF7EAFCEFF311860C
:102400004FF0180383F31188BFF36F8FBFF34F8F23
:10241000A26BE36B93421CD994F8453001325BB256
:10242000A2635A1C10D1636A0BB9012009E004F1C0
:10243000240000F051FE0028F7D0002DF5D0012037
:10244000286086F3118870BD01335BB284F8453093
:10245000EBE70020F5E700BF1FB1000014B2000059
:102460002DB200002DE9F04385B00F4601920446DD
:1024700028B947494FF4A060FFF7BCF9FEE739B926
:10248000036C2BB1434940F20450FFF7B3F9FEE768
:1024900000F066FF064638B9019B33B13E4940F271
:1024A0000950FFF7A7F9FEE700264FF00008DFF814
:1024B000EC903BE0019D1DB9FFF72EFC002052E09F
:1024C00016B902A800F048FEFFF726FC00F0B2FBA8
:1024D000FFF700FC94F84430FF2B08BF84F84480D9
:1024E00094F84530FF2B08BF84F84580FFF714FCB3
:1024F00001A902A800F03CFE00283DD12046FFF7CC
:10250000F0FC98B3019904F1240000F0CDFD2046C1
:10251000FFF73CFD00F028FC38B94FF08053C9F8B4
:102520000030BFF34F8FBFF36F8F0126FFF7D2FB51
:10253000A56B002DBED039462046013DFFF711FDA9
:10254000A563236963B104F1100000F0C5FD38B143
:10255000124B4FF080521A60BFF34F8FBFF36F8F53
:10256000FFF7DAFB012005B0BDE8F0832046FFF756
:102570000DFD00F0F9FBD8E72046FFF707FD00F05E
:10258000F3FB2046FFF7ADFC0028CED096E700BF56
:1025900094B20000A0B20000BEB1000004ED00E063
:1025A0002DE9FF410446019128B9584940F2915064
:1025B000FFF720F9FEE7056C2DB1554940F2955023
:1025C000FFF718F9FEE700F0CBFE064638B9019B8D
:1025D00053B1504940F29A50FFF70CF9FEE72E46EE
:1025E0000027DFF838814EE00546F9E7019B4BB93B
:1025F0002DB1494940F2E150FFF7FCF8FEE7FFF743
:102600008BFB5EE016B902A800F0A6FDFFF784FB85
:1026100000F010FBFFF75EFB94F84430FF2B08BF7F
:1026200084F8447094F84530FF2B08BF84F8457057
:10263000FFF772FB01A902A800F09AFD00284AD119
:102640002046FFF74EFC00283FD023683BB9FFF738
:1026500041FBA06800F094FE0546FFF75DFB019981
:1026600004F1240000F020FD2046FFF78FFC00F06D
:102670007BFB38B94FF08053C8F80030BFF34F8F61
:10268000BFF36F8F0126FFF725FBA36B002BADD0A7
:10269000013BA363236813B900F06AFFA0602369BC
:1026A00063B104F1100000F017FD38B11B4B4FF07F
:1026B00080521A60BFF34F8FBFF36F8FFFF72CFB71
:1026C0000125284604B0BDE8F0812046FFF75EFCF6
:1026D00000F04AFBD6E72046FFF758FC00F044FB29
:1026E0002046FFF7FEFB0028CCD0002DE9D0FFF7F5
:1026F000F1FA616A19B1236B1968C1F10A01A06886
:1027000000F0DEFE0025FFF707FBDAE794B20000D9
:1027100014B20000BEB100003EB3000004ED00E0C2
:102720002DE9F84389469046054628B9214940F2EB
:10273000FB60FFF75FF8FEE739B9036C2BB11E4968
:1027400040F2FC60FFF756F8FEE7FFF741FBEFF3BE
:1027500011874FF0180383F31188BFF36F8FBFF316
:102760004F8FAC6B1CB395F84460494676B228464F
:10277000FFF7F7FB013C731CAC6313D12B690BB95A
:1027800001200BE005F1100000F0A6FC0028F7D0B6
:10279000B8F1000FF4D00120C8F8000087F31188C9
:1027A000BDE8F883013676B285F84460E8E7204654
:1027B000F4E700BF1FB10000F3B2000008B528B96C
:1027C000064940F2B770FFF715F8FEE790F846307B
:1027D0001BB9BDE80840FFF736BB08BD1FB10000BC
:1027E0000268F0B503461AB342685068586003F1B6
:1027F0000802904204BFD86858605868C768586893
:1028000040685860824204BF506858605868C06889
:102810004D1E00F1340400F1400C14F801EB15F8E2
:10282000016F764502D126B16445F6D18742E6D1E3
:102830000020F0BD43685B68436000F108029342EA
:1028400004BFC3684360436830B5DC6800255B683B
:102850009A4208BF5368D9688C420D65F7D143602E
:1028600030BDFFFF2DE9F0410446FFF733FA2D4B51
:102870002D4D1A682D4F01321A602E68002E46D158
:102880002C601B68012B1CD1B84640460136FFF76F
:10289000E7FA0A2E08F11408F7D1DFF8B880244EC1
:1028A0004046FFF7DDFA3046FFF7DAFA2148FFF736
:1028B000D7FA2148FFF7D4FA204BC3F80080204B09
:1028C0001E60204A20491368086801331360E26AD9
:1028D000236401239340034314200B6000FB027028
:1028E000211DFFF7CBFAFFF717FA184B1B6863B1EE
:1028F0002B68DA6AE36A9A4207D2154B4FF080528E
:102900001A60BFF34F8FBFF36F8FBDE8F0810F4B9D
:102910001B68002BD5D12B68DA6AE36A9A4298BF0C
:102920002C60CEE78C100010B40F0010C00F001008
:10293000B4100010D0100010E8100010B80F0010F4
:10294000BC0F0010981000109C100010E410001034
:1029500004ED00E0A0100010064A13681968064B49
:1029600019B94FF0FF321A6070471268D268D26806
:102970005268F8E7B80F0010C810001008B528B961
:10298000094940F20E70FEF735FFFEE74269074B3A
:102990009A4207D1806A064B984203D0B0FA80F081
:1029A000400908BD0020FCE764B30000E8100010F7
:1029B000D01000102DE9F047DDE909644FEA8209E3
:1029C0004A4607460D46206BA521984602F08EFA2E
:1029D000236BA9F10409994429F007099DB36B1EE3
:1029E00004F134020B3513F8011F02F8011B09B181
:1029F000AB42F8D1002384F83F30089D092D28BF51
:102A000009254FF0000AE562A564201DC4F84CA01A
:102A1000FFF731FAC5F10A0504F11800FFF72BFAA8
:102A2000C4F854A02461A5616462C4F850A084F87D
:102A300058A0424639464846FFF722F9206006B1C1
:102A40003460BDE8F08784F83450D6E7F8B51B4B06
:102A50001B4E1C680546306804300F46FFF731FAFC
:102A6000334640B93168174EC96A32680120884040
:102A700022EA000232606A1C07D137B11968124895
:102A80000431BDE8F840FFF7F9B91A6864195460D9
:102A900007D30E4A10681968BDE8F8400431FFF703
:102AA000F9B90B4A106819680431FFF7F3F9094BBB
:102AB0001A68A24288BF1C60F8BD00BFFC1000105D
:102AC000B40F00109C100010E8100010BC0F001094
:102AD000B80F0010C810001070B586B0DDE90B54B7
:102AE0002DB9154940F24D20FEF784FEFEE72CB9C2
:102AF000124940F24E20FEF77DFEFEE75C26059669
:102B0000059E5C2E05D00E4940F25620FEF772FE5F
:102B1000FEE72563022584F8595004AD01950A9D0E
:102B200002940095059EFFF745FF2046FFF79AFEA9
:102B3000049806B070BD00BF3EB4000055B400005C
:102B40006AB40000F8B5044628B914494FF4AD60E2
:102B5000FEF750FEFEE7124B1B68834218D0FFF7CA
:102B6000B9F8104B65691F680F4B1E68FFF7D4F862
:102B7000BD4211D0B5420FD00C4B9D420AD1A36A81
:102B800053B994F85830012B0CBF02200320F8BD34
:102B90000020FCE70120FAE70220F8E75EB300001E
:102BA000B40F0010B80F0010BC0F0010E810001098
:102BB00070B5044628B91A494FF4E760FEF71AFECB
:102BC000FEE7184D2B68834228D0FFF783F8204694
:102BD000FFF7D4FEF0B1261D3046FFF772F9124917
:102BE000E26A08680123934003430B600F4B1420F3
:102BF00000FB02303146FFF741F92B68E26ADB6ADD
:102C00009A4207D30A4B4FF080521A60BFF34F8F9E
:102C1000BFF36F8FBDE87040FFF77EB870BD00BF97
:102C2000D1B30000B40F00109C100010C00F0010B2
:102C300004ED00E0024A136801331360704700BFDF
:102C4000941000102DE9F84F3B4B1B68002B6BD103
:102C50003A4B1C6801341C60A4B9394B1A681268DD
:102C60002AB1384940F67F20FEF7C4FDFEE7364A18
:102C70001968106818601160344A136801331360D2
:102C8000FFF76AFE324D334F2B68A3424FF0000B23
:102C900011D93A68304BD16A14224A439A58022A11
:102CA00028BF4FF0010B2D4A1268002A0CBF58466E
:102CB0000120BDE8F88FDFF888A0DFF8A890DAF8E7
:102CC000002012681AB94FF0FF322A60E1E7DAF803
:102CD0000020D268D66871688C4201D22960D8E79A
:102CE00006F104084046FFF7ECF8B16A19B106F1A5
:102CF0001800FFF7E6F8F06AD9F80030012202FA6E
:102D000000F11943144BC9F800104FF0140C414660
:102D10000CFB0030FFF7B2F83868F16AC26A9142E2
:102D200028BF4FF0010BCAE70D4A13680133136047
:102D30004FF0000BB7E700BF94100010FC1000101C
:102D4000B80F0010B5B40000BC0F0010CC1000107C
:102D5000C8100010B40F0010C00F001000110010B8
:102D6000901000109C1000102DE9F8432F4C2368A0
:102D70002BB92F4940F68500FEF73CFDFEE7FEF734
:102D8000A9FF2368013B236024682CB10024FEF7CF
:102D9000C3FF2046BDE8F883264B1B68002BF5D007
:102DA000254D264EDFF8A8801FE0EB68DC6804F1B3
:102DB000040904F11800FFF784F84846FFF781F88A
:102DC000E26A3168012707FA02F314200B4300FB83
:102DD000028049463360FFF751F8194BE26A1B68DD
:102DE000DB6A9A4201D3174B1F602B68002BDCD1A2
:102DF0000CB1FFF7B1FD144D2C6844B1114E012701
:102E0000FFF720FF00B13760013CF9D12C600D4B7A
:102E10001B68002BBAD00D4B4FF080521A60BFF3E5
:102E20004F8FBFF36F8F0124B1E700BF94100010E4
:102E30001AB500008C100010D01000109C1000106B
:102E4000B40F0010001100109010001004ED00E00D
:102E5000C00F001008B540B90D4B4FF080521A60FA
:102E6000BFF34F8FBFF36F8F08BD0A4B196829B1AD
:102E7000094940F23C50FEF7BDFCFEE7FFF7DAFEE1
:102E8000FFF7E4FDFFF770FF0028E5D0ECE700BF97
:102E900004ED00E09410001095B300002DE9F0411E
:102EA000054603F00CFA0B2805D9164940F67A10AE
:102EB000FEF7A0FCFEE7FFF7BDFEDFF858800A260C
:102EC0001427013E294607FB0680FFF789FC0446CC
:102ED00090B9002EF5D10C4B1868FFF781FC044621
:102EE00050B90A4B29461868FFF77AFC044618B90E
:102EF0000748FFF775FC0446FFF736FF2046BDE89C
:102F0000F08100BF83B40000B80F0010BC0F0010A8
:102F1000E8100010C00F001038B5274B1A68274B77
:102F200012B101221A6038BD1A60FEF783FC244AF0
:102F3000244C1568A84204D921680B6D5B1B03441F
:102F40000B65236810601B6B1A68B2F1A53F0BD1AB
:102F50005A68B2F1A53F07D19A68B2F1A53F03D1F3
:102F6000DB68B3F1A53F04D0206821683431FEF757
:102F70002BFC154B1B68B3FA83F3DBB2C3F11F03C1
:102F8000142212495A4388188D582DB9104940F619
:102F9000B730FEF72FFCFEE7456808326D684560E4
:102FA0000A44954204BF6A684260142202FB03137C
:102FB0005B68DB682360B6E7941000100011001016
:102FC00088100010B40F00109C100010C00F0010EB
:102FD000E9B3000070B504462A4EFEF77BFE04B943
:102FE0003468251D2846FEF76CFF60B9E06A264B61
:102FF000142141435B5833B9244901220B688240B4
:1030000023EA02030B60A36A1BB104F11800FEF768
:1030100058FF29461E481F4DFEF730FF94F85830E0
:10302000012B04BF002384F85830FEF775FE2A6890
:103030002AB1FEF74FFEFFF78FFCFEF76DFE3368F7
:10304000A34212D12B688BB1134B1B682BB11349D0
:1030500040F2E460FEF7CEFBFEE7114B4FF08052EA
:103060001A60BFF34F8FBFF36F8F70BD084A1168AE
:103070000C4A1268914201D13360F6E7BDE8704016
:10308000FFF74ABFB40F0010C00F00109C100010D3
:10309000E8100010E41000109410001095B3000028
:1030A00004ED00E08C10001010B50C4628B908495A
:1030B00040F6CE30FEF79EFBFEE7064B196818314E
:1030C000FEF7E8FE20460121BDE81040FFF7BEBC38
:1030D000AFB30000B40F001038B5C368DC682CB97A
:1030E000164940F62940FEF785FBFEE704F1180576
:1030F0002846FEF7E6FE124B1B68E3B9251D28465D
:10310000FEF7DFFE0F49E26A08680123934003439C
:103110000B600D4B1420294600FB0230FEF7AEFE7B
:103120000A4BE26A1B68DB6A9A4283BF084B0120A4
:103130001860002038BD29460648EFE70BB50000AF
:10314000941000109C100010C00F0010B40F00105D
:1031500000110010D0100010034B1B680360034BDC
:103160001B684360704700BFCC100010FC100010BB
:1031700070B50C46054628B9164940F69440FEF74E
:1031800039FBFEE729B9144940F69540FEF732FBBA
:10319000FEE7FEF79FFD114B196823685A1C10D0FB
:1031A0000F482E6800686A68864201D08A420FD9AB
:1031B000881A83420AD95B1A134423602846FFF712
:1031C000CBFF0024FEF7A8FD204670BD002323603E
:1031D0000124F7E7DFB3000030B40000FC1000105A
:1031E000CC100010014B01221A6070470011001032
:1031F00070B50C461646054608B91B4A1568256089
:1032000005F134026260EA6A22612A6BE2612A6C8B
:10321000A260AA6C6261052B2A6DA2611AD0124AC3
:103220001268AA420AD100232373D6B1296B002366
:10323000CA5CA52A13D09B08238470BD032B23737B
:10324000F3D1FFF7F7FCAB6A0BB102232373FFF74F
:103250008BFDEAE72846FFF775FC2073E5E70133AD
:10326000E6E72684E9E700BFB40F00102DE9F84F28
:103270000D6881460C46934615B34B685B684B60FE
:1032800001F10806B34204BFCB684B604B68D3F82A
:103290000C8000254FF0240A63685B6863609E42DF
:1032A00004BF736863606368DF680AFB05915B466F
:1032B00001223846FFF79CFFB84505F10105EBD127
:1032C0002846BDE8F88FFFFF2DE9F04705469046F8
:1032D000FFF7B0FC1D4B1B688B4234D8DFF87C90A5
:1032E0000A2700244FF0140A2426013F06FB04504D
:1032F00001220AFB0791FFF7B9FF0444002FF4D124
:10330000134B0222196806FB0450FFF7AFFF114B65
:1033100004441968022206FB0450FFF7A7FF044487
:1033200006FB045003220C49FFF7A0FF0444B8F148
:10333000000F03D0FEF77EFAC8F80000FFF714FD77
:103340002046BDE8F0870024F8E700BF8C1000108D
:10335000B80F0010BC0F0010E8100010C00F0010D4
:10336000054B1B6833B1054B1B68002B0CBF0220BB
:103370000020704701207047E410001094100010E6
:103380002DE9F0410446002835D0234AC36A11686C
:10339000C96A8B42174636D28269204D002AA1BFE6
:1033A0003A68D26AC2F10A0282611426426906FBB7
:1033B00003539A4221D100F104084046FEF781FDF3
:1033C000174B48B9E06A4643AA592AB91A6801213D
:1033D000814022EA01021A603A681968D26AE26200
:1033E000012404FA02F0084318601420414600FB4F
:1033F0000250FEF743FD204603E03B68DB6AC362F0
:103400000120BDE8F0811368806CDC6AA0422CBF0B
:1034100000200120F5E700BFB40F0010C00F00101E
:103420009C100010F8B5044608B90020F8BD1F4BE9
:103430001B68834205D01E4940F6D170FEF7DAF9C9
:10344000FEE7DB6C2BB91B4940F6D270FEF7D2F9D0
:10345000FEE7C16A826C013B9142C364E5D0002B58
:10346000E3D1051D2846FEF72CFD134E134A50B933
:10347000E76A1421794373582BB913680120B840C7
:1034800023EA00031360A36CE362C3F10A01A161A4
:103490001168012404FA03F008431060142000FBB3
:1034A00003602946FEF7EAFC2046BFE7B40F001090
:1034B000E0B40000F6B40000C00F00109C10001033
:1034C000F8B50446002847D0C26C2AB923494FF406
:1034D0008150FEF78FF9FEE7836C994238BF194699
:1034E000C36A8B4238D0012A36D11D4A1268824203
:1034F00005D11C4941F23B00FEF77CF9FEE78269E9
:10350000194DC162002A4FF014064269A8BFC1F1EB
:103510000A0106FB0353A8BF81619A421CD1071D13
:103520003846FEF7CEFCE26A104C40B95643AB5920
:103530002BB923680121914023EA0103236021680C
:10354000012393400B4314202360394600FB0250B3
:10355000BDE8F840FEF792BCF8BD00BFF6B400002D
:10356000B40F0010BBB30000C00F00109C1000107F
:10357000044B1A681AB11968CA6C0132CA64186817
:10358000704700BFB40F001070B5FFF753FB144D28
:103590000A241426013C06FB04F3E818EB580BB18F
:1035A000FFF748F9002CF5D10E4B1A68126812B1DA
:1035B0001868FFF73FF90C4B1A68126812B11868C7
:1035C000FFF738F9094803680BB1FFF733F9084BE7
:1035D00000221A60FEF738F9BDE87040FFF7C4BB5F
:1035E000C00F0010B80F0010BC0F0010E810001042
:1035F0008810001010B5FEF71DF9064B064A196831
:1036000029B1196814680B6D1B1B03440B6510600E
:1036100010BD00BFB40F00108810001008B5FEF7F1
:1036200009F9014B186008BD8810001007B5012288
:103630000221002000F0F4F801220321002000F014
:10364000EFF804220021012000F0EAF80121042211
:10365000084600F0E5F804221146012000F0E0F8E9
:103660000821012000F032F92B4B4FF480729A614F
:103670000921012000F00AF902220A21002000F0AD
:10368000CFF802220B21ADF80000002000F0C8F8AE
:10369000ADF80400009800F0D2F8019800F0CFF8DF
:1036A0000321022000F012F91C4B00B21870C0F385
:1036B000072058701A21012000F008F9184B00B2B9
:1036C0001870C0F3072058701821012000F0FEF890
:1036D000144B00B21870C0F307205870122101205B
:1036E00000F0F4F8104B00B21870C0F307205870C7
:1036F0000A21012000F0CAF80F21012000F0C6F8CD
:103700001E21002000F0C2F81D21002003B05DF84A
:1037100004EB00F0BBB800BF208009200A110010A4
:10372000081100100611001004110010024B4FF494
:103730008072DA61704700BF20800920024B4FF48D
:1037400080729A61704700BF20800920034B58693E
:1037500080F40070C0F34020704700BF2080092033
:10376000074B82B01B88ADF804309DF80430002070
:1037700063F307009DF8053063F30F2002B0704734
:1037800004110010074B82B01B88ADF804309DF87F
:103790000430002063F307009DF8053063F30F2029
:1037A00002B0704706110010074B82B01B88ADF8BD
:1037B00004309DF80430002063F307009DF80530C5
:1037C00063F30F2002B0704708110010074B82B05E
:1037D0001B88ADF804309DF80430002063F3070027
:1037E0009DF8053063F30F2002B070470A110010F6
:1037F00082B0C3B2ADF80400C0F30720800000EB34
:10380000C31000F1804000F5303001F0070103687B
:1038100023F00703036003681943016002B0704797
:1038200037B58DF801108DF8000004460D4600985C
:103830001146FFF7DDFF44EA052003B030BD82B03A
:10384000C3B2ADF80400C0F30720800000EBC31042
:1038500000F1804000F53030036843F4806303607A
:1038600002B0704782B0084BADF80400C0B201222C
:1038700053F820109DF805000B68824023EA0203EC
:103880000B6002B0704700BF30B5000037B58DF84F
:1038900000008DF80110044600980D46FFF7E2FF86
:1038A00044EA052003B030BD82B0074BADF80400F8
:1038B000C0B253F820209DF8050011680123834011
:1038C0000B43136002B0704730B5000037B58DF878
:1038D00000008DF80110044600980D46FFF7E4FF44
:1038E00044EA052003B030BD82B0084BADF80400B7
:1038F000C0B29DF8051053F820305A6901238B405F
:10390000134214BF0120002002B0704730B5000000
:10391000C2B2054BC0F3072053F82220012382B026
:103920008340936102B0704730B50000C2B2054BCE
:10393000C0F3072053F82220012382B08340D361D3
:1039400002B0704730B5000007B5ADF8040001982B
:10395000FFF7CAFF28B1019803B05DF804EBFFF749
:10396000E5BF019803B05DF804EBFFF7D1BFFFFF9F
:103970002DE9F0410F4C04EBC00306461D792846A3
:103980000F46904600F00EFA54F8364000233F22CE
:1039900063604146A360284622606361A361E361DE
:1039A0002362636200F022FA0123E7606360BDE8EE
:1039B000F08100BF48B50000074B53F8303030B5F8
:1039C00001205C6901EB4105A84020435861183390
:1039D00043F8212030BD00BF48B50000034B53F829
:1039E0003020012303FA01F11160704748B500004F
:1039F000024B53F830309868704700BF48B500005C
:103A0000024B53F830309960704700BF48B5000052
:103A10002DE9F041044617461E468846FFF7A0FCF4
:103A2000002105466068FEF7BBFD00232373069B5B
:103A30006361079BA361236884F80D802022022D17
:103A4000A77326611A600BD140F6B8316068FEF7A3
:103A5000A7FD18B1207BB0FA80F04009BDE8F081E5
:103A600000216068FEF79CFD0028F9D0F2E7FFFF17
:103A700003685A68282A13B557D00AD8102A2CD0C0
:103A8000182A32D0082A09D1417B01F0FE01996041
:103A900028E0402A63D00DD8382A77D05A680273BC
:103AA00020229A6110221A6008229A611A68D206AE
:103AB000FCD426E0502A5BD0582AEFD102699968DD
:103AC00011700022826120229A6110221A6008225D
:103AD0009A611A68D106FCD413E0427B42F00102DD
:103AE0009A6008229A6102B010BD84692021996110
:103AF0000822C4B99961102119609A611A68D10627
:103B0000FCD4002301A940680193FEF759FC019BF6
:103B1000002BE8D01F4B4FF080521A60BFF34F8F3D
:103B2000BFF36F8FDFE7817BB1E7427BD20702D51E
:103B300020221A60D5E782694AB920229A611022B0
:103B40001A6008229A611A68D406FCD4D9E7416940
:103B5000013A11F8014B9C6041618261C1E720226A
:103B60009A618269012A4FF00402E2D89A61B8E7AB
:103B70000269996811700269013202618269013A31
:103B8000012A82614FF00402D3D1EFE75B6803732F
:103B9000B7E700BF04ED00E00148FFF769BF00BFD1
:103BA000940000100148FFF763BF00BF78000010C9
:103BB0000148FFF75DBF00BF5C0000102DE9F04336
:103BC000284B06461546884693E8070085B004ABA7
:103BD00003E9070040F60A33ADF800300C238DF8F6
:103BE00002301C237343204AD45802EB030904AB70
:103BF000334403220021012013F8107CFEF786FADB
:103C0000C9F804000120FEF76AFBC9F8080038462D
:103C100000F0C8F86C23A361144A154B904588BF87
:103C200098462823B5FBF8F25208C8215343B3FB4A
:103C3000F1F323613C235A430023B2FBF1F26261AA
:103C4000A36263622362E3604023236004AB03EB5F
:103C50008606384656F80C1C05B0BDE8F04300F067
:103C6000C5B800BF68B500005C00001040420F00FE
:103C7000A08601002DE9F3410F4690461D4623B969
:103C80000025284602B0BDE8F0810F4C1C2303FB41
:103C900000444FF0FF31A068FEF782FC0028EFD00F
:103CA0000026089B019342462B4647F001010096EF
:103CB0002046FFF7ADFE3346054632463146A06842
:103CC000FEF74AFADDE700BF5C0000101FB50023D5
:103CD0008DF80F30012300930DF10F03FFF7CAFF9A
:103CE0009DF80F0005B05DF804FBFFFFF7B50E4629
:103CF00017461D461BB90025284603B0F0BD0E4CE3
:103D00001C2303FB00444FF0FF31A068FEF748FC82
:103D10000028F0D0089B3A46CDE9005306F0FE019A
:103D200000232046FFF774FE002305461A46194675
:103D3000A068FEF711FADFE75C0000101FB5002253
:103D400000920DF10F038DF80F20FFF7CFFF05B0A4
:103D50005DF804FB1FB58DF80F30012300930DF1C2
:103D60000F03FFF7C3FF05B05DF804FBFEE7FFFF9D
:103D700008B5FFF73FFC084B084A1B78103BDBB245
:103D800052F823309847064B00221A601B68BDE8A2
:103D90000840FFF743BC00BF04ED00E0B000001096
:103DA0000C110010242809D8054B064A185CD2F8DB
:103DB000C410012383400B43C2F8C430704700BFD6
:103DC00074B5000000C00F4024289FBF054B064A71
:103DD000D3F8C430105C9ABF23FA00F000F0010061
:103DE0000020704700C00F4074B50000074B43F837
:103DF000201043B2002B08DB012200F01F0002FA62
:103E000000F05B09024A42F823007047B00000103E
:103E100000E100E073B54FF0FF33B1F5805F01932F
:103E200036D21D4C2369DE0734D41C4B1D69ED07C7
:103E300030D41B4D0326AE602E611A4D1D6002B3B7
:103E400001AE5E6041F00046DE6041F20F061E6189
:103E5000DAB1206041F0806140F68112E160656076
:103E60002261114A516A41F003015162D868C0F3DE
:103E70000B000028FAD1536A23F00303536202B007
:103E800070BD586041F00846DEE701AA2260E3E712
:103E90000120F4E70220F2E70001082020010820B9
:103EA0000000082008C00A4000C00A4010B50446BF
:103EB000FCF7B4F94FF47A73B0FBF3F00223B0FBD4
:103EC000F3F2A24202D8034A136110BD0233DBB2FF
:103ED000F5E700BF00C00A4010B504462420FFF7F4
:103EE00061FF0B4B07221A6002225A602046FFF73F
:103EF000DDFF1A20FFF756FF064B01221A631A6BEB
:103F0000D207FCD5044A0023936042F8183C10BD48
:103F100000C00A400000082020010820034B9860E0
:103F2000DA68D206FCD49868C0B2704700C00A4074
:103F30000122FFF76FBF0022FFF76CBF0268936892
:103F4000C3F34203022B73B5064623D0062B21D0C0
:103F5000012B34D100248DF803400194102501AACF
:103F60000DF103017068FEF7DBFB48B133689DF883
:103F700003201A70019B002B18BF0124013DEED1D4
:103F80000CB3124B4FF080521A60BFF34F8FBFF348
:103F90006F8F18E00024019433681A7DD207EFD5A3
:103FA0001B788DF8033001AA00230DF10301B068DE
:103FB000FEF7A8F9019B002B18BF0124ECE7137D45
:103FC000DBB20193019B02B070BD00BF04ED00E0C5
:103FD0000148FFF7B3BF00BF780100100148FFF7A9
:103FE000ADBF00BF6C0100100148FFF7A7BF00BFC5
:103FF000600100100148FFF7A1BF00BF540100108D
:10400000134B70B515460646185C0C462D01FFF79C
:10401000C9FEB4FBF5F307EE903AF8EE677AB6EE18
:10402000007A77EE877A0C20FCEEE77A7043094A33
:1040300017EE903A12589BB280211173190ADBB225
:1040400011711370102382F828300723137370BD89
:10405000ACB5000054010010074B10B50446185CC5
:10406000FFF7B2FE38B10C206043044B1B58187B9D
:10407000003018BF012010BDACB500005401001085
:10408000044A0C2303FB00204068003018BF0120C5
:10409000704700BF540100102DE9F04105468846E5
:1040A0001646FFF7D9FF074618B900273846BDE87E
:1040B000F081154C0C2303FB05439A6822B9B8F133
:1040C000000F01D0C3F808800C2303FB05435A6896
:1040D0000AB906B15E600C266E43A3199A68002ADD
:1040E000E3D05B68002BE0D0084B53F82510084B59
:1040F000585DFFF77BFEA35941221A7206221A72FD
:1041000007225A60D2E700BF540100109CB500009E
:10411000ACB5000038B50C234343074A0D46D458CC
:10412000FFF79AFF30B1237D9A06FCD52570237DD9
:104130009B06FCD538BD00BF5401001070B5044685
:1041400015460E46FFF70CF90F4B0C2202FB043408
:10415000A468B4B1022814D16B1C09D04FF47A7052
:10416000A5FB00014FF47A72002300F06BFC0546BA
:104170002A4631462046FEF775F9003018BF012067
:1041800070BD0020FCE700BF540100102DE9F8438A
:1041900006460F46124DFFF7E3F80C2404FB0653C6
:1041A00081463046D3F80880FFF756FFA0B1B9F139
:1041B000020F0AD1B8F1000F07D0394630464FF050
:1041C000FF32BDE8F843FFF7B9BF74432B591A7D9E
:1041D000D207FCD51B783B700020BDE8F88300BFF8
:1041E00054010010F7B51F4D8DF80710074616460D
:1041F000FFF7B6F80C2303FB07535C6864B302288F
:104200002DD1711C09D04FF47A70A6FB00014FF438
:104210007A72002300F016FC0646002332460DF1A8
:1042200007012046FDF798FF041C18BF0124FDF785
:1042300051FD0C2078432B182D582A7D520609D5A4
:1042400000220DF107015868FEF76AFA10B19DF8D7
:1042500007302B70FDF760FD204603B0F0BD002451
:10426000FAE700BF5401001081F0004102E000BFF6
:1042700083F0004330B54FEA41044FEA430594EA26
:10428000050F08BF90EA020F1FBF54EA000C55EA61
:10429000020C7FEA645C7FEA655C00F0E2804FEA32
:1042A0005454D4EB5555B8BF6D420CDD2C4480EA14
:1042B000020281EA030382EA000083EA010180EA44
:1042C000020281EA0303362D88BF30BD11F0004F92
:1042D0004FEA01314FF4801C4CEA113102D04042C8
:1042E00061EB410113F0004F4FEA03334CEA133303
:1042F00002D0524263EB430394EA050F00F0A7801B
:10430000A4F10104D5F1200E0DDB02FA0EFC22FA15
:1043100005F2801841F1000103FA0EF2801843FA09
:1043200005F359410EE0A5F120050EF1200E012AFA
:1043300003FA0EFC28BF4CF0020C43FA05F3C01838
:1043400051EBE37101F0004507D54FF0000EDCF1B1
:10435000000C7EEB00006EEB0101B1F5801F1BD35A
:10436000B1F5001F0CD349085FEA30004FEA3C0C5E
:1043700004F101044FEA445212F5800F80F09A8054
:10438000BCF1004F08BF5FEA500C50F1000041EB58
:10439000045141EA050130BD5FEA4C0C404141EB5C
:1043A000010111F4801FA4F10104E9D191F0000F83
:1043B00004BF01460020B1FA81F308BF2033A3F106
:1043C0000B03B3F120020CDA0C3208DD02F1140CFD
:1043D000C2F10C0201FA0CF021FA02F10CE002F138
:1043E0001402D8BFC2F1200C01FA02F120FA0CFC31
:1043F000DCBF41EA0C019040E41AA2BF01EB04517A
:10440000294330BD6FEA04041F3C1CDA0C340EDC77
:1044100004F11404C4F1200220FA04F001FA02F3BA
:1044200040EA030021FA04F345EA030130BDC4F178
:104430000C04C4F1200220FA02F001FA04F340EA6D
:104440000300294630BD21FA04F0294630BD94F01E
:10445000000F83F4801306BF81F480110134013D05
:104460004EE77FEA645C18BF7FEA655C29D094EA76
:10447000050F08BF90EA020F05D054EA000C04BFF4
:104480001946104630BD91EA030F1EBF00210020DF
:1044900030BD5FEA545C05D14000494128BF41F07E
:1044A000004130BD14F580043CBF01F5801130BDE2
:1044B00001F0004545F0FE4141F470014FF000006D
:1044C00030BD7FEA645C1ABF194610467FEA655C1E
:1044D0001CBF0B46024650EA013406BF52EA0335C0
:1044E00091EA030F41F4002130BD00BF90F0000FAE
:1044F00004BF0021704730B54FF4806404F13204EA
:104500004FF000054FF0000150E700BF90F0000FA2
:1045100004BF0021704730B54FF4806404F13204C9
:1045200010F0004548BF40424FF000013EE700BF99
:1045300042004FEAE2014FEA31014FEA02701FBF29
:1045400012F07F4393F07F4F81F06051704732F05B
:104550007F4208BF704793F07F4F04BF41F40021B2
:10456000704730B54FF4607401F0004521F0004110
:104570001CE700BF50EA010208BF704730B54FF09A
:1045800000050AE050EA010208BF704730B511F09B
:10459000004502D5404261EB41014FF4806404F1D3
:1045A00032045FEA915C3FF4D8AE4FF003025FEA59
:1045B000DC0C18BF03325FEADC0C18BF033202EBDD
:1045C000DC02C2F1200300FA03FC20FA02F001FA37
:1045D00003FE40EA0E0021FA02F11444BDE600BFDA
:1045E00070B54FF0FF0C4CF4E06C1CEA11541DBF89
:1045F0001CEA135594EA0C0F95EA0C0F00F0DEF854
:104600002C4481EA030621EA4C5123EA4C5350EA38
:10461000013518BF52EA033541F4801143F4801389
:1046200038D0A0FB02CE4FF00005E1FB02E506F01A
:104630000042E0FB03E54FF00006E1FB03569CF06F
:10464000000F18BF4EF0010EA4F1FF04B6F5007F75
:1046500064F5407404D25FEA4E0E6D4146EB0606E7
:1046600042EAC62141EA55514FEAC52040EA5E5070
:104670004FEACE2EB4F1FD0C88BFBCF5E06F1ED81A
:10468000BEF1004F08BF5FEA500E50F1000041EB51
:10469000045170BD06F0004646EA010140EA0200FE
:1046A00081EA0301B4EB5C04C2BFD4EB0C0541EA20
:1046B000045170BD41F480114FF0000E013C00F335
:1046C000AB8014F1360FDEBF002001F0004170BD59
:1046D000C4F10004203C35DA0C341BDC04F1140472
:1046E000C4F1200500FA05F320FA04F001FA05F2FE
:1046F00040EA020001F0004221F0004110EBD370CB
:1047000021FA04F642EB06015EEA430E08BF20EAF6
:10471000D37070BDC4F10C04C4F1200500FA04F399
:1047200020FA05F001FA04F240EA020001F000412B
:1047300010EBD37041F100015EEA430E08BF20EA9E
:10474000D37070BDC4F1200500FA05F24EEA020EE6
:1047500020FA04F301FA05F243EA020321FA04F015
:1047600001F0004121FA04F220EA020000EBD370CC
:104770005EEA430E08BF20EAD37070BD94F0000FCC
:104780000FD101F00046400041EB010111F4801F00
:1047900008BF013CF7D041EA060195F0000F18BFB1
:1047A000704703F00046520043EB030313F4801FED
:1047B00008BF013DF7D043EA0603704794EA0C0FA7
:1047C0000CEA135518BF95EA0C0F0CD050EA4106BD
:1047D00018BF52EA4306D1D181EA030101F000413A
:1047E0004FF0000070BD50EA410606BF1046194662
:1047F00052EA430619D094EA0C0F02D150EA01366E
:1048000013D195EA0C0F05D152EA03361CBF1046AE
:1048100019460AD181EA030101F0004141F0FE414D
:1048200041F470014FF0000070BD41F0FE4141F4D1
:10483000780170BD70B54FF0FF0C4CF4E06C1CEAD1
:1048400011541DBF1CEA135594EA0C0F95EA0C0F86
:1048500000F0A7F8A4EB050481EA030E52EA033541
:104860004FEA013100F088804FEA03334FF0805562
:1048700045EA131343EA12634FEA022245EA11158F
:1048800045EA10654FEA00260EF000419D4208BF40
:10489000964244F1FD0404F5407402D25B084FEAED
:1048A0003202B61A65EB03055B084FEA32024FF499
:1048B00080104FF4002CB6EB020E75EB030E22BFF6
:1048C000B61A754640EA0C005B084FEA3202B6EBB6
:1048D000020E75EB030E22BFB61A754640EA5C0065
:1048E0005B084FEA3202B6EB020E75EB030E22BFF5
:1048F000B61A754640EA9C005B084FEA3202B6EBF6
:10490000020E75EB030E22BFB61A754640EADC00B4
:1049100055EA060E18D04FEA051545EA16754FEA16
:1049200006164FEAC30343EA52734FEAC2025FEA34
:104930001C1CC0D111F4801F0BD141EA00014FF0C3
:1049400000004FF0004CB6E711F4801F04BF014394
:104950000020B4F1FD0C88BFBCF5E06F3FF6AFAEB0
:10496000B5EB030C04BFB6EB020C5FEA500C50F140
:10497000000041EB045170BD0EF0004E4EEA1131C3
:1049800014EB5C04C2BFD4EB0C0541EA045170BDCA
:1049900041F480114FF0000E013C90E645EA060E0E
:1049A0008DE60CEA135594EA0C0F08BF95EA0C0F3C
:1049B0003FF43BAF94EA0C0F0AD150EA01347FF484
:1049C00034AF95EA0C0F7FF425AF104619462CE75B
:1049D00095EA0C0F06D152EA03353FF4FDAE1046BE
:1049E000194622E750EA410618BF52EA43067FF40F
:1049F000C5AE50EA41047FF40DAF52EA43057FF49F
:104A0000EBAE12E74A0011D212F5001211D20DD509
:104A10006FF47873B3EB62520ED44FEAC12343F0C4
:104A2000004343EA505323FA02F070474FF000006E
:104A3000704750EA013002D14FF0FF3070474FF01D
:104A40000000704753B94AB9002908BF00281CBFAD
:104A50004FF0FF314FF0FF3000F074B9ADF1080CAA
:104A60006DE904CE00F006F8DDF804E0DDE902238C
:104A700004B070472DE9F047089E04468846002B95
:104A800040F085808A42154648D9B2FA82F24AB18E
:104A9000C2F1200701FA02F320FA07F7954047EA2E
:104AA000030894404FEA154E230CB8FBFEF71FFA9B
:104AB00085FC0EFB178843EA084307FB0CF199427B
:104AC00009D9EB1807F1FF3080F0E380994240F2FA
:104AD000E080023F2B445B1AA4B2B3FBFEF00EFB56
:104AE000103344EA034400FB0CFCA44509D92C19FB
:104AF00000F1FF3380F0CB80A44540F2C88002383B
:104B00002C4440EA0740A4EB0C0400271EB1D4401B
:104B10000023C6E900433946BDE8F087002A53D098
:104B2000B2FA82F2002A40F0B680491B4FEA154ED5
:104B30001FFA85F80127B1FBFEFC230C0EFB1C11AC
:104B400043EA014308FB0CF1994207D9EB180CF139
:104B5000FF3002D2994200F2EC808446591AA3B287
:104B6000B1FBFEF00EFB101443EA044408FB00F80E
:104B7000A04507D92C1900F1FF3302D2A04500F25D
:104B8000DC801846A4EB080440EA0C40BEE78B42E8
:104B900008D9002E78D00027C6E9000138463946EA
:104BA000BDE8F087B3FA83F77FB98B4202D3824224
:104BB00000F2BD80841A61EB030301209846002EA9
:104BC000A9D0C6E90048A6E7FFDEC7F12005BB4033
:104BD00022FA05FC4CEA030C01FA07F420FA05F866
:104BE00021FA05F34FEA1C4E48EA0404B3FBFEF930
:104BF000210C0EFB19331FFA8CF841EA034309FB21
:104C000008FA9A4502FA07F200FA07F10BD91CEBF1
:104C1000030309F1FF3080F088809A4540F28580D7
:104C2000A9F102096344A3EB0A03A4B2B3FBFEF0AB
:104C30000EFB103344EA034400FB08F8A04508D9F2
:104C40001CEB040400F1FF336BD2A04569D9023894
:104C5000644440EA0940A4EB0804A0FB02894C45E7
:104C6000C6464B4654D351D0002E69D0B1EB0E024C
:104C700064EB030404FA05F522FA07F3FC401D4334
:104C8000C6E90054002746E73746304643E7184652
:104C900037E707461FE7C2F1200320FA03F79540E4
:104CA00001FA02F021FA03F34FEA154E3843010CE2
:104CB000B3FBFEF71FFA85F80EFB173341EA0341F9
:104CC00007FB08F38B4204FA02F407D9691807F1CD
:104CD000FF3C28D28B4226D9023F2944CB1A81B20D
:104CE000B3FBFEF00EFB103341EA034100FB08F377
:104CF0008B4207D9691800F1FF3C10D28B420ED9C4
:104D000002382944C91A40EA074714E74145ABD2A3
:104D1000B8EB020E69EB0C0201381346A4E76046BB
:104D2000F0E7184695E76746D8E781467BE73846BF
:104D300045E7ACF1020C2B4410E702382C4421E784
:104D40003746E8E6704700BF0A22002102F088B922
:104D50000EB403B5014603AB054853F8042B0068B5
:104D6000019300F09DF902B05DF804EB03B07047C9
:104D70008401001070B50E461446054618B18369CB
:104D80000BB903F00FFA2B4B9C421ED16C68636E7B
:104D9000DA0705D4A3899B0502D4A06D00F06BF857
:104DA000A38918071BD52369CBB1013E16F8011F53
:104DB00039BB656E15F0010539D1A389990502D477
:104DC000A06D00F059F8284670BD1B4B9C4201D1E4
:104DD000AC68DCE7194B9C4208BFEC68D7E721467A
:104DE000284602F001FA0028DFD0636EDA0705D406
:104DF000A3899B0502D4A06D00F03EF84FF0FF356B
:104E0000E1E7A368013B002BA36004DAA2699342A7
:104E100006DB0A2904D023685A1C22601970C5E7F2
:104E20002246284602F08EF90130BFD1DDE70D465B
:104E3000C9E700BF80B70000A0B7000060B700005E
:104E4000024B0A4601461868FFF794BF8401001020
:104E5000074B10B51C6824B1A36913B9204603F0B1
:104E6000A1F961682046BDE8104003F07DBD00BF98
:104E700084010010704770477047FFFF024B0146E6
:104E8000186800F089B800BF84010010024B014689
:104E9000186800F033B800BF840100100A44914242
:104EA00000F1FF3300D1704710B511F8014B03F842
:104EB000014F9142F9D110BD884210B501EB0203B8
:104EC00002D983421C4607D8421E994208D011F8E5
:104ED000014B02F8014FF8E783189A1A9A4200D161
:104EE00010BD14F8011D03F8011DF7E70244034645
:104EF000934200D1704703F8011BF9E738B5054626
:104F0000002945D051F8043C0C1F002BB8BFE41811
:104F100003F036FE1F4A1368104633B9636014600D
:104F20002846BDE8384003F031BEA3420CD92168C1
:104F30006218934204BF1A685B68636004BF52182A
:104F400022600460ECE713465A680AB1A242FAD91B
:104F500019685818A0420BD12068014458188242A1
:104F60001960DDD1106852685A6001441960D7E7B2
:104F700002D90C232B60D3E7206821188A4204BF92
:104F800011685268626004BF091821605C60C7E75D
:104F900038BD00BF10110010F8B5CD1C25F0030579
:104FA00008350C2D38BF0C25002D064601DBA94223
:104FB00003D90C2333600020F8BD03F0E1FD214943
:104FC0000A6814469CB9204F3B6823B921463046F5
:104FD00001F054F838602946304601F04FF8431C80
:104FE00023D10C233360304603F0D0FDE3E7236880
:104FF0005B1B17D40B2B03D923601C44256004E0F2
:105000006368A2420CBF0B605360304603F0BEFDE4
:1050100004F10B00231D20F00700C21ACCD01B1A8C
:10502000A350C9E722466468CCE7C41C24F00304FB
:10503000A042E3D0211A304601F020F80130DDD142
:10504000CFE700BF10110010141100109368013B4E
:10505000002B10B4936008DA9469A34201DB0A299B
:1050600003D15DF8044B02F06DB81368581C106052
:10507000197008465DF8044B7047F8B506460F46B0
:105080001446D518AC4201D1002007E03A4614F886
:10509000011B3046FFF7DAFF431CF3D1F8BDFFFFD9
:1050A0002DE9F04F0D469DB014461E46074618B137
:1050B00083690BB903F076F8854B9D421BD17D685F
:1050C0006B6ED90705D4AB899A0502D4A86DFFF79A
:1050D000D2FEAB891B0701D52B69EBB929463846AF
:1050E00002F082F8C0B16B6ED8070ED54FF0FF30DA
:1050F0001DB0BDE8F08F774B9D4201D1BD68DFE761
:10510000754B9D4208BFFD68DAE7AB899905EDD480
:10511000A86DFFF7B1FEE9E70023099320238DF87E
:105120002930DFF8B891039630238DF82A304FF0FC
:10513000010A23461E4613F8012B0AB1252AF9D18C
:10514000B6EB040B0BD05B46224629463846FFF7E8
:1051500094FF013000F0A380099B5B4409933378EE
:10516000002B00F09C8000234FF0FF32CDE9052397
:105170000136049307938DF853301A933446052271
:1051800014F8011B554803F0ABFC049BC0B9DA06C8
:1051900044BF20228DF85320180744BF2B228DF8DE
:1051A000532032782A2A13D0079A344600200A2640
:1051B000214611F8013B303B092B4BD970B914E063
:1051C000A0EB09000AFA00F0184304902646D5E740
:1051D000039A111D12680391002A01DB079204E073
:1051E000524243F002030792049323782E2B0CD1F2
:1051F00063782A2B33D1039B1A1D1B680392002B63
:10520000B8BF4FF0FF3302340593354E21780322A7
:10521000304603F065FC38B14023801B03FA00F0F0
:10522000049B03430134049314F8011B2D488DF8AB
:105230002810062203F054FC00283FD02A4B13BB51
:10524000039B073323F0070308330393099B43446D
:1052500009936EE706FB023201200C46A8E7002303
:105260000134059319460A26204610F8012B303ADE
:10527000092A03D9002BC8D00591C6E706FB0121F6
:1052800001230446F0E703AB00932A46174B04A919
:10529000384600F0BDF8B0F1FF3F8046D6D16B6EC6
:1052A000D90705D4AB899A0502D4A86DFFF7E4FDB0
:1052B000AB895B063FF51AAF099819E703AB00937A
:1052C0002A460A4B04A9384600F042FBE3E700BF38
:1052D00080B70000A0B7000060B70000B8B60000BB
:1052E000BEB60000C2B60000115400007B500000A2
:1052F0002DE9FF4755EC104B002D0E4691461946FF
:10530000DDF830A04FF0000203DA05F100431D463E
:105310002D220D9F0A7027F02007462F04D0452F1D
:1053200000D10136022100E0032103AB019302AB5F
:1053300000933246534645EC104B02F04DF8472F90
:10534000804602D119F0010F22D0462F08EB060942
:1053500011D198F80030302B0AD1002200232046CA
:10536000294604F099FF18B9C6F10106CAF8006091
:10537000DAF800309944002200232046294604F040
:105380008BFF08B1CDF80C903022039B4B4508D31E
:10539000039B0E9AA3EB08034046136004B0BDE8DC
:1053A000F087591C03911A70EFE7F7B50029BABFCF
:1053B00049422D232B2309290270437021DD0DF171
:1053C00007031F460A2691FBF6F206FB121430343F
:1053D000632903F1FF3503F8014C0ADC303205F88C
:1053E000012C023B821CBB42144605D3201A03B099
:1053F000F0BD2B461146E6E713F8011B02F8011B2E
:10540000F1E7302319448370041DC170EEE7FFFFFC
:105410002DE9F04F8DB00C46DDF8588016461F463A
:10542000054603F0E1FA03680693184600F047FFCB
:1054300000230A93D8F800300790073323F00703BE
:1054400003F1080294F818A0D4F800B0C8F80020BE
:10545000D3E90023C4E9122394ED127B8DED047B84
:10546000DDE9048323F000494FF0FF32A64B4046AC
:10547000494604F043FF70BB4FF0FF32A24B404659
:10548000494604F01DFF30BB00220023DDE9040182
:1054900004F00CFF10B12D2384F843309B4A9C4B41
:1054A000BAF1470F94BF9046984603232BF00402AD
:1054B000236122604FF00009009733460BAA214672
:1054C000284600F0CFF9013040F08C804FF0FF30DB
:1054D0000DB0BDE8F08FDDE904231046194604F055
:1054E0000DFF40B1059B8B4A002BBCBF2D2384F8D8
:1054F0004330894BD4E763685A1C0AF0DF093ED178
:1055000006236360002303930AAB4BF48062CDE96A
:1055100001A309AB0093616822600DF123039DEDA7
:10552000040B2846FFF7E4FEB9F1470F80460999BE
:1055300008D1C81C02DB6368994241DDAAF1020A66
:105540005FFA8AFABAF1650F20D80139524604F1A0
:1055500050000991FFF729FF0A9A1318012A814682
:10556000236102DC2268D20701D5013323619DF853
:105570002330002BA0D02D2384F843309CE7B9F1D1
:10558000470FBFD1002BBDD10123BAE7BAF1660F97
:1055900018D1002963680BDD216113B92268D00797
:1055A00002D501330B442361A1654FF00009DEE70A
:1055B00013B92268D20701D50233F4E70123F2E7D9
:1055C0004FF0670A0A9B994205DB23682161D807DF
:1055D000EAD54B1CE7E70029D4BFC1F10202012242
:1055E0001344E0E723685A0507D42369424631464D
:1055F0002846B84701302BD168E7BAF1650F40F271
:10560000DC8000220023D4E9120104F045FE0028CA
:1056100033D00123414A31462846B84701303FF490
:1056200055AFDDE909239A4202DB2368D8070FD57D
:10563000DDE9062331462846B84701303FF446AF3E
:105640004FF0000804F11A090A9B013B434509DCAD
:1056500023689B0700F10181E0680B9B9842B8BF6B
:10566000184635E701234A4631462846B8470130F7
:105670003FF42CAF08F10108E6E7099B002B2BDC77
:105680000123264A31462846B84701303FF41EAF71
:10569000DDE90923134302D12368D907D8D5DDE911
:1056A000062331462846B84701303FF40FAF4FF08C
:1056B000000904F11A0A099B5B424B4501DC0A9B75
:1056C00094E70123524631462846B84701303FF45B
:1056D000FDAE09F10109EEE70A9AA36D9A42A8BF4F
:1056E0001A46002A914607DD1346314642462846AF
:1056F000B84701303FF4EAAE04F11A034FF0000B53
:1057000029EAE979049315E0FFFFEF7FC9B60000AD
:10571000CDB60000D1B60000D5B600007CB00000C8
:105720000123049A31462846B84701303FF4CEAEF3
:105730000BF1010BD4F858A0AAEB09035B45EFDC91
:10574000DDE909239A421BDB2368DA0718D4DDE977
:10575000092392451CDBA3EB0A09B9F1000F08DD10
:105760004B4608EB0A0231462846B84701303FF461
:10577000ADAE4FF0000829EAE97904F11A0A14E005
:10578000DDE9062331462846B8470130DFD19DE6E2
:10579000A3EB0209E1E70123524631462846B84708
:1057A00001303FF493AE08F10108DDE909239B1AAB
:1057B000A3EB09034345EEDC4AE70A9A012A01DC20
:1057C000DB0737D50123424631462846B84701302A
:1057D0003FF47CAEDDE9062331462846B847013068
:1057E0003FF474AE00220023D4E9120104F054FD0A
:1057F000D8B90A9B08F10102013B31462846B84757
:1058000001300ED162E60123524631462846B847A0
:1058100001303FF45BAE08F101080A9B013B4345B0
:10582000F1DC4B4604F15002E1E64FF0000804F1D0
:105830001A0AF2E701234246DFE701234A463146CE
:105840002846B84701303FF441AE08F10108E3684B
:105850000B9A9B1A4345F0DCFEE64FF0000804F17A
:105860001909F4E72DE9F04791461F468A680B694C
:10587000DDF820809342B8BF1346C9F8003091F894
:10588000432006460C4612B10133C9F800302368A4
:10589000990642BFD9F800300233C9F800302568B4
:1058A00015F0060507D104F1190AE368D9F80020BC
:1058B0009B1AAB4228DC94F843302268003318BFAF
:1058C000012392062DD404F1430239463046C047E5
:1058D000013020D02368E568D9F8002003F00603E2
:1058E000042B08BFAD1AA36822690CBF25EAE57531
:1058F00000259342C4BF9B1AED184FF000091A34DB
:105900004D451AD1002008E0012352463946304661
:10591000C047013003D14FF0FF30BDE8F0870135BB
:10592000C3E7E1185A1C302081F84300224494F860
:10593000451082F843100233C5E701232246394659
:105940003046C0470130E6D009F10109D8E7FFFF32
:105950002DE9F04306460C4601F14300097E85B06F
:105960006E29984617460C9B00F0BA8024D863290C
:1059700039D00AD8002900F0C380582900F091805E
:1059800004F1420584F8421035E0642901D0692908
:10599000F6D125681A6815F0800F02F104012CD0A9
:1059A00012681960002A03DA2D23524284F843302A
:1059B000DFF8BCC10A233FE0732900F0A58008D8B6
:1059C0006F2921D07029DBD1226842F020022260A9
:1059D00003E0752918D07829D2D1782284F845209F
:1059E000DFF890C161E01A68111D1960136884F82E
:1059F000423004F14205012393E01268196015F06A
:105A0000400F18BF12B2CDE7D4F800C01A681CF0DE
:105A1000800F02F104051D6001D0126803E01CF044
:105A2000400FFAD01288DFF848C16F290CBF082355
:105A30000A23002184F843106568A560002DA2BFE9
:105A4000216821F0040121600AB9002D46D00546E5
:105A5000B2FBF3F103FB112E93421CF80EE005F8A4
:105A600001ED39D9082B0BD12368DA0708D5236952
:105A700062689A42DEBF302305F8013C05F1FF352C
:105A8000401B2061CDF800803B4603AA21463046EA
:105A9000FFF7E8FE013049D14FF0FF3005B0BDE817
:105AA000F083DFF8CCC084F845101D68216855F8F4
:105AB000042B1D600D060BD5CD0744BF41F020011E
:105AC00021601AB9236823F0200323601023B0E774
:105AD0004B0648BF92B2EFE70A46B9E70546C1E771
